S00C0000455049432E73726563F7
S11300000C94B4010C9483020C94D1010C94E90176
S11300100C94D1010C94D1010C94D1010C94D10114
S11300200C94D1010C94D1010C94D1010C94D10104
S11300300C94D1010C94D1010C94D1010C94D101F4
S11300400C94D1010C94D1010C94D1010C94D101E4
S11300500C94D1010C94D1010C94D1010C94D101D4
S11300600C94D1010C94D1010C94D1010C94D101C4
S1130070000000000000000000065F5F06000000B2
S11300800007070007070000147F7F147F7F140018
S1130090242E6B6B3A120000466630180C66620020
S11300A0307A4F5D377A48000407030000000000EF
S11300B0001C3E63410000000041633E1C00000040
S11300C0082A3E1C1C3E2A0808083E3E0808000078
S11300D000A0E0600000000008080808080800000C
S11300E000006060000000006030180C060301008E
S11300F03E7F594D7F3E000042427F7F40400000DA
S1130100627359496F660000226349497F360000D3
S1130110181C16137F7F1000276745457D390000A2
S11301203C7E4B4979300000036371190F070000CE
S1130130367F49497F360000064F49693F1E00005B
S113014000006C6C0000000000A0EC6C00000000DB
S1130150081C366341000000141414141414000025
S1130160004163361C080000020351590F060000C9
S11301703E7F415D5D1F1E007C7E13137E7C00006C
S1130180417F7F49497F36001C3E63414163220021
S1130190417F7F41637F1C00417F7F495D41630054
S11301A0417F7F491D0103001C3E6341517372006E
S11301B07F7F08087F7F000000417F7F41000000AF
S11301C0307040417F3F0100417F7F081C7763000E
S11301D0417F7F41406070007F7F060C067F7F0077
S11301E07F7F060C187F7F001C3E6341633E1C002A
S11301F0417F7F49090F06001E3F21717F5E000089
S1130200417F7F19396F460026674D597B320000C4
S113021003417F7F410300007F7F40407F7F0000D8
S11302201F3F60603F1F00007F7F3018307F7F00DA
S113023063771C081C776300074F78784F0700002A
S11302406773594D47637100007F7F41410000008F
S11302500103060C183060000041417F7F0000005C
S1130260080C0603060C0800808080808080808053
S11302700000030704000000207454543C7840003C
S1130280413F7F44447C3800387C44446C2800005F
S1130290307848493F7F4000387C54545C18000053
S11302A0487E7F490302000098BCA4A4F87C0400A3
S11302B0417F7F08047C780000447D7D400000007D
S11302C040C484FD7D000000417F7F10386C4400F1
S11302D000417F7F400000007C7C0C180C7C78007F
S11302E07C7C04047C780000387C44447C38000026
S11302F084FCF8A4243C1800183C24A4F8FC8400D2
S1130300447C78441C180000485C54547424000055
S113031000043E7F442400003C7C40403C7C400080
S11303201C3C60603C1C00003C7C6030607C3C00F9
S1130330446C3810386C44009CBCA0A0FC7C0000C9
S11303404C64745C4C64000008083E774141000032
S113035000000077770000004141773E0808000064
S1130360020301030203010011241FBECFEFD4E0F6
S1130370DEBFCDBF13E0A0E0B1E0E0E2F3E102C0F4
S113038005900D92A03EB107D9F723E0A0EEB3E0AB
S113039001C01D92AC3FB207E1F70E9414050C9412
S11303A08E090C94BC048BB780628BBF089590E0D7
S11303B090930114809300148091E0039091E103E1
S11303C0892BD1F3809128141092E1031092E00359
S11303D008951F920F920FB60F9211248F939F933B
S11303E081E090E09093E1038093E0039F918F91EB
S11303F00F900FBE0F901F9018950E94710460E635
S113040080E60E94310461E08BE20E94310440E006
S11304106FE080EE0E947604F89485B7886085BF0B
S11304208BB780648BBF7894089580E30E94430463
S113043082958170089580E30E94430483FB88279A
S113044080F991E089270895EF92FF920F931F930B
S1130450CF93DF93CDB7DEB72B970FB6F894DEBFFB
S11304600FBECDBFE982FA820B831C832D833E83AA
S11304704F83588769877A878B87E980FA800E943F
S11304801B02882359F1B701769567957695679590
S11304907695679581E30E9431046E2D6295660F0F
S11304A0607E82E30E943104602F6F7085E30E94B6
S11304B03104002379F07E0184E0E80EF11C0A5C2B
S11304C016E3F70161917F01812F0E9431041F5FC0
S11304D01013F7CF81E00E948E0408C00E94150219
S11304E0882321F081E191E00E943E092B960FB60A
S11304F0F894DEBF0FBECDBFDF91CF911F910F9156
S1130500FF90EF9008951F920F920FB60F9211244F
S11305102F933F934F935F936F937F938F939F9307
S1130520AF93BF93EF93FF9388E291E00E943E095B
S113053040E06CE281E00E94760481E090E09093D8
S1130540E3038093E203FF91EF91BF91AF919F91F9
S11305508F917F916F915F914F913F912F910F9068
S11305600FBE0F901F90189516161706C4F4A0918D
S11305700601B0910701AA0FBB1FE82FF92F80E0F5
S113058090E020E030E040815181840F951F2F5F7F
S11305903F4FEA0FFB1F26173707A9F702C080E079
S11305A090E00E94A407CB010895EF92FF920F936D
S11305B01F93CF93DF931616170694F5EC019B0156
S11305C0220F331F220F331F820F931F00E010E00E
S11305D00F5F1F4F0617170719F17E0124E0E20E83
S11305E0F11CF701DE012A813B81428153814217CC
S11305F0530784F413965C934E93129733832283A8
S11306002D913C9111974081518111965C934E93A9
S1130610318320833496E817F90729F7E701D8CF07
S1130620DF91CF911F910F91FF90EF9008952F923A
S11306303F924F925F926F927F928F929F92AF926E
S1130640BF92CF92DF92EF92FF920F931F93CF93BB
S1130650DF9300D000D0CDB7DEB77C015B012A0167
S1130660190148012DB73EB73C832B83CB01880F7A
S1130670991F880F991FEDB7FEB7E81BF90B0FB64A
S1130680F894FEBF0FBEEDBF2DB73EB72F5F3F4FAF
S11306903A832983690181E090E090930701809374
S11306A00601C7010E94B4021A141B041CF5D601EA
S11306B0F7019501220F331FE20EF31E8F019801FB
S11306C0F801419151918F01BD0111965C934E93B4
S11306D0F90140815181481B590B9A0122F42227C8
S11306E03327241B350BFB013383228314960E1509
S11306F01F0529F782E090E090930701809306019B
S1130700B50189819A810E94D502141415040CF054
S11307104CC0E12CF12C742C652CC5018E199F0959
S1130720039714F4E72CF62CF5013197EE0FFF1F15
S1130730EE0FFF1FEC0DFD1D828193818215930541
S113074014F4E72CF62C8501081919090230110557
S11307500CF48501B801C6010E94B40210161106FA
S1130760C4F4F60120E030E0DF0160817181681B90
S1130770790BAB0122F444275527461B570B1396DC
S11307805C934E9312972F5F3F4F34962017310797
S113079059F7B801C6010E94D502FFEFEF1AFF0A0C
S11307A0E414F5041CF45801B8CF8501E981FA81F9
S11307B082819381821593051CF00819190928C0B8
S11307C0F8013197EE0FFF1FEE0FFF1F29813A81C9
S11307D0E20FF31F8281938128163906CCF4101698
S11307E01106B4F480E090E0FC01EE0FFF1FEE0F61
S11307F0FF1FEC0DFD1D228133812216330624F4E4
S11308008C0101501109C80101968017910764F306
S1130810B80189819A810E94B40221E030E03093CA
S1130820070120930601EB81FC810FB6F894FEBF0B
S11308300FBEEDBF0F900F900F900F90DF91CF91EF
S11308401F910F91FF90EF90DF90CF90BF90AF90EA
S11308509F908F907F906F905F904F903F902F90DC
S11308600895CF93DF93D82FC62FC49882E00E94B7
S11308709E048D2F0E949E048C2F0E949E04C49A75
S1130880DF91CF910895CF93C82FC49883E00E943D
S11308909E048C2F0E949E040E94A204C49ACF91AD
S11308A00895CF93DF931F92CDB7DEB7C49880EC41
S11308B00E949E04C49A8CEC94E00197F1F700C066
S11308C000008EE00E94430489838981807E803801
S11308D021F087E991E00E943E090F90DF91CF91CA
S11308E008950E949B040E94510408951F93CF937E
S11308F0DF93D82F162FC42FC49885E00E949E043E
S1130900812F0E949E048D2F0E949E048C2F0E9492
S11309109E04C49ADF91CF911F910895C498806872
S11309200E949E04C49A089587B3806B87BB8DB1DF
S113093081658DB908950E94940408958FB9779BB9
S1130940FECF08958FEF8FB9779BFECF8FB10895B7
S11309508FE190E00E948F070E947C070E94D301E0
S11309600E946D050E94FD0178940E94B30689ECF3
S113097091E00E943E0908951F920F920FB60F92C4
S113098011242F933F934F935F936F937F938F9390
S11309909F93AF93BF93EF93FF9383ED91E00E94F6
S11309A03E09FF91EF91BF91AF919F918F917F91FC
S11309B06F915F914F913F912F910F900FBE0F90C8
S11309C01F901895EF92FF920F931F93CF93DF938D
S11309D0CDB7DEB72B970FB6F894DEBF0FBECDBFF1
S11309E0FE0131968BE0DF011D928A95E9F71091A3
S11309F0EC032091EE033091F003E980FA8003E0E8
S1130A004F81588569857A858B850E9424022B96AF
S1130A100FB6F894DEBF0FBECDBFDF91CF911F910B
S1130A200F91FF90EF9008950E94A8040E9435074B
S1130A300CEE13E0C4EED3E00F2EFEEECF2EF3E067
S1130A40DF2EF02D0F2EF6EEEF2EF3E0FF2EF02D1D
S1130A500F2EF6E0BF2EF02D0E9470052093EC03BC
S1130A603093ED034093EE035093EF036093F00350
S1130A707093F103F8018081918128813981A90162
S1130A80465F5F4F48175907ACF0F601408151812A
S1130A90F70160817181FB013A96E417F50754F080
S1130AA02A503109821793072CF06A5071094617AE
S1130AB0570714F40E94E204FFEF2FE781E0F1509E
S1130AC020408040E1F700C000C0F801DE018B2D1A
S1130AD001900D928A95E1F7BFCF87B317BA0895B5
S1130AE0CF92DF92EF92FF920F931F93CF93DF93F6
S1130AF0CDB7DEB7C654D1090FB6F894DEBF0FBE2A
S1130B00CDBF8E01095F1F4F7E0187E2E80EF11C05
S1130B106E01E5E2CE0ED11C84E00E94D70190E084
S1130B20F801819391938F0185E00E94D70190E0B1
S1130B30F701819391937F010C151D0569F703E07B
S1130B4010E02AE030E042E050E06FE070E0CE01D7
S1130B5007960E9417037C012AE030E042E050E04F
S1130B606FE070E0CE0187960E9417038C018FEF2F
S1130B7090E08E199F09081719070CF44CC00E1544
S1130B801F050CF452C04BC02091080180910B0149
S1130B9090910C01820F911D801791070CF45EC097
S1130BA0C12CD12C5BC02091080180910901909146
S1130BB00A01820F911D8E159F050CF44FC0C12CA4
S1130BC0D12C4CC02091080180910B0190910C0113
S1130BD0821B910908171907CCF0C12CD12C3EC0F7
S1130BE0209108018091090190910A01821B9109C9
S1130BF031E020E0E816F9060CF030E0C32ED22EE6
S1130C002DC087E492E00E943E0928C06894CC2459
S1130C10C2F8D12C23C00E151F0514F7D3CF0F2E05
S1130C20F3E0CF2ED12CF02D04C06894CC24C1F86D
S1130C30D12CF2E0CF16D10409F4B5CF2CF4E1E0C5
S1130C40CE16D104F1F6CCCFF3E0CF16D10409F4DB
S1130C509BCF84E0C816D104A1F6B4CFFA82E9820E
S1130C601C830B83DE82CD822E2D3A81402F5C8142
S1130C706C2D7E8180E090E0CA5BDF4F0FB6F89464
S1130C80DEBF0FBECDBFDF91CF911F910F91FF90BB
S1130C90EF90DF90CF90089540E050E070E060E086
S1130CA014C09C01240F351FE0910F01F091100135
S1130CB0E20FF31F108201968038910591F7405896
S1130CC05F4F411584E0580719F0872F962FE9CF1D
S1130CD00895806BE0E0F0E1808310828FE78083E9
S1130CE00895DF92EF92FF920F931F93CF93DF93B8
S1130CF080E00E94690620E030E0F12C6894DD2455
S1130D00D7F8E12CC0E0D2E121C0022F132FA901B2
S1130D10481B590BE0910F01F0911001E40FF51FEE
S1130D20408148830197009781F787E08F1528F069
S1130D3081E08F0D0E94690603C080E00E9469066D
S1130D40F39488E0F81639F0202F312F8D2D9E2D45
S1130D5020583F4FDACFDF91CF911F910F91FF9031
S1130D60EF90DF900895E0E0F0E18EEA808381EA7D
S1130D7080838AED808382E1808388EC808388EAA3
S1130D8080838FE3808385ED808380E8808381E89E
S1130D90808380E5808389ED808381E2808380E2A3
S1130DA0808382E080838BED808380E380838DEA7F
S1130DB08083108284EA808386EA80838FEA80833A
S1130DC083ED808381E0808380E4808380EB808373
S1130DD010828FE780830E944C060E94710608955A
S1130DE0EF92FF920F931F93CF93DF93172FFC0182
S1130DF02081222399F1F0E86F9FA0011124EC01D6
S1130E0000E0E12CF12C27C0612F620FFA01E60FFC
S1130E10F11DA0910F01B0911001AE0FBF1FE88129
S1130E20F0E0B097EE0FFF1FEE0FFF1FEE0FFF1F56
S1130E30E20FF31FE059FF4FE491EC932F5F3F4F14
S1130E402830310509F7185F0F5FEC01C00FD11D81
S1130E502881222319F02E2D3F2DD6CFDF91CF915B
S1130E601F910F91FF90EF9008950E944C060E94ED
S1130E7071062FEF8FEF9DE1215080409040E1F704
S1130E8000C0000060E070E084E693E00E94F00699
S1130E9061E070E085E793E00E94F00662E070E0B4
S1130EA086E893E00E94F00663E070E087E993E04F
S1130EB00E94F00664E070E088EA93E00E94F00685
S1130EC065E070E089EB93E00E94F00666E070E074
S1130ED08AEC93E00E94F0060E9471062FEF8FEFD8
S1130EE09DE1215080409040E1F700C000000E9445
S1130EF04C060E947106089585B7806885BF80B747
S1130F00806280BF80B710BE80B710BE08955D9B1D
S1130F10FECF8CB908955F9BFECF8CB1089590BD30
S1130F2089B988E18AB986E880BD80B510BC80B5EE
S1130F3010BC80B510BC80B510BC6BE877E087E8C6
S1130F4097E00E94F308089597FB072E16F4009487
S1130F5007D077FD09D00E94B80707FC05D03EF4FE
S1130F60909581959F4F0895709561957F4F089551
S1130F70AA1BBB1B51E107C0AA1FBB1FA617B707BB
S1130F8010F0A61BB70B881F991F5A95A9F78095D7
S1130F909095BC01CD010895CF93DF9382309105E4
S1130FA010F482E090E0E091F403F091F50320E086
S1130FB030E0A0E0B0E0309739F14081518148172A
S1130FC05907B8F04817590771F482819381109733
S1130FD029F013969C938E9312972CC09093F5034B
S1130FE08093F40327C02115310531F042175307CC
S1130FF018F0A901DB0101C0EF019A01BD01DF0175
S11310000280F381E02DD7CF21153105F9F0281B9B
S1131010390B2430310580F48A819B816115710577
S113102021F0FB019383828304C09093F5038093A2
S1131030F403FE01329644C0FE01E20FF31F8193D4
S1131040919322503109398328833AC02091F203C5
S11310503091F303232B41F42091020130910301D9
S11310603093F3032093F2032091000130910101A6
S11310702115310541F42DB73EB74091040150913B
S11310800501241B350BE091F203F091F303E21701
S1131090F307A0F42E1B3F0B2817390778F0AC0197
S11310A04E5F5F4F2417350748F04E0F5F1F509374
S11310B0F3034093F2038193919302C0E0E0F0E0E4
S11310C0CF01DF91CF910895CF93DF93009709F477
S11310D087C0FC01329713821282C091F403D0912D
S11310E0F503209781F420813181280F391F8091E5
S11310F0F2039091F3038217930779F5F093F303C6
S1131100E093F2036DC0DE0120E030E0AE17BF07CC
S113111050F412964D915C9113979D014115510520
S113112009F1DA01F3CFB383A28340815181840FA3
S1131130951F8A179B0771F48D919C911197840FC9
S1131140951F02969183808312968D919C9113979B
S1131150938382832115310529F4F093F503E093F9
S1131160F4033EC0D9011396FC93EE9312974D916C
S11311705D91A40FB51FEA17FB0779F48081918173
S1131180840F951F0296D90111969C938E938281A8
S1131190938113969C938E931297E0E0F0E08A81FA
S11311A09B81009719F0FE01EC01F9CFCE01029664
S11311B028813981820F931F2091F2033091F30328
S11311C02817390769F4309729F41092F50310921F
S11311D0F40302C013821282D093F303C093F20388
S11311E0DF91CF9108950F931F93CF93DF93EC0179
S11311F08B01009731F46115710519F480E090E0DA
S113120038C06EE070E081E090E00E946B09FC0160
S11312100097A1F380E883830115110571F013870A
S1131220028781E883838091F6039091F703892BE9
S113123021F4F093F703E093F6032097C9F0D187E4
S1131240C0878381826083838091F8039091F9033E
S1131250892B71F4F093F903E093F8038091FA0376
S11312609091FB03892B21F4F093FB03E093FA03A1
S1131270CF01DF91CF911F910F9108950F931F9389
S1131280CF93DF93E091F803F091F903238121FFD9
S11312901BC0EC0100E010E089916091F8037091AB
S11312A0F903DB011896ED91FC911997882331F02D
S11312B00995892B89F30FEF1FEFEECF8AE009958B
S11312C0892B11F4C80102C08FEF9FEFDF91CF91FA
S11312D01F910F9108950F931F93CF93DF93869FD0
S11312E08001879F100D969F100D1124C8010E9444
S11312F0CC07EC01009729F0A80160E070E00E949F
S11313008709CE01DF91CF911F910F910895DC01E0
S113131001C06D9341505040E0F70895F894FFCF19
S11313200000FC03200001000F7D0081000000008C
S11313301843414E207472616E736D697373696FE3
S11313406E206572726F7200696E74657272757068
S1131350746564210043414E2069643A2025642C5D
S11313602043414E2064617461206C656E6774682B
S11313703A2025642C2043414E20646174613A2054
S113138025632C2025632C2025632C2025632C2009
S11313902563200A0043414E535441543A20307887
S11313A0253032780A0043414E4354524C3A20309F
S11313B078253032780A004D435032353135206972
S11313C073204E4F5420696E20636F6E6669677593
S11313D0726174696F6E206D6F64652061667465F7
S11313E0722072657365742100494E495420444F3C
S11313F04E450067657474696E672072616E646F30
S11314006D20696E746572727570747300576169CA
S113141074696E6720666F72206D7A206D657373D0
S113142061676500476F742069740043414E206909
S1131430643A2025642C2043414E20646174612069
S11314406C656E6774683A2025642C2043414E20F5
S1131450646174613A2025632C2025632C20256364
S11314602C202563200A004572726F722072656316
S1131470656976696E67206A6F79737469636B2036
S113148076616C7565004A6F79737469636B20705B
S11314906F736974696F6E20783D2564202C207900
S11314A03D2564202C20646972656374696F6E3D08
S11314B025730A00536C6964657220506F736974F4
S11314C0696F6E3A206C6566743D2564202C207229
S11314D0696768743D25640A004E45555452414C71
S11314E0004C454654005249474854004C45465424
S11314F05F5550004C4546545F444F574E00524987
S11315004748545F55500052494748545F444F5729
S11315104E003C0068656C6C6F5F776F726C6400A2
S1131520492077616E7420746F206772656574203A
S1131530006772616E646D612C206265636175730E
S113154065002073686520697320736F6F6F6F6F18
S11315506F6F6F20707265747479004E554C4C2017
S11315607375626D656E7500656D707479206D6557
S11315706E7520706F696E7465722064657465633E
S113158074656400202E2D2D2D2D2D2D2D2D2D2D0A
S11315902D2D2E2000207C2050696E6720506F6E08
S11315A06721207C200020602D2D2D2D2D2D2D2D0B
S11315B02D2D2D2D272000202020202020205E20CE
S11315C02020202020202000202020202020207CDB
S11315D02020285C5F2F292000202020202020208C
S11315E07C5F5F284F2E6F292000202020202020A0
S11315F020202020283E203C2920002564200000B3
S9030000FC
