S00C0000455049432E73726563F7
S11300000C94A5020C940B030C94C2020C94DC0215
S11300100C94C2020C94C2020C94C2020C94C2024C
S11300200C94C2020C94C2020C94C2020C94C2023C
S11300300C94C2020C94C2020C94C2020C94C2022C
S11300400C94C2020C94C2020C94C2020C94C2021C
S11300500C94C2020C94C2020C94C2020C94C2020C
S11300600C94C2020C94C2020C94C2020C94C202FC
S11300704D0247023E0235022B0222021202020204
S1130080F301E501D901CC01C601B901B201A50111
S11300909D018C017A01690158014701360125014E
S11300A014010301F200E100D000BF00AE002020E3
S11300B02020202020202020283E203C2920002011
S11300C02020202020207C5F5F284F2E6F292000D5
S11300D0202020202020207C2020285C5F2F292025
S11300E000202020202020205E20202020202020EE
S11300F0200020602D2D2D2D2D2D2D2D2D2D2D2D40
S1130100272000207C2050696E6720506F6E672185
S1130110207C2000202E2D2D2D2D2D2D2D2D2D2D0F
S11301202D2D2E20002020285F5F5F295F5F2E7C0D
S11301305F5F5F5F5F0020285F5F5F5F292E5F5F07
S11301407C202020202000285F5F5F5F297C202006
S1130150207C20202020200020285F5F5F5F292052
S113016020607C20202020200020205F5F5F5F5CD7
S1130170205C20205F5F5F5F5F0020202020207CC8
S1130180205C20202020202020202000202020204F
S113019020202F7C202020202020202000506F6B46
S11301A0656D6F6E0043616E74696E612042616EAD
S11301B064005465747269730048617272792050E6
S11301C06F7474657200536F6E6773005269676869
S11301D07420536C69646572004C65667420536CBA
S11301E0696465720043616C696220536C6964657B
S11301F072730043616C6962204A6F797374696336
S11302006B005265736574204869676873636F7225
S1130210650053746F7265204869676873636F7211
S1130220650053657474696E677300486967687321
S1130230636F72650050696E6750616E6700506944
S11302406E67506F6E670047616D657300726F6F04
S11302507400000000000000000000065F5F06005C
S113026000000007070007070000147F7F147F7F4A
S11302701400242E6B6B3A120000466630180C668C
S11302806200307A4F5D377A4800040703000000AB
S11302900000001C3E63410000000041633E1C005E
S11302A00000082A3E1C1C3E2A0808083E3E080896
S11302B0000000A0E060000000000808080808082A
S11302C0000000006060000000006030180C0603AD
S11302D001003E7F594D7F3E000042427F7F4040F7
S11302E00000627359496F660000226349497F36F2
S11302F00000181C16137F7F1000276745457D39C1
S113030000003C7E4B4979300000036371190F07EC
S11303100000367F49497F360000064F49693F1E79
S1130320000000006C6C0000000000A0EC6C0000F9
S11303300000081C36634100000014141414141443
S11303400000004163361C080000020351590F06E7
S113035000003E7F415D5D1F1E007C7E13137E7C8A
S11303600000417F7F49497F36001C3E6341416361
S11303702200417F7F41637F1C00417F7F495D41B3
S11303806300417F7F491D0103001C3E634151739B
S113039072007F7F08087F7F000000417F7F41005B
S11303A00000307040417F3F0100417F7F081C778F
S11303B06300417F7F41406070007F7F060C067FB1
S11303C07F007F7F060C187F7F001C3E6341633EE5
S11303D01C00417F7F49090F06001E3F21717F5E8B
S11303E00000417F7F19396F460026674D597B32E3
S11303F0000003417F7F410300007F7F40407F7FF7
S113040000001F3F60603F1F00007F7F3018307F77
S11304107F0063771C081C776300074F78784F07C9
S113042000006773594D47637100007F7F414100AD
S113043000000103060C183060000041417F7F007A
S11304400000080C0603060C080080808080808071
S113045080800000030704000000207454543C789A
S11304604000413F7F44447C3800387C44446C283D
S11304700000307848493F7F4000387C54545C1871
S11304800000487E7F490302000098BCA4A4F87CC5
S11304900400417F7F08047C780000447D7D400097
S11304A0000040C484FD7D000000417F7F10386C53
S11304B0440000417F7F400000007C7C0C180C7CD1
S11304C078007C7C04047C780000387C44447C38CC
S11304D0000084FCF8A4243C1800183C24A4F8FC74
S11304E08400447C78441C180000485C54547424F0
S11304F0000000043E7F442400003C7C40403C7CDF
S113050040001C3C60603C1C00003C7C6030607C13
S11305103C00446C3810386C44009CBCA0A0FC7CAB
S113052000004C64745C4C64000008083E77414150
S1130530000000000077770000004141773E080882
S11305400000020301030203010011241FBECFEFC8
S1130550D4E0DEBFCDBF12E0A0E0B1E0ECEEF8E203
S113056002C005900D92A63FB107D9F723E0A6EF8C
S1130570B2E001C01D92A635B207E1F70E94A10CBA
S11305800C9474140C94970C8BB780628BBF0895F1
S113059090E090930114809300148091F60290915E
S11305A0F702892BD1F38091281490912914109289
S11305B0F7021092F60208951F920F920FB60F924F
S11305C011248F939F9381E090E09093F70280939E
S11305D0F6029F918F910F900FBE0F901F90189568
S11305E00E94180960E88FE00E94D00860E680E667
S11305F00E94D00861E08BE20E94D00860E08FE0A6
S11306000E94D008F89485B7886085BF8BB7806452
S11306108BBF789408951F920F920FB60F921124F6
S11306202F933F934F935F936F937F938F939F93F6
S1130630AF93BF93EF93FF9360E08CE20E94D008E6
S113064081E090E09093F9028093F802FF91EF919A
S1130650BF91AF919F918F917F916F915F914F91D6
S11306603F912F910F900FBE0F901F9018951F93DD
S1130670CF93DF9300D000D01F92CDB7DEB7182FF1
S113068081E08C839A83412F592F69E071E084E0E3
S11306900E94F40983E08D8384E08B8345E0410F5D
S11306A05A8164E07C8183E00E94F409412F5A81DD
S11306B06B817C818D810E94F4090F900F900F90C3
S11306C00F900F90DF91CF911F910895EF92FF92B9
S11306D00F931F93CF93DF938C010F2EF5E0EF2E32
S11306E0F02D1816190684F40F2EF6E7FF2EF02DC0
S11306F0C0E0D0E08F2D9E2D0E943703219685EF18
S1130700F80EC017D107B1F7DF91CF911F910F9168
S1130710FF90EF90089580913F03813011F130F004
S11307208230C9F1833009F47FC0089580913D037C
S11307308F3731F481E080933F030E948B03089547
S113074090913E039B3031F482E080933F030E94FA
S11307508B0308958F5F80933D03915090933E03E4
S1130760089580913D03811105C010923F030E94BA
S11307708B03089590913E039B3031F483E0809382
S11307803F030E948B030895815080933D03915051
S113079090933E03089550913D035F3731F483E015
S11307A080933F030E948B03089540913E034F338F
S11307B0B1F480910601909107010197909307018C
S11307C08093060110923D038EE180933E0382E004
S11307D080933F031092FD021092FC0208954D3362
S11307E0E1F4609101035617C0F0252F30E08091A9
S11307F0030390E0860F911D8217930774F0109203
S11308003F038091FC029091FD0201969093FD02BA
S11308108093FC020E948B0308955F5F50933D0315
S11308204F5F40933E03089540913D03411106C03C
S113083082E080933F030E948B03089550913E030E
S11308405F33B1F480910601909107010197909371
S113085007018093060110923D038EE180933E03CD
S113086082E080933F031092FD021092FC020895EF
S11308705D33E9F4609101034617C8F0242F30E09A
S11308808091030390E0860F911D821793077CF0FB
S113089081E080933F038091FC029091FD020196D8
S11308A09093FD028093FC020E948B0308954150B3
S11308B040933D035F5F50933E0308958091060388
S11308C0813081F08230A9F42091010380910303E7
S11308D090E0820F911D8F3791055CF42E5F209379
S11308E00103089580910103823018F082508093AF
S11308F001030895CF93DF9300D000D01F92CDB7AA
S1130900DEB719828BE08A831D8240E05BE06FE7EB
S113091071E080E00E94670949815A8161E074E3D3
S11309208D810E94670949815FE36FE771E08D81E2
S11309300E9467094FE75BE061E075E38D810E94E7
S113094067090F900F900F900F900F90DF91CF9148
S113095008959F92AF92BF92CF92DF92EF92FF924F
S11309600F931F93CF93DF9300D000D01F92CDB786
S1130970DEB70F2EF7E0EF2EF3E0FF2EF02D689494
S1130980CC24C1F80F2EFDE09F2EF02D0F2EF3E0A6
S1130990AF2EF02D0F2EFCE0BF2EF02D17C0F80166
S11309A080810E5F1F4F4C2D5D2D6B2D7A2D0E9483
S11309B06709F5E0DF0E8CE1D812F1CFE6E0EE0E28
S11309C0F11CFEE0CF0E80E8C81619F08701D92C7F
S11309D0E6CF0F900F900F900F900F90DF91CF9173
S11309E01F910F91FF90EF90DF90CF90BF90AF9049
S11309F09F9008951F93CF93DF9300D000D01F9250
S1130A00CDB7DEB7272F80913F038130E9F138F06D
S1130A10823009F46BC0833009F495C0BEC0709174
S1130A203D03741315C080913E03851708F4DCC0A0
S1130A30A82FB0E0E22FF0E0E50FF11DEA17FB0765
S1130A400CF4D2C081E080933F0381E090E0DDC0EC
S1130A5080913E0390E030E0250F311D821793070B
S1130A6009F09EC0741708F49EC0872F90E070E0D0
S1130A70640F711D681779070CF498C082E08093A5
S1130A803F0381E090E0C1C010913D03812F90E0CD
S1130A9070E0640F711D8617970789F4A0913E03D7
S1130AA0A51768F0B0E0E22FF0E0E50FF11DEA17BA
S1130AB0FB072CF010923F0381E090E0A6C0E09188
S1130AC03E03F0E030E0250F311DE217F30709F093
S1130AD070C0141708F470C0681779070CF46FC05D
S1130AE083E080933F0381E090E08FC080913D03D9
S1130AF0841315C090913E03951708F481C0E92F23
S1130B00F0E0272F30E0250F311D2E173F070CF49E
S1130B1077C083E080933F0381E090E076C09091BA
S1130B203E0395134FC0841708F44FC090E070E063
S1130B30640F711D681779070CF44AC010923F03C3
S1130B4081E090E062C0A0913D038A2F90E070E0C4
S1130B50640F711D8617970789F4E0913E03E5172A
S1130B6068F0F0E030E0250F311D2E173F0734F018
S1130B7082E080933F0381E090E047C020913E03F0
S1130B80251329C0A41750F16817790754F181E09F
S1130B9080933F0381E090E038C080E090E035C06E
S1130BA080E090E032C080E090E02FC080E090E0F0
S1130BB02CC080E090E029C080E090E026C080E076
S1130BC090E023C080E090E020C080E090E01DC071
S1130BD080E090E01AC080E090E017C080E090E0F0
S1130BE014C080E090E011C0E82FF0E030E0250F61
S1130BF0311DE217F30709F438CF80E090E005C017
S1130C00951709F493CF80E090E00F900F900F9028
S1130C100F900F90DF91CF911F9108953F924F92C3
S1130C205F926F927F928F929F92AF92BF92CF9278
S1130C30DF92EF92FF920F931F93CF93DF9300D035
S1130C4000D01F92CDB7DEB70F2EF7E0CF2EF3E022
S1130C50DF2EF02D6894662461F80F2EFDE03F2E00
S1130C60F02DAA24A394B12C6894882481F8912CA3
S1130C700F2EF3E04F2EF02D0F2EFCE05F2EF02D03
S1130C802BC0F8018081918182309105B1F0462D0D
S1130C90572D652D742D0E94FA04019771F4F80103
S1130CA0808191818130910519F49182808205C0FF
S1130CB0892B19F4F801B182A0820E5F1F4FF5E071
S1130CC07F0E8CE17812DDCFE6E0CE0ED11CFEE083
S1130CD06F0E80E8681619F08601732CD2CF0F903E
S1130CE00F900F900F900F90DF91CF911F910F9164
S1130CF0FF90EF90DF90CF90BF90AF909F908F9038
S1130D007F906F905F904F903F9008950E947C0D6C
S1130D1090E008956F927F928F929F92AF92BF92CC
S1130D20CF92DF92EF92FF920F931F93CF93DF93B3
S1130D3010923D038EE180933E0382E080933F0353
S1130D408FE0809301038DE38093020384E1809319
S1130D50030381E08093040380930503E7E0F3E059
S1130D608DE393E01CC0912C0F2EF3E0AF2EB12C39
S1130D70F02D712C0F2EF6E0EF2EF3E0FF2EF02D68
S1130D800F2EF3E0CF2EF3E0DF2EF02D04E110E080
S1130D90CDE3D3E00F2EF4E18F2EF02D67C0118246
S1130DA0108213821282158214823696E817F9078C
S1130DB0B1F7D9CF0E94370E91109AC00E948606CF
S1130DC0F70180838091FA029091FB0284319105AE
S1130DD00CF08AC0F82DF81B8F2FF60180838091C8
S1130DE0FC029091FD02B8010E94D40F9093FB0283
S1130DF08093FA0280910601909107010E94660394
S1130E000E947A044091010350910203609103030C
S1130E1070910403809105030E9467098091060183
S1130E20909107010E9466030E94A9048881998118
S1130E300E9433090E940E060E948B030E945E04E6
S1130E400E945C0E80E090E00E94670D811150C00A
S1130E5007C099249394691001C0972C0E945C0EDA
S1130E608FEF9FE20197F1F700C000008091060127
S1130E709091070199230CF09DCF0E94370E63E0F7
S1130E807EE181E191E00E94DA0E0E945C0E9FEF08
S1130E90EFEFFDE19150E040F040E1F700C00000C9
S1130EA00E94370E63E072E08CE191E00E94DA0E5A
S1130EB064E072E08AE291E00E94DA0E0E945C0E25
S1130EC08FEF9FE20197F1F700C000000E947C0DB4
S1130ED0813029F4B0920701A0920601C7CF0E9485
S1130EE07C0D823069F720C081E0F601808377CFE2
S1130EF00E94370E61E07DE287E391E00E94DA0E02
S1130F0063E072E08DE391E00E94DA0E64E072E047
S1130F108AE291E00E94DA0E0E947C0D682E0E9403
S1130F207C0D823009F095CFDF91CF911F910F9105
S1130F30FF90EF90DF90CF90BF90AF909F908F90F5
S1130F407F906F900895662389F02091080130E026
S1130F50E82FF92F40E080E090E05081850F911D4B
S1130F604F5FE20FF31F4613F8CF02C080E090E01A
S1130F7070E00E94C00F862F0895EF92FF921F9396
S1130F80CF93DF93662319F1DC0111967C0110E005
S1130F901F5F1617E1F0412F9D015C91E42FF0E0F3
S1130FA0EE0FFF1FE80FF91F7181751740F4E90177
S1130FB078835183E70158817081788350834F5F30
S1130FC04613EBCF1296D2E0ED0EF11CE1CFDF9188
S1130FD0CF911F91FF90EF9008952F923F924F92DF
S1130FE05F926F927F928F929F92AF92BF92CF92B5
S1130FF0DF92EF92FF920F931F93CF93DF93CDB7BE
S1131000DEB7C82EB92E162F742EA22E2DB63EB6DC
S1131010862F90E0880F991F2DB73EB7281B390BF8
S11310200FB6F8943EBF0FBE2DBF8DB79EB7019685
S11310304C017C0181E0809308018C2D9B2D0E9442
S1131040A3071123F9F0D401DC2C4C2C5B2C682F62
S113105070E0C201F20121912F01AD012C93FC013A
S1131060208130E0261B370BC901992324F48827FB
S11310709927821B930BFA0181831296842D8D1973
S1131080811738F382E080930801612FC4010E9424
S1131090BD07772009F440C0B12C672CC02ED12C99
S11310A0512C812F90E09C012B19310923303105FB
S11310B00CF4B62CFC013197EE0FFF1FEE0DFF1D53
S11310C021812A1508F4B62C8C199D0902970CF07D
S11310D0101B612FC7010E94A3071123B1F0F70170
S11310E0652D282F30E0CF01A081B0E0A21BB30B07
S11310F0AD0122F4442755274A1B5B0BDC011196F2
S11311004C936F5F32966113EECF612FC7010E943B
S1131110BD07B394B71428F2F40181818A1510F045
S1131120101B1BC0E12FF0E03197EE0FFF1FE80DFD
S1131130F91D8181A81688F4112379F080E0E82F45
S1131140F0E0EE0FFF1FEE0DFF1D9181A91610F4C4
S11311508150182F8F5F811790F3612FC4010E9473
S1131160A30791E0909308010FB6F8943EBE0FBE1A
S11311702DBEDF91CF911F910F91FF90EF90DF90E3
S1131180CF90BF90AF909F908F907F906F905F9023
S11311904F903F902F900895C4980895C49A08954D
S11311A0CF93DF93D82FC62F0E94CC0882E00E94F1
S11311B029098D2F0E9429098C2F0E9429090E9438
S11311C0CE08DF91CF910895CF93C82F0E94CC0809
S11311D083E00E9429098C2F0E9429090E942D096D
S11311E0C82F0E94CE088C2FCF910895CF93DF9300
S11311F01F92CDB7DEB70E94CC0880EC0E9429096B
S11312000E94CE088CEC94E00197F1F700C0000036
S11312108EE00E94E40889838981807E803821F0F1
S11312208AE491E00E9475110F90DF91CF910895A7
S11312300E9426090E94F60808958FEF87BB87B3A2
S1131240806B87BB8DB181658DB908950E941D099E
S113125008958FB9779BFECF08958FEF8FB9779B51
S1131260FECF8FB10895903410F488238CF41F922C
S11312709F931F928F938CE791E09F938F930E948B
S113128061110F900F900F900F900F900F90089591
S1131290292F269526952695E82FF0E060E8269FCD
S11312A0E00DF11D11242091090130910A01E20F92
S11312B0F31F4081977021E030E0B90102C0660F4E
S11312C0771F9A95E2F7CB01842B808308952F92A0
S11312D03F924F925F926F927F928F929F92AF92C2
S11312E0BF92CF92DF92EF92FF920F931F93CF930F
S11312F0DF93CDB7DEB728970FB6F894DEBF0FBEE5
S1131300CDBF8D83A42EB12CC501860F911D9F8363
S11313108E83A816B9060CF04EC07501852E912C4B
S11313206401C70ED11C252E98863C0191E0691AF0
S11313307108260181E0481A51088C149D049CF51B
S1131340022D18853E2C902F8D81813041F018F0AC
S11313508330A9F023C0832D0E9433091FC0EA14EF
S1131360FB0449F00815190531F06E147F0419F0D7
S11313704016510699F4832D0E9433090FC0EA14D4
S1131380FB0419F40815190531F06E147F0431F4C7
S11313904016510619F4832D0E9433090F5F1F4F25
S11313A00C151D0584F29FEFE91AF90A8E819F81BD
S11313B0E816F90614F228960FB6F894DEBF0FBEAD
S11313C0CDBFDF91CF911F910F91FF90EF90DF90F0
S11313D0CF90BF90AF909F908F907F906F905F90D1
S11313E04F903F902F900895DF92EF92FF920F93CA
S11313F01F93CF93DF93CDB7DEB72A970FB6F89438
S1131400DEBF0FBECDBFE42E7D83823051F018F4D1
S11314108130E9F059C0833009F443C0843059F174
S113142053C0062F10E0F42ED52ED41AEE24E394E4
S11314305D2D5F0D4F2D6E2D702F8D810E946709DC
S113144002501109F3941016110694F33DC0062FAF
S113145010E0F52EDD24D3944E2D5F2D6D2D702FCD
S11314608D810E94670902501109F394EA941016C1
S1131470110694F329C0062F10E0F42ED52ED41AA9
S1131480EE24E3945D2D5F0D4F2D602F7E2D8D8115
S11314900E94670902501109F3941016110694F37F
S11314A013C0062F10E0F52EDD24D3944E2D5F2DAE
S11314B0602F7D2D8D810E94670902501109FA94D5
S11314C0E3941016110694F32A960FB6F894DEBF2F
S11314D00FBECDBFDF91CF911F910F91FF90EF9081
S11314E0DF9008951F93CF93DF93EC010097F9F0F9
S11314F08F81882301F110E0812F90E0880F991FDC
S1131500ED81FE81E80FF91F0190F081E02DD48375
S1131510C3832D813E81F901E80FF91F80819181F8
S11315200E94720A1F5F8F81181730F304C080EA8B
S113153091E00E947511DF91CF911F910895EF9270
S1131540FF920F931F93CF93DF93E82E8B01F42E1A
S113155088E090E00E94E80FEC018F2D90E0880F66
S1131560991F0E94E80F9E838D83FF82E8821A836D
S11315700983CE01DF91CF911F910F91FF90EF90DE
S113158008950F931F93CF93DF9344E060E070E0DE
S113159080E00E949F0AEC019093FF028093FE0278
S11315A00D811E8142E060E070E081E00E949F0AAC
S11315B0F80191838083ED81FE810190F081E02D1B
S11315C00581168140E060E070E082E00E949F0A9D
S11315D0F80191838083ED81FE810190F081E02DFB
S11315E00581168140E06AE876E083E00E949F0A64
S11315F0F801938382830D811E8140E060E67DE0E3
S113160084E00E949F0AF801938382830D811E81E6
S113161044E060E070E085E00E949F0AF801958351
S11316208483ED81FE810480F581E02D058116819E
S113163040E062E67DE086E00E949F0AF801918323
S11316408083ED81FE810480F581E02D0581168182
S113165040E061E67DE087E00E949F0AF801938301
S11316608283ED81FE810480F581E02D0581168160
S113167040E06BE77DE088E00E949F0AF8019583D3
S11316808483ED81FE810480F581E02D058116813E
S113169042E060E070E089E00E949F0AF8019783CD
S11316A08683ED81FE810480F581E02D0580F6813D
S11316B0E02D0680F781E02D0581168140E069E781
S11316C07DE08AE00E949F0AF80191838083ED8186
S11316D0FE810480F581E02D0580F681E02D0680F1
S11316E0F781E02D0581168140E06AE77DE08BE01B
S11316F00E949F0AF801938382830D811E8144E036
S113170060E070E08CE00E949F0AF8019783868372
S1131710ED81FE810680F781E02D0581168140E090
S113172060E070E08DE00E949F0AF801918380835D
S1131730ED81FE810680F781E02D0581168140E070
S113174060E070E08EE00E949F0AF8019383828338
S1131750ED81FE810680F781E02D0581168140E050
S113176060E070E08FE00E949F0AF8019583848313
S1131770ED81FE810680F781E02D0581168140E030
S113178060E070E080E10E949F0AF80197838683FD
S1131790CE010E94720A8AEA91E00E947511DF91DB
S11317A0CF911F910F9108958091FE029091FF02B5
S11317B0892B11F40E94C10A8091FE029091FF02CC
S11317C00895CF93DF93DC011396ED91FC91149768
S11317D0309781F1878190E001971816190664F516
S11317E0C581D681288139812A173B07C9F40DC0E8
S11317F0262F30E0F901EE0FFF1FEC0FFD1F408193
S113180051814A175B0769F402C020E030E02F5F82
S11318103F4F220F331FC20FD31F888199810EC0FF
S113182060E06F5F262F30E0281739070CF38A2F0A
S11318309B2F04C09B2F02C08A2F9B2FDF91CF9137
S113184008951F93CF93DF93DC011396ED91FC91E0
S11318501497309751F11781123048F1C581D68120
S11318608A819B818A179B07B9F40AC041915191DF
S1131870B9016F5F7F4F4A175B0721F09B0110C0CE
S113188021E030E021503048C901880F991FC80F6A
S1131890D91F888199810CC0FE01349622E030E082
S11318A0211720F38A2F9B2F03C09B2F01C09B2F4E
S11318B0DF91CF911F910895FC018781861760F015
S11318C0862F90E0880F991F0580F681E02DE80FA0
S11318D0F91F8081918108958E2F9F2F0895FC0117
S11318E083819481009709F4CF0108950E94A40F85
S11318F00E948E0F0E94C4020E94630D0E94F00297
S113190078940E949E0E0E94D40B90934603809379
S113191045038BEB91E00E9475112FEF8FEF9EE052
S1131920215080409040E1F700C0000008951F92CC
S11319300F920FB60F9211240F900FBE0F901F90AD
S113194018950E94760CCBE4D3E00E947C0D609342
S1131950490370934A0380934B038FEF9FE20197EF
S1131960F1F700C000008881823059F120F4813001
S113197009F481C091C0833021F0843009F45AC045
S11319808BC0E0910003E11107C0E0914503F091A1
S11319904603E781E15001C0E150E0930003A091C8
S11319A04503B0914603F0E0EE0FFF1F15968D91AD
S11319B09C911697E80FF91F808191810E94210C58
S11319C06BC06091000380914503909146030E948F
S11319D05C0CDC0117968C91882379F060910003EC
S11319E080914503909146030E945C0C90934603BA
S11319F080934503109200034FC0609100038091CF
S1131A004503909146030E945C0CFC018181928104
S1131A10892B09F441C060910003809145039091A2
S1131A2046030E945C0CDC011196ED91FC91129727
S1131A30099532C080910003E0914503F09146037B
S1131A40482F50E0278130E02150310942175307D5
S1131A5011F08F5F01C080E08093000390E0880F55
S1131A60991F0580F681E02DE80FF91F808191818F
S1131A700E94E10B11C08091450390914603FC0143
S1131A8023813481232B41F00E946F0C90934603F1
S1131A90809345031092000380914503909146037F
S1131AA00E94280F809100030E941F0FFFEF2FE771
S1131AB084E0F15020408040E1F700C0000045CFB1
S1131AC008950895089587B38C7F87BB089546B31E
S1131AD021E030E0B90102C0660F771F8A95E2F772
S1131AE050E09B012423352381E0232B09F480E07B
S1131AF00895089508950895DF92EF92FF920F9349
S1131B001F93CF93DF93CDB7DEB72F970FB6F8941B
S1131B10DEBF0FBECDBF7E0180E1E80EF11C8E0159
S1131B200F5F1F4F84E00E94C802F80181938F0168
S1131B30F0E1FA95F1F700C00E151F0599F704E0DE
S1131B4022E042E06FE0CE0101960E94ED07D82E1C
S1131B508E010F5F1F4F85E00E94C802F801819338
S1131B608F01F0E1FA95F1F700C00E151F0599F702
S1131B7004E022E042E06FE0CE0101960E94ED070E
S1131B80182F282F30E04D2D50E0EFEFF0E0E41B4C
S1131B90F50B2E173F07ECF18D1508F43FC03CC040
S1131BA080910D0140910B0150E0480F511D4217E7
S1131BB053070CF440C000E03EC080910C0120911A
S1131BC00B0130E0280F311D24173507A4F100E084
S1131BD032C040910D0150E080910B01481B510926
S1131BE024173507A4F000E026C020910C0130E052
S1131BF080910B01281B310901E042175307DCF0E7
S1131C0000E019C085ED91E00E94751114C004E054
S1131C1012C08D1550F7DDCF03E001C002E00230A1
S1131C2061F218F4013071F7E0CF033009F4B8CF52
S1131C30043041F7CECF6D2D712F802F2F960FB624
S1131C40F894DEBF0FBECDBFDF91CF911F910F91EE
S1131C50FF90EF90DF900895E62FF0E0EE0FFF1F66
S1131C60E059FF4F659174910E940F11089540E06F
S1131C7050E070E060E014C09C01240F351FE09137
S1131C800F01F0911001E20FF31F108201968038CA
S1131C90910591F740585F4F411584E0580719F0BA
S1131CA0872F962FE9CF0895806BE1E0F0E18083E0
S1131CB0108280E180830895DF92EF92FF920F9368
S1131CC01F93CF93DF9380E00E94540E20E030E016
S1131CD0F12C6894DD24D7F8E12CC1E0D2E121C0D5
S1131CE0022F132FA901481B590BE0910F01F0910A
S1131CF01001E40FF51F408148830197009781F795
S1131D0087E08F1528F081E08F0D0E94540E03C0E8
S1131D1080E00E94540EF39488E0F81639F0202FE6
S1131D20312F8D2D9E2D20583F4FDACFDF91CF914B
S1131D301F910F91FF90EF90DF900895E1E0F0E1A3
S1131D408EEA808381EA80838AED808382E18083C6
S1131D5088EC808388EA80838FE3808385ED8083A9
S1131D6080E8808381E8808380E5808389ED8083B7
S1131D7081E2808380E2808382E080838BED8083B4
S1131D8080E380838DEA8083108284EA808386EAFC
S1131D9080838FEA808383ED8083108280E4808354
S1131DA080EB8083108280E180830E94370E0E9442
S1131DB05C0E0895EF92FF920F931F93CF93DF93DE
S1131DC0172FFC012081222399F1F0E86F9FA001D5
S1131DD01124EC0100E0E12CF12C27C0612F620FEB
S1131DE0FA01E60FF11DA0910F01B0911001AE0FA1
S1131DF0BF1FE881F0E0B097EE0FFF1FEE0FFF1F4B
S1131E00EE0FFF1FE20FF31FEE5AFD4FE491EC9328
S1131E102F5F3F4F2830310509F7185F0F5FEC0142
S1131E20C00FD11D2881222319F02E2D3F2DD6CF8E
S1131E30DF91CF911F910F91FF90EF900895682F3C
S1131E4078E780E892E00E94DA0E0E945C0E089522
S1131E50BF92CF92DF92EF92FF920F931F93CF9393
S1131E60DF93CDB7DEB760970FB6F894DEBF0FBE31
S1131E70CDBF6C010E94370EC114D104D9F1F60113
S1131E8087818823A1F1E12CF12C8E010F5E1F4F75
S1131E90F6012581368121153105E1F0BE2CFE01C4
S1131EA031961192E017F107E1F7C701880F991FE6
S1131EB0F901E80FF91F0190F081E02D6081CE0156
S1131EC001960E942C0E6B2D72E0CE0101960E94A9
S1131ED0DA0E04C089EC92E00E947511FFEFEF1A4C
S1131EE0FF0AF601878190E0E816F9068CF20E9459
S1131EF05C0E04C086ED92E00E94751160960FB6E8
S1131F00F894DEBF0FBECDBFDF91CF911F910F912B
S1131F10FF90EF90DF90CF90BF90089585B78068D1
S1131F2085BF80B7806280BF80B710BE80B710BE07
S1131F3008955D9BFECF8CB980E090E008955F9B8F
S1131F40FECF8CB190E0089510BC8FE189B98AB1BD
S1131F5088618AB980B5866880BD80B5877F80BD79
S1131F6080B58F7B80BD80B58F7E80BD80B58F7E30
S1131F7080BD6FE97FE089E99FE00E941611089512
S1131F80AA1BBB1B51E107C0AA1FBB1FA617B7079B
S1131F9010F0A61BB70B881F991F5A95A9F78095B7
S1131FA09095BC01CD01089597FB072E16F400947B
S1131FB007D077FD09D00E94C00F07FC05D03EF47E
S1131FC0909581959F4F0895709561957F4F0895E1
S1131FD0CF93DF938230910510F482E090E0E0919A
S1131FE04E03F0914F0320E030E0A0E0B0E03097E2
S1131FF039F14081518148175907B8F048175907FA
S113200071F482819381109729F013969C938E9397
S113201012972CC090934F0380934E0327C0211531
S1132020310531F04217530718F0A901DB0101C053
S1132030EF019A01BD01DF010280F381E02DD7CFCA
S113204021153105F9F0281B390B2430310580F4B2
S11320508A819B816115710521F0FB019383828341
S113206004C090934F0380934E03FE01329644C004
S1132070FE01E20FF31F81939193225031093983BA
S113208028833AC020914C0330914D03232B41F413
S1132090209102013091030130934D0320934C03AE
S11320A020910001309101012115310541F42DB732
S11320B03EB74091040150910501241B350BE0917A
S11320C04C03F0914D03E217F307A0F42E1B3F0BD2
S11320D02817390778F0AC014E5F5F4F2417350796
S11320E048F04E0F5F1F50934D0340934C03819370
S11320F0919302C0E0E0F0E0CF01DF91CF91089529
S1132100CF93DF93009709F487C0FC0132971382C1
S11321101282C0914E03D0914F03209781F4208105
S11321203181280F391F80914C0390914D03821700
S1132130930779F5F0934D03E0934C036DC0DE01F2
S113214020E030E0AE17BF0750F412964D915C9139
S113215013979D014115510509F1DA01F3CFB383BA
S1132160A28340815181840F951F8A179B0771F4C4
S11321708D919C911197840F951F02969183808372
S113218012968D919C911397938382832115310527
S113219029F4F0934F03E0934E033EC0D901139604
S11321A0FC93EE9312974D915D91A40FB51FEA171E
S11321B0FB0779F480819181840F951F0296D901E0
S11321C011969C938E938281938113969C938E9304
S11321D01297E0E0F0E08A819B81009719F0FE01FC
S11321E0EC01F9CFCE01029628813981820F931F29
S11321F020914C0330914D032817390769F4309727
S113220029F410924F0310924E0302C013821282DB
S1132210D0934D03C0934C03DF91CF910895FB01FC
S1132220DC0105900D920020E1F708950F931F93B0
S1132230CF93DF93EC018B01009731F461157105A5
S113224019F480E090E038C06EE070E081E090E046
S11322500E947413FC010097A1F380E883830115A5
S1132260110571F01387028781E8838380915003FD
S113227090915103892B21F4F0935103E09350037F
S11322802097C9F0D187C08783818260838380913E
S1132290520390915303892B71F4F0935303E09309
S11322A052038091540390915503892B21F4F093A8
S11322B05503E0935403CF01DF91CF911F910F9108
S11322C00895A0E0B0E0E7E6F1E10C944D14FE01BE
S11322D0359661917191AF018091520390915303AE
S11322E00E94A211E2E00C9469140F931F93CF9300
S11322F0DF93E0915203F0915303238121FF1BC02C
S1132300EC0100E010E08991609152037091530355
S1132310DB011896ED91FC911997882331F009950A
S1132320892B89F30FEF1FEFEECF8AE00995892BF4
S113233011F4C80102C08FEF9FEFDF91CF911F917D
S11323400F910895ACE0B0E0E8EAF1E10C943D149B
S11323507C016B018A01FC0117821682838181FF53
S1132360BDC1CE0101964C01F7019381F60193FDA5
S1132370859193FF81916F01882309F4ABC1853264
S113238039F493FD859193FF81916F01853229F48E
S1132390B70190E00E94AD13E7CF512C312C20E01F
S11323A02032A0F48B3269F030F4803259F0833259
S11323B069F420612CC08D3239F0803339F4216006
S11323C026C02260246023C0286021C027FD27C0C6
S11323D030ED380F3A3078F426FF06C0FAE05F9EFD
S11323E0300D1124532E13C08AE0389E300D112471
S11323F0332E20620CC08E3221F426FD6BC1206482
S113240006C08C3611F4206802C0883641F4F60107
S113241093FD859193FF81916F018111C1CF982F15
S11324209F7D9554933028F40C5F1F4FFFE3F9838D
S11324300DC0833631F0833771F0833509F05BC00A
S113244022C0F801808189830E5F1F4F4424439486
S1132450512C540115C03801F2E06F0E711CF801C3
S1132460A080B18026FF03C0652D70E002C06FEF2D
S11324707FEFC5012C870E94A2132C0183012C85B8
S11324802F77222E17C03801F2E06F0E711CF8016D
S1132490A080B18026FF03C0652D70E002C06FEFFD
S11324A07FEFC5012C870E9490132C012C85206896
S11324B0222E830123FC1BC0832D90E0481659066D
S11324C0B0F4B70180E290E00E94AD133A94F4CFE7
S11324D0F50127FC859127FE81915F01B70190E00A
S11324E00E94AD1331103A94F1E04F1A510841148F
S11324F0510471F7E5C0843611F0893639F5F801D5
S113250027FF07C060817181828193810C5F1F4F17
S113251008C060817181882777FD8095982F0E5FB0
S11325201F4F2F76B22E97FF09C090958095709516
S113253061957F4F8F4F9F4F2068B22E2AE030E085
S1132540A4010E94DF13A82EA81844C0853729F4DB
S11325502F7EB22E2AE030E025C0F22FF97FBF2E65
S11325608F36C1F018F4883579F0B4C0803719F08B
S1132570883721F0AFC02F2F2061B22EB4FE0DC0DA
S11325808B2D8460B82E09C024FF0AC09F2F96604B
S1132590B92E06C028E030E005C020E130E002C0DA
S11325A020E132E0F801B7FE07C0608171818281C9
S11325B093810C5F1F4F06C06081718180E090E0C1
S11325C00E5F1F4FA4010E94DF13A82EA818FB2D35
S11325D0FF77BF2EB6FE0BC02B2D2E7FA51450F413
S11325E0B4FE0AC0B2FC08C02B2D2E7E05C07A2C86
S11325F02B2D03C07A2C01C0752C24FF0DC0FE01C5
S1132600EA0DF11D8081803311F4297E09C022FF77
S113261006C07394739404C0822F867809F073946F
S113262023FD13C020FF06C05A2C731418F4530C56
S11326305718732C731468F4B70180E290E02C8768
S11326400E94AD1373942C85F5CF731410F43718CE
S113265001C0312C24FF12C0B70180E390E02C8725
S11326600E94AD132C8522FF17C021FF03C088E50B
S113267090E002C088E790E0B7010CC0822F867812
S113268059F021FD02C080E201C08BE227FD8DE2FA
S1132690B70190E00E94AD13A51438F4B70180E3AC
S11326A090E00E94AD135A94F7CFAA94F401EA0D76
S11326B0F11D8081B70190E00E94AD13A110F5CF08
S11326C0332009F451CEB70180E290E00E94AD13AB
S11326D03A94F6CFF7018681978102C08FEF9FEF7E
S11326E02C96E2E10C9459140F931F93CF93DF932C
S11326F0869F8001879F100D969F100D1124C8019D
S11327000E94E80FEC01009729F0A80160E070E056
S11327100E949B13CE01DF91CF911F910F910895D9
S1132720FC010590615070400110D8F78095909598
S11327308E0F9F1F0895DC0101C06D9341505040DE
S1132740E0F70895FC016150704001900110D8F742
S1132750809590958E0F9F1F08950F931F93CF938D
S1132760DF93182F092FEB018B8181FD03C08FEFBD
S11327709FEF20C082FF10C04E815F812C813D817C
S1132780421753077CF4E881F9819F012F5F3F4F83
S113279039832883108306C0E885F985812F09953C
S11327A0892B29F72E813F812F5F3F4F3F832E8353
S11327B0812F902FDF91CF911F910F910895FA01EE
S11327C0AA27283051F1203181F1E8946F936E7F6C
S11327D06E5F7F4F8F4F9F4FAF4FB1E03ED0B4E05D
S11327E03CD0670F781F891F9A1FA11D680F791F9E
S11327F08A1F911DA11D6A0F711D811D911DA11DAF
S113280020D009F468943F912AE0269F11243019BE
S1132810305D3193DEF6CF010895462F4770405D59
S11328204193B3E00FD0C9F7F6CF462F4F70405D08
S11328304A3318F0495D31FD4052419302D0A9F763
S1132840EACFB4E0A6959795879577956795BA955D
S1132850C9F700976105710508959B01AC010A2E23
S113286006945795479537952795BA95C9F7620FFA
S1132870731F841F951FA01D08952F923F924F929E
S11328805F926F927F928F929F92AF92BF92CF92FC
S1132890DF92EF92FF920F931F93CF93DF93CDB705
S11328A0DEB7CA1BDB0B0FB6F894DEBF0FBECDBF7D
S11328B009942A88398848885F846E847D848C844E
S11328C09B84AA84B984C884DF80EE80FD800C8157
S11328D01B81AA81B981CE0FD11D0FB6F894DEBF3A
S10F28E00FBECDBFED010895F894FFCFAA
S11328EC00005603200003000100180F7D81000036
S11328FC1847414D45204F56455221004C454654EE
S113290C3A20726573746172740052494748543AA0
S113291C206C65617665005041555345004C454625
S113292C543A20726573756D65004D4350323531E0
S113293C35206973204E4F5420696E20636F6E6688
S113294C696775726174696F6E206D6F646520615F
S113295C667465722072657365742100504F494E1C
S113296C5420583D256420616E6420793D256420F3
S113297C4F5554534944452053435245454E0A0040
S113298C4E554C4C206E6F646500504152454E546C
S113299C532041535349474E454400494E49542012
S11329AC444F4E450043414E20427574746F6E2063
S11329BC73656E74004572726F722072656365691B
S11329CC76696E67206A6F79737469636B207661BC
S11329DC6C7565004A6F79737469636B20706F73DF
S11329EC6974696F6E20783D2564202C20793D250F
S11329FC64202C20646972656374696F6E3D257361
S1132A0C0A00536C6964657220506F736974696F42
S1132A1C6E3A206C6566743D2564202C20726967BF
S1132A2C68743D25640A004E45555452414C004C83
S1132A3C454654005249474854004C4546545F554A
S1132A4C50004C4546545F444F574E00524947483A
S1132A5C545F55500052494748545F444F574E00F9
S1132A6C3C0068656C6C6F5F776F726C6400492016
S1132A7C77616E7420746F206772656574200067CB
S1132A8C72616E646D612C2062656361757365009F
S1132A9C2073686520697320736F6F6F6F6F6F6F2E
S1132AAC6F20707265747479004E554C4C2073759C
S1132ABC626D656E7500656D707479206D656E75EB
S1132ACC20706F696E7465722064657465637465D7
S1092ADC640025642000E3
S9030000FC
