:100000000C9438000C9485010C9455000C945B0002
:100010000C9455000C9455000C9455000C9455000C
:100020000C9455000C9455000C9455000C945500FC
:100030000C9455000C9455000C9455000C945500EC
:100040000C9455000C9455000C9455000C945500DC
:100050000C9455000C9455000C9455000C945500CC
:100060000C9455000C9455000C9455000C945500BC
:1000700011241FBECFEFD4E0DEBFCDBF11E0A0E062
:10008000B1E0EEE6F0E102C005900D92A23EB107AC
:10009000D9F721E0A2EEB1E001C01D92A03FB20766
:1000A000E1F70E94D2020C9435080C94AC028BB795
:1000B00080628BBF08951F920F920FB60F9211248A
:1000C0008F939F9381E090E09093E3018093E2010E
:1000D0009F918F910F900FBE0F901F9018950E94C7
:1000E00041024FEF60E680E00E94660240E06BE272
:1000F00081E00E94660240E46FE080EE0E946602AA
:100100008CE00E9458021F928F9388E091E09F93A9
:100110008F930E942205F89485B7886085BF8BB7BE
:1001200080648BBF78940F900F900F900F9008957C
:1001300080E30E94580283FB882780F991E0892799
:100140000895EF92FF920F931F93CF93DF93CDB754
:10015000DEB72B970FB6F894DEBF0FBECDBFE98296
:10016000FA820B831C832D833E834F8358876987D4
:100170007A878B87E980FA800E949800882371F142
:1001800089E191E00E943605B701769567957695ED
:1001900067957695679581E30E9446026E2D62957C
:1001A000660F607E82E30E944602602F6F7085E3D7
:1001B0000E944602002379F07E0184E0E80EF11CE3
:1001C0000A5C16E3F70161917F01812F0E944602CC
:1001D0001F5F1013F7CF81E00E947E022B960FB6AF
:1001E000F894DEBF0FBECDBFDF91CF911F910F916D
:1001F000FF90EF9008959F92AF92BF92CF92DF92BF
:10020000EF92FF920F931F93CF93DF93CDB7DEB79B
:100210002B970FB6F894DEBF0FBECDBF7C018CE2EA
:100220000E9458021F928F9381E291E09F938F93D7
:100230000E94220581E60E9458021F928F9388E354
:1002400091E09F938F930E9422050FB6F894DEBF32
:100250000FBECDBF2091E4013091E501232BD1F3F6
:100260008AE491E00E94360581E60E945802C82E79
:1002700082E60E94580290E2C99E60011124869590
:1002800086958695C82A85E60E945802982E88236E
:10029000A9F08E010C5F1F4F0F2EF6E6AF2EF02D4A
:1002A000A80E0F2EF6E6BF2EF02D8B2D0E945802C1
:1002B000F80181938F01B394BA10F7CF1092E50142
:1002C0001092E40140E06CE281E00E946602DA8272
:1002D000C9829B828BE0FE013196D70101900D927D
:1002E0008A95E1F7C7012B960FB6F894DEBF0FBED3
:1002F000CDBFDF91CF911F910F91FF90EF90DF90D5
:10030000CF90BF90AF909F9008951F920F920FB61D
:100310000F9211242F933F934F935F936F937F938B
:100320008F939F93AF93BF93EF93FF9384E591E0F7
:100330000E9436058CE20E9458021F928F9381E240
:1003400091E09F938F930E94220540E06CE281E050
:100350000E94660281E090E09093E5018093E401C1
:100360000F900F900F900F90FF91EF91BF91AF9171
:100370009F918F917F916F915F914F913F912F91BD
:100380000F900FBE0F901F901895EF92FF920F9352
:100390001F93CF93DF93CDB7DEB766970FB6F89470
:1003A000DEBF0FBECDBF40E46FE080EE0E9466026C
:1003B000FE013C968BE0DF011D928A95E9F788EEFD
:1003C000E82E8C8783E08D8784E08E8781E68F8797
:1003D00083E6888B81E4898B81E28A8B0F2EF3E0A0
:1003E000FF2EF02D04E011E623E631E441E25B89C3
:1003F0006C897D898E890E94A100BFEF2FE781E083
:10040000B15020408040E1F700C000C0CE0101960D
:100410000E94FB008F811F928F938E811F928F937A
:100420008D811F928F938C811F928F938B811F924E
:100430008F938A818F9389818F9381E691E09F9337
:100440008F930E9422050FB6F894DEBF0FBECDBF7A
:1004500066960FB6F894DEBF0FBECDBFDF91CF9189
:100460001F910F91FF90EF900895C49880EC0E9427
:100470008E02C49A8CEC94E00197F1F700C0000062
:1004800008950E948B020E9435020895CF93DF9356
:10049000D82FC62FC49882E00E948E028D2F0E9412
:1004A0008E028C2F0E948E02C49ADF91CF91089504
:1004B000CF93C82FC49883E00E948E028C2F0E9495
:1004C0008E020E949202C49ACF9108951F93CF93F7
:1004D000DF93D82F162FC42FC49885E00E948E0278
:1004E000812F0E948E028D2F0E948E028C2F0E94DF
:1004F0008E02C49ADF91CF911F910895C4988068AD
:100500000E948E02C49A089587B3806B87BB8DB119
:1005100081658DB908950E94840208958FB9779BF3
:10052000FECF08958FEF8FB9779BFECF8FB10895DF
:100530008FE190E00E949B030E9488030E94570075
:100540000E94E2020E946F0078940E944C038EEB9E
:1005500091E00E94360508951F920F920FB60F92F8
:1005600011242F933F934F935F936F937F938F93B8
:100570009F93AF93BF93EF93FF9388EC91E00E941A
:100580003605FF91EF91BF91AF919F918F917F9130
:100590006F915F914F913F912F910F900FBE0F90F0
:1005A0001F9018950E9498020E94C5012FEF8FEFAF
:1005B0009EE0215080409040E1F700C0000080E0C4
:1005C00090E0089587B317BA089540E050E070E0D6
:1005D00060E014C09C01240F351FE0910601F091EA
:1005E0000701E20FF31F108201968038910591F701
:1005F00040585F4F411584E0580719F0872F962F18
:10060000E9CF0895806BE0E0F0E1808310828FE70E
:1006100080830895DF92EF92FF920F931F93CF9301
:10062000DF9380E00E94020320E030E0F12C689428
:10063000DD24D7F8E12CC0E0D2E121C0022F132F36
:10064000A901481B590BE0910601F0910701E40F45
:10065000F51F408148830197009781F787E08F1548
:1006600028F081E08F0D0E94020303C080E00E9409
:100670000203F39488E0F81639F0202F312F8D2DE6
:100680009E2D20583F4FDACFDF91CF911F910F91D0
:10069000FF90EF90DF900895E0E0F0E18EEA808334
:1006A00081EA80838AED808382E1808388EC808385
:1006B00088EA80838FE3808385ED808380E8808370
:1006C00081E8808380E5808389ED808381E2808377
:1006D00080E2808382E080838BED808380E380836F
:1006E0008DEA8083108284EA808386EA80838FEAA1
:1006F000808383ED8083108280E4808380EB80831D
:1007000010828FE780830E94E5020E940A03089509
:1007100085B7806885BF80B7806280BF80B710BE14
:1007200080B710BE08955D9BFECF8CB908955F9B86
:10073000FECF8CB1089590BD89B988E18AB986E869
:1007400080BD80B510BC80B510BC80B510BC80B534
:1007500010BC67E973E083E993E00E94D704089531
:10076000CF93DF938230910510F482E090E0E09126
:10077000E801F091E90120E030E0A0E0B0E030973E
:1007800039F14081518148175907B8F04817590786
:1007900071F482819381109729F013969C938E9324
:1007A00012972CC09093E9018093E80127C021158E
:1007B000310531F04217530718F0A901DB0101C0E0
:1007C000EF019A01BD01DF010280F381E02DD7CF57
:1007D00021153105F9F0281B390B2430310580F43F
:1007E0008A819B816115710521F0FB0193838283CE
:1007F00004C09093E9018093E801FE01329644C061
:10080000FE01E20FF31F8193919322503109398346
:1008100028833AC02091E6013091E701232B41F46F
:1008200020910201309103013093E7012093E6010A
:1008300020910001309101012115310541F42DB7BE
:100840003EB74091040150910501241B350BE09106
:10085000E601F091E701E217F307A0F42E1B3F0B2E
:100860002817390778F0AC014E5F5F4F2417350722
:1008700048F04E0F5F1F5093E7014093E6018193CC
:10088000919302C0E0E0F0E0CF01DF91CF910895B5
:10089000CF93DF93009709F487C0FC01329713824E
:1008A0001282C091E801D091E901209781F4208162
:1008B0003181280F391F8091E6019091E70182175D
:1008C000930779F5F093E701E093E6016DC0DE014F
:1008D00020E030E0AE17BF0750F412964D915C91C6
:1008E00013979D014115510509F1DA01F3CFB38347
:1008F000A28340815181840F951F8A179B0771F451
:100900008D919C911197840F951F029691838083FE
:1009100012968D919C9113979383828321153105B3
:1009200029F4F093E901E093E8013EC0D901139660
:10093000FC93EE9312974D915D91A40FB51FEA17AA
:10094000FB0779F480819181840F951F0296D9016C
:1009500011969C938E938281938113969C938E9390
:100960001297E0E0F0E08A819B81009719F0FE0188
:10097000EC01F9CFCE01029628813981820F931FB5
:100980002091E6013091E7012817390769F4309783
:1009900029F41092E9011092E80102C01382128238
:1009A000D093E701C093E601DF91CF9108950F93B3
:1009B0001F93CF93DF93EC018B01009731F4611506
:1009C000710519F480E090E038C06EE070E081E0DD
:1009D00090E00E943507FC010097A1F380E8838333
:1009E0000115110571F01387028781E883838091D7
:1009F000EA019091EB01892B21F4F093EB01E09354
:100A0000EA012097C9F0D187C08783818260838300
:100A10008091EC019091ED01892B71F4F093ED013F
:100A2000E093EC018091EE019091EF01892B21F48C
:100A3000F093EF01E093EE01CF01DF91CF911F9191
:100A40000F910895A0E0B0E0E8E2F5E00C940E0804
:100A5000FE01359661917191AF018091EC01909109
:100A6000ED010E946305E2E00C942A080F931F93A6
:100A7000CF93DF93E091EC01F091ED01238121FF11
:100A80001BC0EC0100E010E089916091EC017091D5
:100A9000ED01DB011896ED91FC911997882331F057
:100AA0000995892B89F30FEF1FEFEECF8AE00995A7
:100AB000892B11F4C80102C08FEF9FEFDF91CF9116
:100AC0001F910F910895ACE0B0E0E9E6F5E00C94D9
:100AD000FE077C016B018A01FC011782168283816B
:100AE00081FFBDC1CE0101964C01F7019381F60152
:100AF00093FD859193FF81916F01882309F4ABC128
:100B0000853239F493FD859193FF81916F01853290
:100B100029F4B70190E00E946E07E7CF512C312CE9
:100B200020E02032A0F48B3269F030F4803259F0AA
:100B3000833269F420612CC08D3239F0803339F46E
:100B4000216026C02260246023C0286021C027FDC8
:100B500027C030ED380F3A3078F426FF06C0FAE0AF
:100B60005F9E300D1124532E13C08AE0389E300D45
:100B70001124332E20620CC08E3221F426FD6BC16D
:100B8000206406C08C3611F4206802C0883641F417
:100B9000F60193FD859193FF81916F018111C1CF82
:100BA000982F9F7D9554933028F40C5F1F4FFFE3DF
:100BB000F9830DC0833631F0833771F0833509F046
:100BC0005BC022C0F801808189830E5F1F4F4424DF
:100BD0004394512C540115C03801F2E06F0E711C82
:100BE000F801A080B18026FF03C0652D70E002C02F
:100BF0006FEF7FEFC5012C870E9463072C018301F3
:100C00002C852F77222E17C03801F2E06F0E711C51
:100C1000F801A080B18026FF03C0652D70E002C0FE
:100C20006FEF7FEFC5012C870E9451072C012C85A7
:100C30002068222E830123FC1BC0832D90E04816E0
:100C40005906B0F4B70180E290E00E946E073A9432
:100C5000F4CFF50127FC859127FE81915F01B70153
:100C600090E00E946E0731103A94F1E04F1A51085B
:100C70004114510471F7E5C0843611F0893639F515
:100C8000F80127FF07C060817181828193810C5F29
:100C90001F4F08C060817181882777FD8095982F4C
:100CA0000E5F1F4F2F76B22E97FF09C0909580954B
:100CB000709561957F4F8F4F9F4F2068B22E2AE02D
:100CC00030E0A4010E94A007A82EA81844C08537D0
:100CD00029F42F7EB22E2AE030E025C0F22FF97FD2
:100CE000BF2E8F36C1F018F4883579F0B4C0803744
:100CF00019F0883721F0AFC02F2F2061B22EB4FE3B
:100D00000DC08B2D8460B82E09C024FF0AC09F2F10
:100D10009660B92E06C028E030E005C020E130E042
:100D200002C020E132E0F801B7FE07C060817181A6
:100D3000828193810C5F1F4F06C06081718180E0CA
:100D400090E00E5F1F4FA4010E94A007A82EA818D4
:100D5000FB2DFF77BF2EB6FE0BC02B2D2E7FA514CB
:100D600050F4B4FE0AC0B2FC08C02B2D2E7E05C084
:100D70007A2C2B2D03C07A2C01C0752C24FF0DC0BA
:100D8000FE01EA0DF11D8081803311F4297E09C036
:100D900022FF06C07394739404C0822F867809F0F2
:100DA000739423FD13C020FF06C05A2C731418F44B
:100DB000530C5718732C731468F4B70180E290E059
:100DC0002C870E946E0773942C85F5CF731410F452
:100DD000371801C0312C24FF12C0B70180E390E026
:100DE0002C870E946E072C8522FF17C021FF03C0AD
:100DF00088E590E002C088E790E0B7010CC0822F40
:100E0000867859F021FD02C080E201C08BE227FD07
:100E10008DE2B70190E00E946E07A51438F4B70187
:100E200080E390E00E946E075A94F7CFAA94F401F1
:100E3000EA0DF11D8081B70190E00E946E07A110BC
:100E4000F5CF332009F451CEB70180E290E00E9443
:100E50006E073A94F6CFF7018681978102C08FEF33
:100E60009FEF2C96E2E10C941A080F931F93CF93F7
:100E7000DF93869F8001879F100D969F100D112490
:100E8000C8010E94B003EC01009729F0A80160E0BE
:100E900070E00E945C07CE01DF91CF911F910F910E
:100EA0000895FC010590615070400110D8F78095BD
:100EB00090958E0F9F1F0895DC0101C06D934150E6
:100EC0005040E0F70895FC0161507040019001101E
:100ED000D8F7809590958E0F9F1F08950F931F93BD
:100EE000CF93DF93182F092FEB018B8181FD03C076
:100EF0008FEF9FEF20C082FF10C04E815F812C8159
:100F00003D81421753077CF4E881F9819F012F5FEF
:100F10003F4F39832883108306C0E885F985812FE8
:100F20000995892B29F72E813F812F5F3F4F3F8302
:100F30002E83812F902FDF91CF911F910F910895D4
:100F4000FA01AA27283051F1203181F1E8946F93FA
:100F50006E7F6E5F7F4F8F4F9F4FAF4FB1E03ED0A0
:100F6000B4E03CD0670F781F891F9A1FA11D680F3E
:100F7000791F8A1F911DA11D6A0F711D811D911D71
:100F8000A11D20D009F468943F912AE0269F1124E6
:100F90003019305D3193DEF6CF010895462F47704A
:100FA000405D4193B3E00FD0C9F7F6CF462F4F70A5
:100FB000405D4A3318F0495D31FD4052419302D003
:100FC000A9F7EACFB4E0A6959795879577956795A9
:100FD000BA95C9F700976105710508959B01AC01A9
:100FE0000A2E06945795479537952795BA95C9F7D0
:100FF000620F731F841F951FA01D08952F923F92AB
:101000004F925F926F927F928F929F92AF92BF9218
:10101000CF92DF92EF92FF920F931F93CF93DF93C4
:10102000CDB7DEB7CA1BDB0B0FB6F894DEBF0FBE21
:10103000CDBF09942A88398848885F846E847D846E
:101040008C849B84AA84B984C884DF80EE80FD8070
:101050000C811B81AA81B981CE0FD11D0FB6F894E6
:0E106000DEBF0FBECDBFED010895F894FFCFA7
:10106E000000F001200000184246504354524C3A02
:10107E00203078253032780A0053656E64696E67C9
:10108E000043414E494E54462E52583049463A205E
:10109E003078253032780A0052584230534944484D
:1010AE003A203078253032780A006A6B736C6667A6
:1010BE0064666700696E746572727570746564211A
:1010CE000043414E2069643A2025642C2043414E52
:1010DE002064617461206C656E6774683A202564C3
:1010EE002C2043414E20646174613A2025632C20EC
:1010FE0025632C2025632C2025630A0043414E5383
:10110E005441543A203078253032780A0043414E0B
:10111E004354524C3A203078253032780A00494EEA
:10112E00495420444F4E450067657474696E6720BC
:10113E0072616E646F6D20696E7465727275707413
:02114E0073002C
:00000001FF
