S00C0000455049432E73726563F7
S11300000C94B4010C94D1010C94D1010C94D7013B
S11300100C94D1010C94D1010C94D1010C94D10114
S11300200C94D1010C94D1010C94D1010C94D10104
S11300300C94D1010C94D1010C94D1010C94D101F4
S11300400C94D1010C94D1010C94D1010C94D101E4
S11300500C94D1010C94D1010C94D1010C94D101D4
S11300600C94D1010C94D1010C94D1010C94D101C4
S1130070000000000000000000065F5F06000000B2
S11300800007070007070000147F7F147F7F140018
S1130090242E6B6B3A120000466630180C66620020
S11300A0307A4F5D377A48000407030000000000EF
S11300B0001C3E63410000000041633E1C00000040
S11300C0082A3E1C1C3E2A0808083E3E0808000078
S11300D000A0E0600000000008080808080800000C
S11300E000006060000000006030180C060301008E
S11300F03E7F594D7F3E000042427F7F40400000DA
S1130100627359496F660000226349497F360000D3
S1130110181C16137F7F1000276745457D390000A2
S11301203C7E4B4979300000036371190F070000CE
S1130130367F49497F360000064F49693F1E00005B
S113014000006C6C0000000000A0EC6C00000000DB
S1130150081C366341000000141414141414000025
S1130160004163361C080000020351590F060000C9
S11301703E7F415D5D1F1E007C7E13137E7C00006C
S1130180417F7F49497F36001C3E63414163220021
S1130190417F7F41637F1C00417F7F495D41630054
S11301A0417F7F491D0103001C3E6341517372006E
S11301B07F7F08087F7F000000417F7F41000000AF
S11301C0307040417F3F0100417F7F081C7763000E
S11301D0417F7F41406070007F7F060C067F7F0077
S11301E07F7F060C187F7F001C3E6341633E1C002A
S11301F0417F7F49090F06001E3F21717F5E000089
S1130200417F7F19396F460026674D597B320000C4
S113021003417F7F410300007F7F40407F7F0000D8
S11302201F3F60603F1F00007F7F3018307F7F00DA
S113023063771C081C776300074F78784F0700002A
S11302406773594D47637100007F7F41410000008F
S11302500103060C183060000041417F7F0000005C
S1130260080C0603060C0800808080808080808053
S11302700000030704000000207454543C7840003C
S1130280413F7F44447C3800387C44446C2800005F
S1130290307848493F7F4000387C54545C18000053
S11302A0487E7F490302000098BCA4A4F87C0400A3
S11302B0417F7F08047C780000447D7D400000007D
S11302C040C484FD7D000000417F7F10386C4400F1
S11302D000417F7F400000007C7C0C180C7C78007F
S11302E07C7C04047C780000387C44447C38000026
S11302F084FCF8A4243C1800183C24A4F8FC8400D2
S1130300447C78441C180000485C54547424000055
S113031000043E7F442400003C7C40403C7C400080
S11303201C3C60603C1C00003C7C6030607C3C00F9
S1130330446C3810386C44009CBCA0A0FC7C0000C9
S11303404C64745C4C64000008083E774141000032
S113035000000077770000004141773E0808000064
S1130360020301030203010011241FBECFEFD4E0F6
S1130370DEBFCDBF12E0A0E0B1E0E2EDFAE002C0E2
S113038005900D92A23BB107D9F722E0A2EBB2E0AF
S113039001C01D92AE3BB207E1F70E94F7010C9435
S11303A067050C9400008BB780628BBF08951F9281
S11303B00F920FB60F9211248F939F9381E090E0D8
S11303C09093B3028093B2029F918F910F900FBECE
S11303D00F901F9018958FE190E00E9487030E9470
S11303E074030E94D30178940E94670208950E94C6
S11303F0EB0188E091E00E9417050E942A03FFCFD9
S113040040E050E070E060E014C09C01240F351F10
S1130410E0910601F0910701E20FF31F10820196AB
S11304208038910591F740585F4F411584E0580793
S113043019F0872F962FE9CF0895806BE0E0F0E163
S1130440808310828FE780830895DF92EF92FF927A
S11304500F931F93CF93DF9380E00E941D0220E04F
S113046030E0F12C6894DD24D7F8E12CC0E0D2E12F
S113047021C0022F132FA901481B590BE09106013B
S1130480F0910701E40FF51F40814883019700971D
S113049081F787E08F1528F081E08F0D0E941D02FF
S11304A003C080E00E941D02F39488E0F81639F03E
S11304B0202F312F8D2D9E2D20583F4FDACFDF91E5
S11304C0CF911F910F91FF90EF90DF900895E0E09E
S11304D0F0E18EEA808381EA80838AED808382E181
S11304E0808388EC808388EA80838FE3808385ED32
S11304F0808380E8808381E8808380E5808389ED40
S1130500808381E2808380E2808382E080838BED3C
S1130510808380E380838DEA8083108284EA8083F1
S113052086EA80838FEA808383ED8083108280E46F
S1130530808380EB808310828FE780830E94000297
S11305400E9425020895EF92FF920F931F93CF9379
S1130550DF93062F10E0101611064CF5642F752F4B
S113056040E050E0E12CF12C1BC0E881F0E0B097B2
S1130570EE0FFF1FEE0FFF1FEE0FFF1FE20FF31F23
S1130580E059FF4FE491ED932F5F3F4F2830310541
S113059061F74F5F5F4F685F7F4F401751073CF42F
S11305A0DB012E2D3F2DEC01C40FD51FDECFDF91D3
S11305B0CF911F910F91FF90EF900895AF92BF924A
S11305C0CF92DF92EF92FF920F931F93CF93DF931B
S11305D0CDB7DEB7B42EA52EEDB6FEB6C62ED12C01
S11305E02DB73EB740E8649F2019310911240FB696
S11305F0F8943EBF0FBE2DBF0DB71EB70F5F1F4F40
S1130600A8010E94A3028A2D90E020E8B29E800DEA
S1130610911D11242091060130910701A601440F78
S1130620551F440F551F440F551FB801820F931FC8
S11306300E94C3040FB6F894FEBE0FBEEDBEDF9158
S1130640CF911F910F91FF90EF90DF90CF90BF90CB
S1130650AF9008950E9400020E9425022FEF8FEFB1
S11306609DE1215080409040E1F700C0000040E04F
S113067050E060E187E392E00E94DE0241E050E056
S113068060E188E492E00E94DE0242E050E060E132
S113069089E592E00E94DE0243E050E060E18AE6F0
S11306A092E00E94DE0244E050E060E18BE792E0D9
S11306B00E94DE0245E050E060E18CE892E00E9496
S11306C0DE0246E050E060E18DE992E00E94DE0245
S11306D00E9425022FEF8FEF9AE421508040904032
S11306E0E1F700C00000089585B7806885BF80B732
S11306F0806280BF80B710BE80B710BE08955D9B36
S1130700FECF8CB908955F9BFECF8CB1089590BD48
S113071089B988E18AB986E880BD80B510BC80B506
S113072010BC80B510BC80B510BC63E873E08FE7E3
S113073093E00E94CC040895CF93DF938230910517
S113074010F482E090E0E091B602F091B70220E06C
S113075030E0A0E0B0E0309739F140815181481792
S11307605907B8F04817590771F48281938110979B
S113077029F013969C938E9312972CC09093B702F2
S11307808093B60227C02115310531F04217530773
S113079018F0A901DB0101C0EF019A01BD01DF01DD
S11307A00280F381E02DD7CF21153105F9F0281B04
S11307B0390B2430310580F48A819B8161157105E0
S11307C021F0FB019383828304C09093B70280934A
S11307D0B602FE01329644C0FE01E20FF31F81937C
S11307E0919322503109398328833AC02091B4026D
S11307F03091B502232B41F4209102013091030181
S11308003093B5022093B40220910001309101018C
S11308102115310541F42DB73EB7409104015091A3
S11308200501241B350BE091B402F091B502E217E7
S1130830F307A0F42E1B3F0B2817390778F0AC01FF
S11308404E5F5F4F2417350748F04E0F5F1F5093DC
S1130850B5024093B4028193919302C0E0E0F0E0CA
S1130860CF01DF91CF910895CF93DF93009709F4DF
S113087087C0FC01329713821282C091B602D091D4
S1130880B702209781F420813181280F391F80918C
S1130890B4029091B5028217930779F5F093B502EB
S11308A0E093B4026DC0DE0120E030E0AE17BF0774
S11308B050F412964D915C9113979D014115510589
S11308C009F1DA01F3CFB383A28340815181840F0C
S11308D0951F8A179B0771F48D919C911197840F32
S11308E0951F02969183808312968D919C91139704
S11308F0938382832115310529F4F093B702E093A1
S1130900B6023EC0D9011396FC93EE9312974D9113
S11309105D91A40FB51FEA17FB0779F480819181DB
S1130920840F951F0296D90111969C938E93828110
S1130930938113969C938E931297E0E0F0E08A8162
S11309409B81009719F0FE01EC01F9CFCE010296CC
S113095028813981820F931F2091B4023091B5020E
S11309602817390769F4309729F41092B7021092C6
S1130970B60202C013821282D093B502C093B402AD
S1130980DF91CF910895FB01DC0102C001900D922B
S113099041505040D8F708950F931F93CF93DF939E
S11309A0EC018B01009731F46115710519F480E0B5
S11309B090E038C06EE070E081E090E00E94440571
S11309C0FC010097A1F380E883830115110571F000
S11309D01387028781E883838091B8029091B902DA
S11309E0892B21F4F093B902E093B8022097C9F05F
S11309F0D187C0878381826083838091BA0290917A
S1130A00BB02892B71F4F093BB02E093BA0280918C
S1130A10BC029091BD02892B21F4F093BD02E093B6
S1130A20BC02CF01DF91CF911F910F9108950F93D5
S1130A301F93CF93DF93E091BA02F091BB0223811D
S1130A4021FF1BC0EC0100E010E089916091BA0223
S1130A507091BB02DB011896ED91FC9119978823E4
S1130A6031F00995892B89F30FEF1FEFEECF8AE060
S1130A700995892B11F4C80102C08FEF9FEFDF9114
S1130A80CF911F910F9108950F931F93CF93DF93ED
S1130A90869F8001879F100D969F100D1124C80119
S1130AA00E949C03EC01009729F0A80160E070E02B
S1130AB00E946005CE01DF91CF911F910F9108959F
S1130AC0DC0101C06D9341505040E0F70895F89463
S1050AD0FFCF52
S1130AD20000BE0220000018494E495420444F4EE3
S1130AE2450068656C6C6F5F776F726C64004920B7
S1130AF277616E7420746F206772656574206D79F6
S1130B02206D6F6D2C206265636175736520736857
S1130B126520697320736F6F6F6F206E6963652E32
S1130B2220492077616E7420746F20677265657442
S1130B32206D79206772616E646D612C2062656339
S1130B42617573652073686520697320736F6F6FB5
S1130B526F207072657474792E20492077616E74E7
S1130B6220746F207361792068656C6C6F20746FD8
S1130B72206D7920746561636865722C20626563F7
S1130B826175736520686520697320736F6F6F6F79
S1130B92206272696768742E20492077616E74201E
S1130BA2746F207361792068656C6C6F20746F2098
S1130BB26D7920667269656E642050657465722C65
S1130BC220626563617573652068652069732073AB
S1130BD26F6F6F6F20667269656E646C792E200088
S1130BE24D656E75206E756D207375626D656E75DB
S1130BF2733A2025640A004D656E75207469746C1D
S1130C02653A2025730A00202E2D2D2D2D2D2D2DF4
S1130C122D2D2D2D2D2E2000207C2050696E672035
S1130C22506F6E6721207C200020602D2D2D2D2DEC
S1130C322D2D2D2D2D2D2D2720002020202020206C
S1130C4220205E2020202020202000202020202080
S1130C5220207C2020285C5F2F29200020202020B7
S1130C622020207C5F5F284F2E6F29200020202027
S1130C7220202020202020283E203C2920002564FA
S1050C8220004C
S9030000FC
