S00C0000455049432E73726563F7
S11300000C94B4010C9403020C94D1010C94D70108
S11300100C94D1010C94D1010C94D1010C94D10114
S11300200C94D1010C94D1010C94D1010C94D10104
S11300300C94D1010C94D1010C94D1010C94D101F4
S11300400C94D1010C94D1010C94D1010C94D101E4
S11300500C94D1010C94D1010C94D1010C94D101D4
S11300600C94D1010C94D1010C94D1010C94D101C4
S1130070000000000000000000065F5F06000000B2
S11300800007070007070000147F7F147F7F140018
S1130090242E6B6B3A120000466630180C66620020
S11300A0307A4F5D377A48000407030000000000EF
S11300B0001C3E63410000000041633E1C00000040
S11300C0082A3E1C1C3E2A0808083E3E0808000078
S11300D000A0E0600000000008080808080800000C
S11300E000006060000000006030180C060301008E
S11300F03E7F594D7F3E000042427F7F40400000DA
S1130100627359496F660000226349497F360000D3
S1130110181C16137F7F1000276745457D390000A2
S11301203C7E4B4979300000036371190F070000CE
S1130130367F49497F360000064F49693F1E00005B
S113014000006C6C0000000000A0EC6C00000000DB
S1130150081C366341000000141414141414000025
S1130160004163361C080000020351590F060000C9
S11301703E7F415D5D1F1E007C7E13137E7C00006C
S1130180417F7F49497F36001C3E63414163220021
S1130190417F7F41637F1C00417F7F495D41630054
S11301A0417F7F491D0103001C3E6341517372006E
S11301B07F7F08087F7F000000417F7F41000000AF
S11301C0307040417F3F0100417F7F081C7763000E
S11301D0417F7F41406070007F7F060C067F7F0077
S11301E07F7F060C187F7F001C3E6341633E1C002A
S11301F0417F7F49090F06001E3F21717F5E000089
S1130200417F7F19396F460026674D597B320000C4
S113021003417F7F410300007F7F40407F7F0000D8
S11302201F3F60603F1F00007F7F3018307F7F00DA
S113023063771C081C776300074F78784F0700002A
S11302406773594D47637100007F7F41410000008F
S11302500103060C183060000041417F7F0000005C
S1130260080C0603060C0800808080808080808053
S11302700000030704000000207454543C7840003C
S1130280413F7F44447C3800387C44446C2800005F
S1130290307848493F7F4000387C54545C18000053
S11302A0487E7F490302000098BCA4A4F87C0400A3
S11302B0417F7F08047C780000447D7D400000007D
S11302C040C484FD7D000000417F7F10386C4400F1
S11302D000417F7F400000007C7C0C180C7C78007F
S11302E07C7C04047C780000387C44447C38000026
S11302F084FCF8A4243C1800183C24A4F8FC8400D2
S1130300447C78441C180000485C54547424000055
S113031000043E7F442400003C7C40403C7C400080
S11303201C3C60603C1C00003C7C6030607C3C00F9
S1130330446C3810386C44009CBCA0A0FC7C0000C9
S11303404C64745C4C64000008083E774141000032
S113035000000077770000004141773E0808000064
S1130360020301030203010011241FBECFEFD4E0F6
S1130370DEBFCDBF12E0A0E0B1E0EAE5F7E102C0E4
S113038005900D92A43DB107D9F722E0A4EDB2E0A7
S113039001C01D92A23EB207E1F70E9474050C94BD
S11303A0AB0B0C944E058BB780628BBF08951F92E4
S11303B00F920FB60F9211248F939F9381E090E0D8
S11303C09093D5028093D4029F918F910F900FBE8A
S11303D00F901F9018950E94740260E680E60E94B8
S11303E0340261E08BE20E94340240E06FE080EE70
S11303F00E947902F89485B7886085BF8BB78064C2
S11304008BBF789408951F920F920FB60F92112408
S11304102F933F934F935F936F937F938F939F9308
S1130420AF93BF93EF93FF9381E291E00E94AC08F6
S113043040E06CE281E00E94790281E090E09093D8
S1130440D7028093D602FF91EF91BF91AF919F9114
S11304508F917F916F915F914F913F912F910F9069
S11304600FBE0F901F901895CF93DF93D82FC62FF0
S1130470C49882E00E949B028D2F0E949B028C2FC5
S11304800E949B02C49ADF91CF910895CF93C82F05
S1130490C49883E00E949B028C2F0E949B020E94BE
S11304A09F02C49ACF910895CF93DF931F92CDB743
S11304B0DEB7C49880EC0E949B02C49A8CEC94E052
S11304C00197F1F700C000008EE00E944602898384
S11304D08981807E803821F080E991E00E94AC0817
S11304E00F90DF91CF9108950E9498020E945402C8
S11304F008951F93CF93DF93D82F162FC42FC4983A
S113050085E00E949B02812F0E949B028D2F0E94F6
S11305109B028C2F0E949B02C49ADF91CF911F9162
S1130520089587B3806B87BB8DB181658DB90895BC
S11305300E94910208958FB9779BFECF08958FEFA3
S11305408FB9779BFECF8FB108959C0127703078C7
S1130550332334F421503109286F3F6F2F5F3F4F0D
S113056041E050E0FA0102C0EE0FFF1F2A95E2F7C6
S11305709F01AC01992314F4495F5F4F559547954A
S113058055954795559547955695542F4427579516
S11305904795640F751F8091060190910701FC0136
S11305A0E60FF71F808188231CF04081240F2083ED
S11305B008952F923F924F925F926F927F928F9203
S11305C09F92AF92BF92CF92DF92EF92FF920F93DE
S11305D01F93CF93DF93CDB7DEB729970FB6F89467
S11305E0DEBF0FBECDBF09831A832B833C834D83AB
S11305F05E836F837887CF80D884E980FA80AB806C
S1130600BC808D809E808E0C9F1CE814F904E4F459
S1130610CA0CDB1C2A2C3B2C11C027013801C30156
S1130620B2010E94A5020F5F1F4F0C151D05ACF30C
S11306308FEFE81AF80AE814F90434F4AC14BD0492
S1130640BCF7022D132DE9CF29960FB6F894DEBF1F
S11306500FBECDBFDF91CF911F910F91FF90EF900F
S1130660DF90CF90BF90AF909F908F907F906F90CE
S11306705F904F903F902F9008958F929F92AF92EA
S1130680BF92CF92DF92EF92FF920F931F93CF937B
S1130690DF93CDB7DEB762970FB6F894DEBF0FBE17
S11306A0CDBF0A871B872C873D874E875F87798B51
S11306B08A8BEE84FF842A853B85AC84BD8469875C
S11306C089899A898230910561F01CF4019769F156
S11306D09BC08330910509F44EC0049709F471C09E
S11306E093C0690199249394812C0C2DDA82C982D8
S11306F02A2DBC82AB82492D9D828E826E2DF88676
S1130700EF821A813C81582D788589850E94D9020F
S113071082E0E81AF10881E0A81AB1088FEFC81A3C
S1130720D80A1E141F040CF36FC06901A21AB30A7D
S113073099249394812C0C2DDA82C982C5018C0DE5
S11307409D1D282F9C838B83492D9D828E826E2D27
S1130750F886EF821A813C81582D788589850E941C
S1130760D90282E0E81AF10881E0C81AD1081E14FF
S11307701F040CF349C06901A21AB30A9924939483
S1130780812C0C2DDA82C982C5018C0D9D1D282F68
S11307909C838B834E2DFE82ED82692D9F828886F9
S11307A01A813C815E81782D89850E94D90282E07C
S11307B0E81AF1088FEFC81AD80A1E141F040CF3A4
S11307C023C0690199249394812C0C2DDA82C98267
S11307D02A2DBC82AB824E2DFE82ED82692D9F8232
S11307E088861A813C815E81782D89850E94D90290
S11307F082E0E81AF10881E0A81AB1088FEFC81A5C
S1130800D80A1E141F040CF362960FB6F894DEBFC8
S11308100FBECDBFDF91CF911F910F91FF90EF904D
S1130820DF90CF90BF90AF909F908F900895CF921C
S1130830DF92EF92FF920F931F93CF93DF93CDB785
S1130840DEB762970FB6F894DEBF0FBECDBF0E942D
S113085089050E94AE0582E090E0082F89839A837F
S1130860282F8B839C8384E1482F8D839E83682F5C
S11308708F83988710E030E050E070E089850E9413
S1130880D90285E0482F8E871F8681E0782F898BD7
S11308901A8A8EE190E0082F282F8C879D8730E0FC
S11308A050E0688980E00E943D038FE1082F2C8589
S11308B03D854E855F85688979898A890E943D03D3
S11308C087E0482F8E871F8683E0782F82E390E0AD
S11308D0082F8A879B87282F30E050E0688980E0C2
S11308E00E943D0384E0782F898B1A8A83E3282FA2
S11308F08C871D860A851B8530E04E855F85688957
S113090080E00E943D030F2EF4E1CF2ED12CF2E3C0
S1130910EF2EF12CF02DC701B6010E94A502C12CC7
S1130920D12CE12CF12CC701B6010E94A502CC24E4
S1130930C394D12CEE24E394F12CC701B6010E9498
S1130940A5026894CC24C1F8D12C6894EE24E1F873
S1130950F12CC701B6010E94A5020F2EF3E0CF2EA1
S1130960D12CF02D0F2EF3E0EF2EF12CF02DC7013A
S1130970B6010E94A5026894CC24C2F8D12C6894D4
S1130980EE24E2F8F12CC701B6010E94A5020F2E55
S1130990F5E0CF2ED12CF02D0F2EF5E0EF2EF12C1B
S11309A0F02DC701B6010E94A5020F2EF6E0CF2E4E
S11309B0D12CF02D0F2EF6E0EF2EF12CF02DC701E7
S11309C0B6010E94A5020F2EF7E0CF2ED12CF02DF8
S11309D00F2EF7E0EF2EF12CF02DC701B6010E9487
S11309E0A5026894CC24C3F8D12C6894EE24E3F8CF
S11309F0F12CC701B6010E94A5020F2EF9E0CF2EFB
S1130A00D12CF02D0F2EF9E0EF2EF12CF02DC70193
S1130A10B6010E94A5020F2EFAE0CF2ED12CF02DA4
S1130A200F2EFAE0EF2EF12CF02DC701B6010E9433
S1130A30A5020F2EFBE0CF2ED12CF02D0F2EFBE0C4
S1130A40EF2EF12CF02DC701B6010E94A5020E94E1
S1130A50AE050E94B90662960FB6F894DEBF0FBECB
S1130A60CDBFDF91CF911F910F91FF90EF90DF9059
S1130A70CF9008958FE190E00E940A070E94F70644
S1130A800E94D3010E9486050E94EB0178940E9483
S1130A90F00582EC91E00E94AC0808951F920F9239
S1130AA00FB60F9211242F933F934F935F936F933D
S1130AB07F938F939F93AF93BF93EF93FF938CECAC
S1130AC091E00E94AC08FF91EF91BF91AF919F918B
S1130AD08F917F916F915F914F913F912F910F90E3
S1130AE00FBE0F901F9018950E943A050E9472063F
S1130AF02FEF8FEF9EE0215080409040E1F700C03F
S1130B0000000E94170480E090E0089587B317BAAC
S1130B10089540E050E070E060E014C09C01240FB0
S1130B20351FE0910801F0910901E20FF31F1082D3
S1130B3001968038910591F740585F4F411584E044
S1130B40580719F0872F962FE9CF0895806BE0E0BE
S1130B50F0E1808310828FE780830895DF92EF9223
S1130B60FF920F931F93CF93DF9380E00E94A6051B
S1130B7020E030E0F12C6894DD24D7F8E12CC0E0CB
S1130B80D2E121C0022F132FA901481B590BE09178
S1130B900801F0910901E40FF51F40814883019792
S1130BA0009781F787E08F1528F081E08F0D0E9470
S1130BB0A60503C080E00E94A605F39488E0F81619
S1130BC039F0202F312F8D2D9E2D20583F4FDACF15
S1130BD0DF91CF911F910F91FF90EF90DF900895D7
S1130BE0E0E0F0E18EEA808381EA80838AED80830D
S1130BF082E1808388EC808388EA80838FE380832A
S1130C0085ED808380E8808381E8808380E580832C
S1130C1089ED808381E2808380E2808382E0808327
S1130C208BED808380E380838DEA8083108284EA65
S1130C30808386EA80838FEA808383ED808381E0EA
S1130C40808380E4808380EB808310828FE78083BD
S1130C500E9489050E94AE050895EF92FF920F93BA
S1130C601F93CF93DF93172FFC012081222399F147
S1130C70F0E86F9FA0011124EC0100E0E12CF12CBD
S1130C8027C0612F620FFA01E60FF11DA091080140
S1130C90B0910901AE0FBF1FE881F0E0B097EE0FED
S1130CA0FF1FEE0FFF1FEE0FFF1FE20FF31FE059B0
S1130CB0FF4FE491EC932F5F3F4F2830310509F744
S1130CC0185F0F5FEC01C00FD11D2881222319F09A
S1130CD02E2D3F2DD6CFDF91CF911F910F91FF90F5
S1130CE0EF9008950E9489050E94AE052FEF8FEFC3
S1130CF09DE1215080409040E1F700C0000060E099
S1130D0070E088E592E00E942D0661E070E089E6DB
S1130D1092E00E942D0662E070E08AE792E00E9471
S1130D202D0663E070E08BE892E00E942D0664E0FB
S1130D3070E08CE992E00E942D0665E070E08DEA97
S1130D4092E00E942D0666E070E08EEB92E00E9435
S1130D502D060E94AE052FEF8FEF9DE121508040BC
S1130D609040E1F700C000000E9489050E94AE0592
S1130D700895CF92DF92EF92FF920F931F93CF9338
S1130D80DF93E12CF12CC12CD12C0FEC12E023C009
S1130D90CE018E0D9F1DE0910801F0910901E80F2D
S1130DA0F91F80811F928F931F930F930E949108C4
S1130DB021960F900F900F900F90C038D10541F7F6
S1130DC08AE090E00E94A50880E8E80EF11CE11496
S1130DD084E0F80619F0CC2DDD2DDACFDF91CF9128
S1130DE01F910F91FF90EF90DF90CF90089585B7FA
S1130DF0806885BF80B7806280BF80B710BE80B72F
S1130E0010BE08955D9BFECF8CB908955F9BFECF05
S1130E108CB1089590BD89B988E18AB986E880BD0E
S1130E2080B510BC80B510BC80B510BC80B510BCBA
S1130E3066E077E082E097E00E9446080895CF9349
S1130E40DF938230910510F482E090E0E091DA02C1
S1130E50F091DB0220E030E0A0E0B0E0309739F11F
S1130E604081518148175907B8F04817590771F460
S1130E7082819381109729F013969C938E931297F5
S1130E802CC09093DB028093DA0227C02115310530
S1130E9031F04217530718F0A901DB0101C0EF013B
S1130EA09A01BD01DF010280F381E02DD7CF211526
S1130EB03105F9F0281B390B2430310580F48A817F
S1130EC09B816115710521F0FB019383828304C02A
S1130ED09093DB028093DA02FE01329644C0FE0155
S1130EE0E20FF31F819391932250310939832883B0
S1130EF03AC02091D8023091D902232B41F4209199
S1130F000201309103013093D9022093D802209139
S1130F100001309101012115310541F42DB73EB78F
S1130F204091040150910501241B350BE091D80236
S1130F30F091D902E217F307A0F42E1B3F0B2817F8
S1130F40390778F0AC014E5F5F4F2417350748F03E
S1130F504E0F5F1F5093D9024093D802819391930F
S1130F6002C0E0E0F0E0CF01DF91CF910895CF938C
S1130F70DF93009709F487C0FC0132971382128231
S1130F80C091DA02D091DB02209781F42081318173
S1130F90280F391F8091D8029091D90282179307A4
S1130FA079F5F093D902E093D8026DC0DE0120E018
S1130FB030E0AE17BF0750F412964D915C91139731
S1130FC09D014115510509F1DA01F3CFB383A283E1
S1130FD040815181840F951F8A179B0771F48D916D
S1130FE09C911197840F951F02969183808312968A
S1130FF08D919C911397938382832115310529F454
S1131000F093DB02E093DA023EC0D9011396FC931D
S1131010EE9312974D915D91A40FB51FEA17FB074C
S113102079F480819181840F951F0296D9011196DC
S11310309C938E938281938113969C938E931297A3
S1131040E0E0F0E08A819B81009719F0FE01EC0159
S1131050F9CFCE01029628813981820F931F209106
S1131060D8023091D9022817390769F4309729F446
S11310701092DB021092DA0202C013821282D09321
S1131080D902C093D802DF91CF9108950F931F9393
S1131090CF93DF93EC018B01009731F46115710557
S11310A019F480E090E038C06EE070E081E090E0F8
S11310B00E94AB0AFC010097A1F380E88383011529
S11310C0110571F01387028781E883838091DC0224
S11310D09091DD02892B21F4F093DD02E093DC0290
S11310E02097C9F0D187C0878381826083838091F0
S11310F0DE029091DF02892B71F4F093DF02E0931A
S1131100DE028091E0029091E102892B21F4F093B8
S1131110E102E093E002CF01DF91CF911F910F91A3
S11311200895A0E0B0E0E7E9F8E00C94840BFE0138
S1131130359661917191AF018091DE029091DF0249
S11311400E94D908E2E00C94A00B6091DE02709139
S1131150DF020E94E40A08950F931F93CF93DF9355
S1131160E091DE02F091DF02238121FF1BC0EC013C
S113117000E010E089916091DE027091DF02DB01F2
S11311801896ED91FC911997882331F00995892BD4
S113119089F30FEF1FEFEECF8AE00995892B11F445
S11311A0C80102C08FEF9FEFDF91CF911F910F9184
S11311B00895ACE0B0E0EFEDF8E00C94740B7C0122
S11311C06B018A01FC0117821682838181FFBDC1F4
S11311D0CE0101964C01F7019381F60193FD8591AF
S11311E093FF81916F01882309F4ABC1853239F4EF
S11311F093FD859193FF81916F01853229F4B701A5
S113120090E00E94E40AE7CF512C312C20E02032F8
S1131210A0F48B3269F030F4803259F0833269F4EF
S113122020612CC08D3239F0803339F4216026C01E
S11312302260246023C0286021C027FD27C030ED30
S1131240380F3A3078F426FF06C0FAE05F9E300D7E
S11312501124532E13C08AE0389E300D1124332EEE
S113126020620CC08E3221F426FD6BC1206406C0BE
S11312708C3611F4206802C0883641F4F60193FDDF
S1131280859193FF81916F018111C1CF982F9F7D2B
S11312909554933028F40C5F1F4FFFE3F9830DC07E
S11312A0833631F0833771F0833509F05BC022C097
S11312B0F801808189830E5F1F4F44244394512C8D
S11312C0540115C03801F2E06F0E711CF801A080C2
S11312D0B18026FF03C0652D70E002C06FEF7FEF81
S11312E0C5012C870E94D90A2C0183012C852F77F4
S11312F0222E17C03801F2E06F0E711CF801A08095
S1131300B18026FF03C0652D70E002C06FEF7FEF50
S1131310C5012C870E94C70A2C012C852068222E27
S1131320830123FC1BC0832D90E048165906B0F4BA
S1131330B70180E290E00E94E40A3A94F4CFF50108
S113134027FC859127FE81915F01B70190E00E94FF
S1131350E40A31103A94F1E04F1A5108411451044F
S113136071F7E5C0843611F0893639F5F80127FFA5
S113137007C060817181828193810C5F1F4F08C017
S113138060817181882777FD8095982F0E5F1F4FAC
S11313902F76B22E97FF09C0909580957095619530
S11313A07F4F8F4F9F4F2068B22E2AE030E0A40178
S11313B00E94160BA82EA81844C0853729F42F7E46
S11313C0B22E2AE030E025C0F22FF97FBF2E8F36EF
S11313D0C1F018F4883579F0B4C0803719F0883733
S11313E021F0AFC02F2F2061B22EB4FE0DC08B2D83
S11313F08460B82E09C024FF0AC09F2F9660B92EBE
S113140006C028E030E005C020E130E002C020E161
S113141032E0F801B7FE07C0608171818281938157
S11314200C5F1F4F06C06081718180E090E00E5F09
S11314301F4FA4010E94160BA82EA818FB2DFF779E
S1131440BF2EB6FE0BC02B2D2E7FA51450F4B4FE78
S11314500AC0B2FC08C02B2D2E7E05C07A2C2B2D81
S113146003C07A2C01C0752C24FF0DC0FE01EA0DC7
S1131470F11D8081803311F4297E09C022FF06C04A
S11314807394739404C0822F867809F0739423FDB7
S113149013C020FF06C05A2C731418F4530C5718A9
S11314A0732C731468F4B70180E290E02C870E94D7
S11314B0E40A73942C85F5CF731410F4371801C023
S11314C0312C24FF12C0B70180E390E02C870E94E6
S11314D0E40A2C8522FF17C021FF03C088E590E0B1
S11314E002C088E790E0B7010CC0822F867859F0DB
S11314F021FD02C080E201C08BE227FD8DE2B7012D
S113150090E00E94E40AA51438F4B70180E390E067
S11315100E94E40A5A94F7CFAA94F401EA0DF11D4B
S11315208081B70190E00E94E40AA110F5CF332036
S113153009F451CEB70180E290E00E94E40A3A94A3
S1131540F6CFF7018681978102C08FEF9FEF2C962B
S1131550E2E10C94900B0F931F93CF93DF93869F3C
S11315608001879F100D969F100D1124C8010E94C1
S11315701F07EC01009729F0A80160E070E00E94C9
S1131580D20ACE01DF91CF911F910F910895FC01F2
S11315900590615070400110D8F7809590958E0F9A
S11315A09F1F0895DC0101C06D9341505040E0F746
S11315B00895FC016150704001900110D8F78095A6
S11315C090958E0F9F1F08950F931F93CF93DF93D2
S11315D0182F092FEB018B8181FD03C08FEF9FEF43
S11315E020C082FF10C04E815F812C813D81421753
S11315F053077CF4E881F9819F012F5F3F4F3983C2
S11316002883108306C0E885F985812F0995892BE5
S113161029F72E813F812F5F3F4F3F832E83812FF8
S1131620902FDF91CF911F910F910895FA01AA276E
S1131630283051F1203181F1E8946F936E7F6E5F11
S11316407F4F8F4F9F4FAF4FB1E03ED0B4E03CD0BF
S1131650670F781F891F9A1FA11D680F791F8A1FA2
S1131660911DA11D6A0F711D811D911DA11D20D009
S113167009F468943F912AE0269F11243019305DC3
S11316803193DEF6CF010895462F4770405D4193B4
S1131690B3E00FD0C9F7F6CF462F4F70405D4A3301
S11316A018F0495D31FD4052419302D0A9F7EACFC9
S11316B0B4E0A6959795879577956795BA95C9F7F8
S11316C000976105710508959B01AC010A2E0694EB
S11316D05795479537952795BA95C9F7620F731FA4
S11316E0841F951FA01D08952F923F924F925F92E1
S11316F06F927F928F929F92AF92BF92CF92DF921E
S1131700EF92FF920F931F93CF93DF93CDB7DEB782
S1131710CA1BDB0B0FB6F894DEBF0FBECDBF099416
S11317202A88398848885F846E847D848C849B846D
S1131730AA84B984C884DF80EE80FD800C811B817B
S1131740AA81B981CE0FD11D0FB6F894DEBF0FBEAA
S10D1750CDBFED010895F894FFCF1A
S113175A0000E20220000018001843414E2074726F
S113176A616E736D697373696F6E206572726F72DD
S113177A00696E7465727275707465642100434100
S113178A4E2069643A2025642C2043414E2064612A
S113179A7461206C656E6774683A2025642C204352
S11317AA414E20646174613A2025632C2025632C00
S11317BA2025632C2025632C202563200A0043411D
S11317CA4E535441543A203078253032780A004333
S11317DA414E4354524C3A203078253032780A002C
S11317EA4D435032353135206973204E4F542069A8
S11317FA6E20636F6E66696775726174696F6E20B5
S113180A6D6F6465206166746572207265736574B0
S113181A2100494E495420444F4E4500676574746B
S113182A696E672072616E646F6D20696E74657289
S113183A7275707473003C0068656C6C6F5F776FC7
S113184A726C6400492077616E7420746F20677229
S113185A65657420006772616E646D612C2062652F
S113186A6361757365002073686520697320736FFB
S113187A6F6F6F6F6F6F6F20707265747479004E3B
S113188A554C4C207375626D656E7500656D707488
S113189A79206D656E7520706F696E746572206447
S11318AA6574656374656400202E2D2D2D2D2D2DF0
S11318BA2D2D2D2D2D2D2E2000207C2050696E6774
S11318CA20506F6E6721207C200020602D2D2D2D45
S11318DA2D2D2D2D2D2D2D2D2720002020202020AB
S11318EA20205E20202020202020200020202020CC
S11318FA2020207C2020285C5F2F29200020202003
S113190A202020207C5F5F284F2E6F292000202072
S113191A2020202020202020283E203C2920002589
S107192A6420000031
S9030000FC
