S00C0000455049432E73726563F7
S11300000C942F030C9471120C944C030C946603FF
S11300100C944C030C944C030C944C030C944C0320
S11300200C944C030C944C030C944C030C944C0310
S11300300C944C030C944C030C944C030C944C0300
S11300400C944C030C944C030C944C030C944C03F0
S11300500C944C030C944C030C944C030C944C03E0
S11300600C944C030C944C030C944C030C944C03D0
S1130070400C580C3D0C550C4F0C520C5B0C5E0C98
S113008061035B0352034A03400337032703170347
S11300900803FA02EE02E102DB02CE02C702BA0250
S11300A0B202A30298028B02810270025E024D0228
S11300B03C022B021A020902F801E701D601C5012C
S11300C0B401A301920186017C0170016301520114
S11300D04101300129011A010F01FF00F000E00085
S11300E020202020202020202020206261636B001B
S11300F0526967687420427574746F6E3A200020E8
S113010020202020202020202020534F4E47004133
S11301106E696D6174696F6E730053686F772067E1
S113012072656574696E67730070726574747900C2
S113013073686520697320736F6F6F6F6F6F6F6F74
S1130140006772616E646D612C2062656361757312
S11301506500492077616E7420746F20677265654D
S11301607420004E6F3A204A6F7920444F574E0056
S11301705965733A204A6F7920555000576974685D
S11301802049523A200049522053657474696E67BD
S1130190730020202020202020202020283E203CE6
S11301A0292000202020202020207C5F5F284F2E43
S11301B06F292000202020202020207C2020285C63
S11301C05F2F292000202020202020205E202020B6
S11301D020202020200020602D2D2D2D2D2D2D2D93
S11301E02D2D2D2D272000207C2050696E67205056
S11301F06F6E6721207C2000202E2D2D2D2D2D2D7E
S11302002D2D2D2D2D2D2E20002020285F5F5F29E0
S11302105F5F2E7C5F5F5F5F5F0020285F5F5F5FD3
S1130220292E5F5F7C202020202000285F5F5F5FF5
S1130230297C2020207C20202020200020285F5F93
S11302405F5F292020607C20202020200020205F68
S11302505F5F5F5C205C20205F5F5F5F5F0020204A
S11302602020207C205C2020202020202020200012
S11302702020202020202F7C20202020202020200F
S1130280004C61737420584D4153004A696E676C89
S1130290652042656C6C73004D6572727920584D0F
S11302A0415300496D70657269616C204D617263E0
S11302B06800506F6B656D6F6E0043616E74696E9C
S11302C0612042616E640054657472697300486110
S11302D072727920506F7474657200536F6E677315
S11302E000526967687420536C69646572004C65D8
S11302F0667420536C696465720043616C696220A2
S1130300536C69646572730043616C6962204A6F5F
S113031079737469636B0052657365742048696707
S11303206873636F72650053746F72652048696700
S11303306873636F72650053657474696E677300E4
S11303404869676873636F72650042617267616DC3
S1130350650050696E67506F6E670047616D657325
S113036000726F6F740000000000000000000006BF
S11303705F5F060000000007070007070000147F06
S11303807F147F7F1400242E6B6B3A1200004666A4
S113039030180C666200307A4F5D377A48000407E3
S11303A0030000000000001C3E6341000000004107
S11303B0633E1C000000082A3E1C1C3E2A08080854
S11303C03E3E0808000000A0E060000000000808AD
S11303D008080808000000006060000000006030A9
S11303E0180C060301003E7F594D7F3E0000424237
S11303F07F7F40400000627359496F6600002263AA
S113040049497F360000181C16137F7F10002767A8
S113041045457D3900003C7E4B497930000003633B
S113042071190F070000367F49497F360000064FD7
S113043049693F1E000000006C6C0000000000A031
S1130440EC6C00000000081C36634100000014142A
S1130450141414140000004163361C080000020345
S113046051590F0600003E7F415D5D1F1E007C7EDA
S113047013137E7C0000417F7F49497F36001C3E78
S1130480634141632200417F7F41637F1C00417FC0
S11304907F495D416300417F7F491D0103001C3E8C
S11304A06341517372007F7F08087F7F0000004121
S11304B07F7F41000000307040417F3F0100417F59
S11304C07F081C776300417F7F41406070007F7F1D
S11304D0060C067F7F007F7F060C187F7F001C3E82
S11304E06341633E1C00417F7F49090F06001E3FA4
S11304F021717F5E0000417F7F19396F46002667B6
S11305004D597B32000003417F7F410300007F7F10
S113051040407F7F00001F3F60603F1F00007F7FDF
S11305203018307F7F0063771C081C776300074F07
S113053078784F0700006773594D47637100007F57
S11305407F41410000000103060C183060000041A7
S1130550417F7F000000080C0603060C0800808021
S113056080808080808000000307040000002074E5
S113057054543C784000413F7F44447C3800387CEC
S113058044446C280000307848493F7F4000387C60
S113059054545C180000487E7F490302000098BC54
S11305A0A4A4F87C0400417F7F08047C7800004404
S11305B07D7D4000000040C484FD7D000000417F3B
S11305C07F10386C440000417F7F400000007C7C39
S11305D00C180C7C78007C7C04047C780000387C4B
S11305E044447C38000084FCF8A4243C1800183CE3
S11305F024A4F8FC8400447C78441C180000485C63
S113060054547424000000043E7F442400003C7CC5
S113061040403C7C40001C3C60603C1C00003C7C36
S11306206030607C3C00446C3810386C44009CBCE6
S1130630A0A0FC7C00004C64745C4C6400000808BE
S11306403E774141000000000077770000004141FF
S1130650773E08080000020301030203010011248D
S11306601FBECFEFD4E0DEBFCDBF13E0A0E0B1E00A
S1130670EAEAF5E302C005900D92A639B107D9F76D
S113068023E0A6E9B3E001C01D92A73FB207E1F75A
S11306900E94D0110C94D31A0C9400008BB7806282
S11306A08BBF089590E0909301148093001480917F
S11306B0960390919703892BD1F3809128149091FC
S11306C02914109297031092960308951F920F9283
S11306D00FB60F9211248F939F9381E090E0909333
S11306E09703809396039F918F910F900FBE0F9065
S11306F01F9018950E94C80860E88FE00E94720855
S113070060E680E60E94720861E08BE20E94720853
S113071060E08FE00E94720885B7886085BF8BB760
S113072080648BBF089580E30E948C088295817059
S1130730089580E30E948C0883FB882780F991E068
S113074089270895EF92FF920F931F93CF93DF931E
S1130750CDB7DEB72B970FB6F894DEBF0FBECDBF73
S1130760E982FA820B831C832D833E834F8358874F
S113077069877A878B87E980FA800E9499038823A6
S113078049F1B70183E0769567958A95E1F781E3AE
S11307900E9472086E2D6295660F607E82E30E944D
S11307A07208602F6F7085E30E9472087E0184E0F6
S11307B0E80EF11C10E0101749F0F70161917F0178
S11307C086E3810F0E9472081F5FF5CF81E00E94CB
S11307D0CC0808C00E949303882321F085E191E0AE
S11307E00E948B162B960FB6F894DEBF0FBECDBFBA
S11307F0DF91CF911F910F91FF90EF9008951F9378
S1130800CF93DF9300D000D01F92CDB7DEB7182F5F
S113081081E08C839A83412F592F69E071E084E051
S11308200E94C00D83E08D8384E08B8345E0410FFB
S11308305A8164E07C8183E00E94C00D412F5A817B
S11308406B817C818D810E94C00D0F900F900F9061
S11308500F900F90DF91CF911F910895EF92FF9227
S11308600F931F93CF93DF931F92CDB7DEB78C0105
S113087026E7E12CF12CE016F1065CF4822F95E0DA
S113088029830E94FF0329812B508FEFE81AF80A6D
S1130890F2CF0F90DF91CF911F910F91FF90EF90C6
S11308A008957091DE03E091DF03F091A203472FD6
S11308B050E02091A40330E02F0F311D6091E0033C
S11308C080919A0390919B03613001F188F1623029
S11308D061F0633001F16093E00390939B03809394
S11308E09A030895EB3041F562E07F37B9F463E091
S11308F0EF33A9F1ED3309F050C07F1708F44DC070
S1130900241735070CF449C0019661E0772351F3AD
S1130910EB30D1F463E07111EBCF62E0EF33F9F027
S1130920ED3399F57F1788F12417350774F1019693
S11309307F37C1F661E0ECCF1092E00390939B0304
S113094080939A037F5F07C06093E00390939B03B7
S113095080939A0371507093DE03E15028C0809114
S11309600601909107010197909307018093060176
S11309701092DE038EE18093DF0382E08093E00334
S113098010929B0310929A0308956093E00390934E
S11309909B0380939A037F5F07C06093E003909367
S11309A09B0380939A0371507093DE03EF5FE0938F
S11309B0DF0308958091A703813081F08230A9F488
S11309C02091A2038091A40390E0820F911D8F37A0
S11309D091055CF42E5F2093A20308958091A203F5
S11309E0823018F082508093A2030895CF93DF934E
S11309F000D000D01F92CDB7DEB719828BE08A8376
S1130A001D8240E05BE06FE771E080E00E94420DF0
S1130A1049815A8161E074E38D810E94420D4981CC
S1130A205FE36FE771E08D810E94420D4FE75BE069
S1130A3061E075E38D810E94420D0F900F900F903D
S1130A400F900F90DF91CF910895EF92FF920F9343
S1130A501F93CF93DF93CDB7DEB727970FB6F894E4
S1130A60DEBF0FBECDBF88EAE82E83E0F82E22E079
S1130A7000E010E09DE0F701E00FF11F422F592F35
S1130A806CE073E080812F839E830E94420D9E81DF
S1130A909B5F0E5F1F4F2F819C3169F7225F86E0B9
S1130AA0E80EF11C203821F727960FB6F894DEBF24
S1130AB00FBECDBFDF91CF911F910F91FF90EF90AB
S1130AC00895DF92EF92FF920F931F93CF93DF93DA
S1130AD000D000D01F92CDB7DEB7872F9091E003EE
S1130AE09130B1F138F0923009F45DC0933009F4DB
S1130AF077C095C07091DE03E091DF03252F30E0CD
S1130B0090E074130CC0E51750F00E2F10E0D901DB
S1130B10A80FB91FA017B10714F081E014C0F0E0CA
S1130B20820F931FE817F90709F079C0741708F4C6
S1130B3076C0872F90E070E0640F711D6817790705
S1130B400CF46DC082E08093E00381E090E069C022
S1130B50D090DE032D2D30E070E0640F711DA09164
S1130B60DF03E52FF0E090E02617370769F4A517B7
S1130B7058F0EA2EF12C8F01080F191F0E151F05CE
S1130B801CF01092E003E1CFB0E08E0F9F1FA81776
S1130B90B90709F044C0D41608F441C062177307BA
S1130BA0F4F183E0D0CF7091DE03E091DF0374139E
S1130BB00AC0E51740F02E2F30E090E0850F911D1C
S1130BC08217930774F7E5132AC0741740F1872F2F
S1130BD090E070E0640F711D6817790794F61FC0E8
S1130BE0B091DE032B2F30E070E0640F711DA091F3
S1130BF0DF032617370759F4A51748F0EA2FF0E06A
S1130C0090E0850F911D8E179F070CF09BCFA513C5
S1130C1006C0B41720F0621773070CF07ECF80E093
S1130C2090E00F900F900F900F900F90DF91CF9165
S1130C301F910F91FF90EF90DF900895AF92BF92B4
S1130C40CF92DF92EF92FF920F931F93CF93DF9394
S1130C50CDB7DEB727970FB6F894DEBF0FBECDBF72
S1130C6098EAE92E93E0F92E32E0CC24C394D12CF7
S1130C7042E0A42EB12C87012DE0F80180819181FE
S1130C8082309105D1F0432F522F6CE073E02F8313
S1130C903E830E9461052F813E81019771F4F80122
S1130CA080819181019711F4B182A082F801808141
S1130CB09181892B11F4D182C0820E5F1F4F2B5F6B
S1130CC02C31D9F6325FF6E0EF0EF11C303899F68C
S1130CD027960FB6F894DEBF0FBECDBFDF91CF913C
S1130CE01F910F91FF90EF90DF90CF90BF90AF9046
S1130CF008950E94051390E00895E8EAF3E0118254
S1130D0010821382128215821482369683E0EE3D9D
S1130D10F807A9F783E090E0909307018093060118
S1130D200895FF920F931F93CF93DF9385E00E9462
S1130D30A20B1092DE038EE18093DF0382E08093A6
S1130D40E0038FE08093A2038DE38093A30384E107
S1130D508093A40381E08093A5038093A60310E00D
S1130D60C4E1D0E004E1809106019091070197FD70
S1130D7079C00E94F01311114CC00E94790680932F
S1130D80A7038091980390919903843191050CF005
S1130D90A8C0202F281B822F8093A40380919A033C
S1130DA090919B03BE010E940B169093990380932C
S1130DB0980380910601909107010E942E040E94DD
S1130DC0F6044091A2035091A3036091A40370918F
S1130DD0A5038091A6030E94420D80910601909183
S1130DE007010E942E040E9425058091DE03909144
S1130DF0DF030E94100D0E941E060E9451040E94EF
S1130E00DA040E94111480E090E00E94F312882317
S1130E1011F10E94F01361E07DE28EE092E00E9405
S1130E20741463E072E084E192E00E94741464E05C
S1130E3072E081E092E00E9474140E940513F82E7F
S1130E400E940513823009F441C011E0F11201C07F
S1130E5010E00E9411148FEF9FE20197F1F700C098
S1130E60000081CF0E94F01363E07EE188EE91E000
S1130E700E9474140E9411149FEF2FEF8DE1915082
S1130E8020408040E1F700C000000E94F01363E0BE
S1130E9072E083EF91E00E94741464E072E081E0F8
S1130EA092E00E9474140E9411148FEF9FE2019744
S1130EB0F1F700C000000E940513813019F40E946C
S1130EC07D0651CF0E940513823079F70E947D067A
S1130ED00E94E00BDF91CF911F910F91FF900C9432
S1130EE0F21481E059CF2091080130E0FC0140E088
S1130EF080E090E0461739F05081850F911D4F5FD7
S1130F00E20FF31FF7CF642F70E00E94F715862FCE
S1130F100895DC0130E03617D9F03F5F232F261700
S1130F20A9F011964C911197FC01E20FF11DE20F0B
S1130F30F11D5181541740F411965C93119741832C
S1130F404C9150815C9340832F5FE9CF1296E3CF9D
S1130F5008957F928F929F92AF92BF92CF92DF9229
S1130F60EF92FF920F931F93CF93DF93CDB7DEB72A
S1130F70B82EA92E962E842E122FCDB6DEB68DB79E
S1130F809EB7A2E06A9F8019910911240FB6F894C4
S1130F909EBF0FBE8DBFEDB7FEB731967F0181E0D6
S1130FA0809308018B2D9A2D0E9473075B2D6B2D66
S1130FB07A2D970190E0462F451B4915A0F4FB01BB
S1130FC0DB014D91BD01D9014C93A081B0E0A81B78
S1130FD0B90BB7FF03C0B195A195B109F901A1837C
S1130FE02E5F3F4FE8CF82E080930801692DC7014F
S1130FF00E948907712CA02EB12C7814B0F5892D8C
S113100090E09C0127193109233031050CF4782C28
S1131010FC013197EE0FFF1FEE0DFF1D21812117FB
S113102008F4782C8A199B0902970CF0901A692D00
S1131030C7010E947307D70120E090E0291579F0D9
S1131040EC91F0E0E81BF90BF7FF03C0F195E19593
S1131050F1091196EC9311972F5F1296EFCF692D3A
S1131060C7010E9489077394C8CFD70111968C9148
S1131070811710F0901A18C0F701E90DF11DE90D60
S1131080F11D32978181181778F480E0891560F496
S1131090F701E80FF11DE80FF11D9181191710F404
S11310A08150982E8F5FF2CF692DC7010E9473077C
S11310B091E0909308010FB6F894DEBE0FBECDBE4A
S11310C0DF91CF911F910F91FF90EF90DF90CF9020
S11310D0BF90AF909F908F907F900895C49808958B
S11310E0C49A08951F93CF93DF931F92CDB7DEB7B1
S11310F0182F69830E946E0882E00E94060D812FDA
S11311000E94060D6981862F0E94060D0F90DF91C3
S1131110CF911F910C9470081F93CF93DF931F926C
S1131120CDB7DEB7182F0E946E0883E00E94060D2B
S1131130812F0E94060D0E940A0D89830E94700867
S113114089810F90DF91CF911F910895CF93DF9301
S11311501F92CDB7DEB70E946E0880EC0E94060D88
S11311600E9470088CEC94E00197F1F700C0000035
S11311708EE00E948C0889838981807E803821F0EA
S113118081E292E00E948B160F90DF91CF91089537
S11311900E94040D0C94A608CF93DF931F92CDB741
S11311A0DEB789830E946E08898180680E94060DDB
S11311B00F90DF91CF910C947008EF92FF920F93F0
S11311C01F93CF93DF93CDB7DEB72B970FB6F89469
S11311D0DEBF0FBECDBFFE0131968BE0DF011D9255
S11311E08A95E9F71091E8032091E9033091EA0325
S11311F0E980FA8003E04F81588569857A858B857B
S11312000E94A2032B960FB6F894DEBF0FBECDBF8B
S1131210DF91CF911F910F91FF90EF900895EF927E
S1131220FF920F931F93CF93DF93CDB7DEB72B9726
S11312300FB6F894DEBF0FBECDBF80E090E00E94F1
S1131240F312882309F440C08091090190910A01A6
S1131250019790930A018093090181E090E00E9434
S1131260F3122091090130910A01232B99F5FE0113
S113127031969BE0DF011D929A95E9F792E0E92E01
S113128099831A82F12C01E0182F2D813E814F8120
S1131290588569857A858B850E94A2038AE090E04F
S11312A090930A018093090183E592E02B960FB68F
S11312B0F894DEBF0FBECDBFDF91CF911F910F9188
S11312C0FF90EF900C948B1681E090E00E94F31253
S11312D08111BACF2B960FB6F894DEBF0FBECDBFE7
S11312E0DF91CF911F910F91FF90EF900895EF92AE
S11312F0FF920F931F93CF93DF93CDB7DEB72B9756
S11313000FB6F894DEBF0FBECDBFFE0131968BE061
S1131310DF011D928A95E9F781E0E82E89831A821C
S11313201091E7032091E603F12C02E03E814F8106
S1131330588569857A858B850E94A2032B960FB602
S1131340F894DEBF0FBECDBFDF91CF911F910F91F7
S1131350FF90EF900895EF92FF920F931F93CF9316
S1131360DF93CDB7DEB7A5970FB6F894DEBF0FBEF7
S1131370CDBFFE017B968BE0DF011D928A95E9F7D4
S113138087E0E82E8B8F1C8EF12C0D8D1E8D2F8DFA
S113139038A149A15AA16BA17CA18DA10E94A203ED
S11313A08FEF9FE20197F1F700C000000E94F01355
S11313B061E072E083E692E00E94741462E072E0FD
S11313C081E792E00E94741410929D0310929C0392
S11313D08DE9E82E82E0F82E8E010F5F1F4F0E94E8
S11313E005136093E8037093E9038093EA030E9472
S11313F092139093E7038093E6034091E80350E04F
S11314006091E30370E0CB010A9684179507ACF072
S11314108091E90390E02091E40330E0F9013A96E9
S1131420E817F90754F06A507109461757072CF06A
S11314302A5031098217930734F40E94DD0882E8A8
S113144092E00E948B16AFEFBFE21197F1F700C054
S113145000004091E70350E06091E20370E0CB01AB
S11314600A9684179507ACF08091E60390E02091EA
S1131470E10330E0F9013A96E817F90754F06A50AD
S11314807109461757072CF02A5031098217930720
S113149034F40E9477098FE892E00E948B168FEF54
S11314A09FE20197F1F700C000000E940F09AFEF1F
S11314B0BFE21197F1F700C0000080919D038F9364
S11314C080919C038F93FF92EF921F930F930E943E
S11314D0B81664E072E0C8010E9474140E941114EA
S11314E02091E8033091E9034091EA032093E30358
S11314F03093E4034093E5038091E6039091E7037E
S11315009093E2038093E1030E9492130F900F9053
S11315100F900F900F900F908A3008F060CF8FEFEC
S11315209FE20197F1F700C00000FE0170968BE086
S1131530DF011D928A95E9F786E0E82E888B198AE7
S1131540F12C0A891B892C893D894E895F89688D14
S1131550798D8A8D0E94A2038FEF9FE20197F1F7A4
S113156000C00000A5960FB6F894DEBF0FBECDBF35
S1131570DF91CF911F910F91FF90EF900895909379
S11315809D0380939C030895EF92FF920F931F9302
S1131590CF93DF93CDB7DEB72B970FB6F894DEBFAA
S11315A00FBECDBFFE0131968BE0DF011D928A95FF
S11315B0E9F78AE0E82E89831A82F12C0B811C81D9
S11315C02D813E814F81588569857A858B850E945E
S11315D0A20387EA92E02B960FB6F894DEBF0FBE03
S11315E0CDBFDF91CF911F910F91FF90EF900C949D
S11315F08B16EF92FF920F931F93CF93DF93CDB788
S1131600DEB72B970FB6F894DEBF0FBECDBFFE0139
S113161031968BE0DF011D928A95E9F789E0E82E87
S113162089831A82F12C0B811C812D813E814F818B
S1131630588569857A858B850E94A20388EB92E0A0
S11316402B960FB6F894DEBF0FBECDBFDF91CF91BE
S11316501F910F91FF90EF900C948B16DF92EF92F5
S1131660FF920F931F93CF93DF93CDB7DEB76097AD
S11316700FB6F894DEBF0FBECDBF0E94F01304E294
S113168010E07E0181E1E80EF11C9EEDD92ED00E12
S1131690FE0131961192EE15FF05E1F7B801CE0176
S11316A001960E94E6136D2D72E0CE0101960E9410
S11316B074140F5F1F4F0732110539F70E9411147C
S11316C080E090EF0197F1F70E9405137B3F68F0EB
S11316D00E9405138111FCCF8FEF9FE20197F1F770
S11316E000C000000E94F90A14C080E090EF019746
S11316F0F1F70E9405137A3000F50E940513811159
S1131700FCCF8FEF9FE20197F1F700C000000E9429
S1131710C40A8FEF9FE20197F1F700C000006096C2
S11317200FB6F894DEBF0FBECDBFDF91CF911F91EE
S11317300F91FF90EF90DF90089580E090EF019774
S1131740F1F7BECFEF92FF920F931F93CF93DF93E6
S1131750CDB7DEB72B970FB6F894DEBF0FBECDBF63
S1131760FE0131969BE0DF011D929A95E9F793E023
S1131770E92E99831A8291E09B838C83F12C01E0FA
S1131780182F2D813E814F81588569857A858B85F7
S11317900E94A2038FEF9FE20197F1F700C00000BF
S11317A08AEC92E02B960FB6F894DEBF0FBECDBF45
S11317B0DF91CF911F910F91FF90EF900C948B16B6
S11317C0EF92FF920F931F93CF93DF93CDB7DEB7C2
S11317D02B970FB6F894DEBF0FBECDBFFE01319636
S11317E08BE0DF011D928A95E9F784E0E82E898376
S11317F01A82F12C0B811C812D813E814F815885E9
S113180069857A858B850E94A2038FEF9FE20197F9
S1131810F1F700C0000089ED92E02B960FB6F89422
S1131820DEBF0FBECDBFDF91CF911F910F91FF900F
S1131830EF900C948B160F931F93CF93DF93CDB738
S1131840DEB761970FB6F894DEBF0FBECDBF898BAC
S11318500E94F0138E010F5E1F4FFE01319689899D
S11318601192E017F107E1F790E088309105A0F4B8
S1131870FC01E85CFF4F0C941F166FE070E002C09F
S11318806DE070E0CE0101960E94E61361E072E023
S1131890CE0101960E947414FE01319612C061E1DA
S11318A070E0F0CF62E170E0EDCF60E170E0EACF8C
S11318B06EE070E0E7CF63E170E0E4CF64E170E0F4
S11318C0E1CF1192E017F107E1F76DE270E0CE018C
S11318D001960E94E61362E072E0CE0101960E9436
S11318E07414FE0131961192E017F107E1F76EE2EC
S11318F070E0CE0101960E94E61364E072E0CE012E
S113190001960E947414FE0131961192E017F107BA
S1131910E1F76FE270E0CE0101960E94E61365E004
S113192072E0CE0101960E9474140E941114619613
S11319300FB6F894DEBF0FBECDBFDF91CF911F91DC
S11319400F91089580E090E00E94F31281110C94AD
S1131950E00B2FEF8FE791E0215080409040E1F7BA
S113196000C000C0EFCF80E00E941B0C80E00E940A
S1131970A20B80E00C94A20C82E00E941B0C82E07B
S11319800E94A20B82E00C94A20C83E00E941B0C28
S113199083E00E94A20B83E00C94A20C81E00E94DD
S11319A01B0C81E00E94A20B81E00C94A20C84E049
S11319B00E941B0C84E00E94A20B84E00C94A20CF5
S11319C086E00E941B0C86E00E94A20B86E00C9429
S11319D0A20C87E00E941B0C87E00E94A20B87E008
S11319E00C94A20C85E00E941B0C85E00E94A20BC3
S11319F085E00C94A20C8FEF87BB87B3806B87BB09
S1131A008DB181658DB908950C94FB0C8FB9779BCA
S1131A10FECF08958FEF8FB9779BFECF8FB10895D6
S1131A20292F903410F487FF11C01F922F931F9217
S1131A308F9386EE92E09F938F930E9477160F9078
S1131A400F900F900F900F900F900895392F3695A7
S1131A503695369590E040E8349F800D911D112411
S1131A60E0910B01F0910C01E80FF91F3081277010
S1131A7081E090E0022E01C0880F0A94EAF7382B27
S1131A80308308952F923F924F925F926F927F928C
S1131A908F929F92AF92BF92CF92DF92EF92FF927A
S1131AA00F931F93CF93DF9300D000D000D0CDB716
S1131AB0DEB78D83E42EF12C27011701260E311C8D
S1131AC0652E712C6301C70ED11C510181E0A81A47
S1131AD0B108460181E0881A910842145304BCF508
S1131AE083014E820C151D0574F5902F8D81813074
S1131AF039F018F08330A1F023C08E81902F0DC0EF
S1131B004E145F0449F00615170531F04A145B04BE
S1131B1019F008151905A1F48E810E94100D10C04A
S1131B204E145F0419F406151705B1F34A145B0447
S1131B3019F40815190581F380919E03813061F32E
S1131B400F5F1F4FCFCF8FEF481A580AC6CF269684
S1131B500FB6F894DEBF0FBECDBFDF91CF911F91BA
S1131B600F91FF90EF90DF90CF90BF90AF909F9038
S1131B708F907F906F905F904F903F902F9008953B
S1131B80BF92CF92DF92EF92FF920F931F93CF9366
S1131B90DF93CDB7DEB72A970FB6F894DEBF0FBE3A
S1131BA0CDBFD62EC42EB52E7D8391E090939E0397
S1131BB08230A9F040F4813009F074C000E010E0F4
S1131BC0E62EF12C26C0833009F453C0843009F08A
S1131BD069C000E010E0B41AE62EF12C35C000E034
S1131BE010E0B41AE62EF12C5B2D5C0D7D2D700FE8
S1131BF04C2D61E08D810E94420D10929E03025093
S1131C001109C394C8018E0D9F1D1816190664F39B
S1131C1049C04C2D401B5B2D500F802F880F7D2D0C
S1131C20781B61E08D810E94420D10929E030F5F2C
S1131C301F4FC801880F991F9701281B390BC90131
S1131C401816190634F32EC05B2D5C0D6D2D600F34
S1131C504C2D71E08D810E94420D10929E03025022
S1131C601109C394C8018E0D9F1D1816190664F33B
S1131C7019C000E010E0B40EE62EF12C5B2D5C19C7
S1131C806D2D600F4C2D71E08D810E94420D1092DC
S1131C909E0302501109C394C8018E0D9F1D18168E
S1131CA0190664F32A960FB6F894DEBF0FBECDBFB3
S1131CB0DF91CF911F910F91FF90EF90DF90CF9024
S1131CC0BF9008958F929F92AF92BF92CF92DF926E
S1131CD0EF92FF920F931F93CF93DF93CDB7DEB7AD
S1131CE02A970FB6F894DEBF0FBECDBF80E00E94E6
S1131CF0A20B0E94F01363E074E08AE093E00E9478
S1131D00741464E074E088E193E00E94741465E064
S1131D1074E084E293E00E9474140E94051381111C
S1131D20FCCF1F8281E28E831AE01887198682E035
S1131D308A8741E250E06AE070E00E94C00D1B8394
S1131D4019821A821C8381E08D8340E050E06AE0AE
S1131D507AE00E94420D0E9411142FEF8FEF9DE153
S1131D60215080409040E1F700C00000BB24B394B0
S1131D7000E0E12C52E0F52ED12C6AE0C62E11E2EF
S1131D8071E2972E88248394EAE0AE2E0E94051314
S1131D90833009F442C00E94F0131F5F2C2D30E001
S1131DA0210F311D2837310581F49F82D11003C0E2
S1131DB043E0D42E01C0D12CF39424E0F21202C0EB
S1131DC0FF24F39434E1C32E11E21E83C886D9861E
S1131DD0FA86412F5F81B6018F2D0E94C00D0F5FDF
S1131DE0083219F0E394E39404C0AB82B82400E011
S1131DF0E12CE9820A83AC82BD824E2D502F6B8187
S1131E007AE08B2D0E94420D0E9411148FEF9FE205
S1131E100197F1F700C00000B9CF2A960FB6F894E5
S1131E20DEBF0FBECDBFDF91CF911F910F91FF9009
S1131E30EF90DF90CF90BF90AF909F908F900C94D5
S1131E40E00B1F93CF93DF93EC0110E08F81181701
S1131E50A0F49D818E81E92FF82FE10FF11DE10F90
S1131E60F11DA081B1811496DC93CE9313978081E8
S1131E7091810E94210F1F5FE9CFDF91CF911F91C4
S1131E800895CF93DF93C0910D01D0910E019E016F
S1131E90285F3F4F3E832D83240F311D240F311DB6
S1131EA030930E0120930D014F8388837A836983D5
S1131EB02F3F3F4120F08EE293E00E948B16CE012B
S1131EC0DF91CF910895CF93DF9345E060E070E018
S1131ED080E00E94410F9093A00380939F03FC0134
S1131EE0C581D68142E060E070E081E00E94410F4C
S1131EF099838883E0919F03F091A0030580F68184
S1131F00E02D0190F081E02DC581D68140E06BEA9F
S1131F1079E082E00E94410F99838883E0919F03D6
S1131F20F091A0030580F681E02D0190F081E02D71
S1131F30C581D68140E061E976E083E00E94410FEB
S1131F409B838A83E0919F03F091A003C581D6818E
S1131F5043E060E070E085E00E94410F9B838A8348
S1131F60E0919F03F091A0030580F681E02D0280AB
S1131F70F381E02DC581D68140E064E073E188E01F
S1131F800E94410F99838883E0919F03F091A003FD
S1131F900580F681E02D0280F381E02DC581D68194
S1131FA042E060E070E089E00E94410F9B838A83F5
S1131FB0E0919F03F091A0030580F681E02D02805B
S1131FC0F381E02D0580F681E02D0280F381E02D80
S1131FD0C581D68140E060E070E08AE00E94410F54
S1131FE099838883E0919F03F091A0030580F68193
S1131FF0E02D0280F381E02D0580F681E02D028042
S1132000F381E02DC581D68140E060E070E08BE093
S11320100E94410F9B838A83E0919F03F091A00368
S11320200580F681E02D0280F381E02DC581D68103
S113203040E06EE27BE083E20E94410F9D838C834B
S1132040E0919F03F091A003C581D68148E060E050
S113205070E08CE00E94410F9D838C83E0919F038C
S1132060F091A0030580F681E02D0480F581E02D38
S1132070C581D68140E063EB7CE08DE00E94410F96
S113208099838883E0919F03F091A0030580F681F2
S1132090E02D0480F581E02DC581D68140E06EEC11
S11320A07CE08EE00E94410F9B838A83E0919F0332
S11320B0F091A0030580F681E02D0480F581E02DE8
S11320C0C581D68140E06CEB7CE08FE00E94410F3B
S11320D09D838C83E0919F03F091A0030580F6819A
S11320E0E02D0480F581E02DC581D68140E065ECCA
S11320F07CE080E10E94410F9F838E83E0919F03E7
S1132100F091A0030580F681E02D0480F581E02D97
S1132110C581D68140E067ED7CE081E10E94410FFA
S113212099878887E0919F03F091A0030580F68149
S1132130E02D0480F581E02DC581D68140E062EF79
S11321407CE082E10E94410F9B878A87E0919F0394
S1132150F091A0030580F681E02D0480F581E02D47
S1132160C581D68140E060EE7CE083E10E94410FAE
S11321709D878C87E0919F03F091A0030580F681F1
S1132180E02D0480F581E02DC581D68140E069EE23
S11321907CE084E10E94410F9F878E87E0919F033A
S11321A0F091A003C581D68140E062E67EE08CE236
S11321B00E94410F9F838E83E0919F03F091A003BF
S11321C0C581D68140E061EB74E18BE20E94410F4E
S11321D09987888780919F039091A0030E94210F83
S11321E081E493E0DF91CF910C948B160E94630FEE
S11321F080919F039091A00308951F93CF93DF9341
S1132200FC01A381B481109721F117968C91179743
S113221090E0019710E0212F30E028173907CCF423
S113222015964D915C911697E901CC0FDD1FC40FF3
S1132230D51F688179816E177F0749F4F9013196BA
S1132240EE0FFF1FE40FF51F8081918103C01F5F14
S1132250E2CFCF01DF91CF911F9108951F93CF93C8
S1132260DF93FC01A381B481109721F117961C918F
S1132270179781E090E08117E8F415962D913C9131
S11322801697AC014F5F5F4FEC01CC0FDD1FC20FFF
S1132290D31F688179816E177F0751F4FC01E150E7
S11322A0F048EE0FFF1FE20FF31F8081918103C0FE
S11322B0CA01E1CFCF01DF91CF911F910895FC01B5
S11322C08781861758F095818681E92FF82FE60FCC
S11322D0F11DE60FF11D808191810895CF010895CC
S11322E0FC01E1308CE1F80720F0838194810097B0
S11322F009F4CF010895EF92FF920F931F93CF93A8
S1132300DF93CDB7DEB72B970FB6F894DEBF0FBEC1
S1132310CDBFF8940E94DC1582E593E00E948B16F1
S11323200E94C6150E944E030E94EF120E947A0377
S11323300E9439140E94F6109093EC038093EB03EF
S11323400E94E00BFE0131968BE0DF011D928A951D
S1132350E9F786E0E82E89831A82F12C0B811C812F
S11323602D813E814F81588569857A858B850E94B0
S1132370A2038FEF9FE20197F1F700C00000789469
S11323808DE593E02B960FB6F894DEBF0FBECDBF5C
S1132390DF91CF911F910F91FF90EF900C948B16CA
S11323A00E947B110E9486150E9405136093E80326
S11323B07093E9038093EA038FEF9FE20197F1F7AB
S11323C000C000008091EA03E091EB03F091EC037C
S11323D0823001F120F4813009F462C06EC0833090
S11323E021F0843009F43FC068C08091A1038111B9
S11323F001C0878181508093A10325819681E22FBA
S1132400F92FE80FF11DE80FF11D808191810E94E1
S11324102E1153C06091A103CF010E945F11DC0112
S113242017962C918091EB039091EC036091A1039A
S1132430222319F00E945F113AC00E945F11FC012F
S113244081819281892BC9F16091A1038091EB0371
S11324509091EC030E945F11DC011196ED91FC91C7
S1132460129709952AC04091A103242F30E0878157
S113247090E001972817390719F081E0840F01C013
S113248080E08093A10325819681E22FF92FE80F44
S1132490F11DE80FF11D808191810E94FD100DC096
S11324A083819481892B49F0CF010E94701190930C
S11324B0EC038093EB031092A1038091EB039091C2
S11324C0EC030E9432158091A1030E94A914BFEF6E
S11324D0EFE7F4E0B150E040F040E1F700C0000065
S11324E063CF1F920F920FB60F921124CF92DF92F7
S11324F0EF92FF920F931F932F933F934F935F930A
S11325006F937F938F939F93AF93BF93EF93FF93B7
S1132510CF93DF93CDB7DEB72B97DEBFCDBF81E678
S11325200E948C08082F82E60E948C0898E0099F7C
S113253080011124829586958770082B85E60E9478
S11325408C08C82E7E01E4E0EE0EF11CD12CDC14C4
S113255049F086E68D0D0E948C08F70181937F0176
S1132560D394F5CF0530110599F48C81082F10E030
S11325701F928F9327E633E03F932F930E947716A1
S1132580C8010E94BF0A0F900F900F900F9004C0D3
S11325908BE793E00E948B1660E08CE20E94720845
S11325A02B960FB6F894DEBF0FBECDBFDF91CF914F
S11325B0FF91EF91BF91AF919F918F917F916F9117
S11325C05F914F913F912F911F910F91FF90EF9049
S11325D0DF90CF900F900FBE0F901F90189587B388
S11325E08C7F87BB089596B321E030E002C0220FB0
S11325F0331F8A95E2F7892F90E02823392381E05D
S1132600232B09F480E008950895CF92DF92FF927E
S11326100F931F93CF93DF93CDB7DEB72F970FB6EA
S1132620F894DEBF0FBECDBF6E0180E1C80ED11C91
S11326308E010F5F1F4F84E00E945203F8018193C3
S11326408F01F0E1FA95F1F700C00C151D0599F71B
S113265005E022E042E06FE0CE0101960E94A90766
S1132660F82E8E010F5F1F4F85E00E945203F80180
S113267081938F01F0E1FA95F1F700C00C151D0567
S113268099F705E022E042E06FE0CE0101960E9456
S1132690A907782FE82FF0E04F2D50E0AFEFB0E01E
S11326A0A41BB50B20910F01EA17FB0764F08F15EB
S11326B008F183E09091110130E0290F311D2E17AC
S11326C03F070CF10BC08F1558F0E0911001F0E0BA
S11326D0E21BF10981E04E175F07ACF080E013C004
S11326E04091110150E0421B5109E417F507B4F77A
S11326F084E009C082E09091100130E0290F311D7F
S1132700241735075CF76F2D2F960FB6F894DEBFAC
S11327100FBECDBFDF91CF911F910F91FF90DF903E
S1132720CF900895DF92EF92FF920F931F93CF9370
S1132730DF93CDB7DEB72F970FB6F894DEBF0FBE89
S1132740CDBF7E0180E1E80EF11C8E010F5F1F4FAB
S113275087E00E945203F80181938F01F0E1FA951A
S1132760F1F700C00E151F0599F704E022E042E0DE
S11327706FE0CE0101960E94A907D82E8E010F5F4B
S11327801F4F86E00E945203F80181938F01F0E10C
S1132790FA95F1F700C00E151F0599F704E022E041
S11327A042E06FE0CE0101960E94A907982F8D2D7B
S11327B02F960FB6F894DEBF0FBECDBFDF91CF9139
S11327C01F910F91FF90EF90DF900895E62FF0E0B6
S11327D0EE0FFF1FE058FF4F659174910C9425167E
S11327E020E030E080E090E0AC01420F531FE09124
S11327F01301F0911401E40FF51F10820196803843
S1132800910591F720583F4F211584E0380751F77F
S11328100895806BE1E0F0E18083108280E18083A1
S113282008951F93CF93DF9380E00E940914C0E0C2
S1132830D0E010E020E030E0A9014C0F5D1FE091F2
S11328401301F0911401E40FF51F808180930112AC
S11328502F5F3F4F2038310579F71F5F812F0E948A
S11328600914C058DF4F183029F7DF91CF911F9119
S11328700895E1E0F0E18EEA808381EA80838AEDC5
S1132880808382E1808388EC808388EA80838FE37D
S1132890808385ED808380E8808381E8808380E580
S11328A0808389ED808381E2808380E2808382E07B
S11328B080838BED808380E380838DEA8083108224
S11328C084EA808386EA80838FEA808383ED808331
S11328D0108280E4808380EB8083108280E1808397
S11328E00E94F0130C9411140F931F93CF93DF9352
S11328F0072F20E8629FB001112410E0EC01C10F02
S1132900D11D2881222301F120E030E0402F420F25
S1132910FB01E40FF11DA0911301B0911401AE0F5E
S1132920BF1F4881F90158E0459FE00DF11D1124B6
S1132930EA59FD4FE491EC932F5F3F4F2830310566
S113294029F7085F1F5FDACFDF91CF911F910F91B5
S11329500895682F78E780E993E00E9474140C943A
S11329601114FF920F931F93CF93DF93CDB7DEB76C
S113297060970FB6F894DEBF0FBECDBF0E94F01370
S1132980FF24F3948E010F5E1F4FFE0131961192C6
S1132990E017F107E1F766E26F0DCE0101960E94A0
S11329A0E6136F2D72E0CE0101960E947414F39425
S11329B025E0F212EACF0E9411148FEF9FEF2BE370
S11329C0815090402040E1F700C0000060960FB6AF
S11329D0F894DEBF0FBECDBFDF91CF911F910F9151
S11329E0FF900895FF920F931F93CF93DF93CDB77A
S11329F0DEB760970FB6F894DEBF0FBECDBF0E945E
S1132A00F013F12C8E010F5E1F4FFE0131961192CF
S1132A10E017F107E1F765E16F0DCE0101960E9421
S1132A20E6136F2D70E0CE0101960E947414F394A6
S1132A3027E0F212EACF0E9411148FEF9FEF2DE1ED
S1132A40815090402040E1F700C0000060960FB62E
S1132A50F894DEBF0FBECDBFDF91CF911F910F91D0
S1132A60FF900895BF92CF92DF92EF92FF920F935F
S1132A701F93CF93DF93CDB7DEB760970FB6F8946B
S1132A80DEBF0FBECDBF7C010E94F01300E010E05A
S1132A906E0181E1C80ED11CF701878190E008170F
S1132AA0190714F5B02EFE0131961192EC15FD05AF
S1132AB0E1F7C801880F991FD7011596ED91FC9194
S1132AC01697E80FF91F0190F081E02D6081CE0187
S1132AD001960E94E6136B2D72E0CE0101960E94CE
S1132AE074140F5F1F4FD8CF0E94111460960FB655
S1132AF0F894DEBF0FBECDBFDF91CF911F910F9130
S1132B00FF90EF90DF90CF90BF900895FF920F93C6
S1132B101F93CF93DF93CDB7DEB760970FB6F894CA
S1132B20DEBF0FBECDBF0E94F013F12C8E010F5EED
S1132B301F4FFE0131961192E017F107E1F76CE1A6
S1132B406F0DCE0101960E94E6136F2D70E0CE0149
S1132B5001960E947414F39427E0F212EACF0E94C3
S1132B6011148FEF9FEF2DE1815090402040E1F749
S1132B7000C0000060960FB6F894DEBF0FBECDBF54
S1132B80DF91CF911F910F91FF90089585B78068D1
S1132B9085BF80B7806280BF80B710BE80B710BE8B
S1132BA008955D9BFECF8CB980E090E008955F9B13
S1132BB0FECF8CB190E0089510BC8FE189B98AB141
S1132BC088618AB980B5866880BD80B5877F80BDFD
S1132BD080B58F7B80BD80B58F7E80BD80B58F7EB4
S1132BE080BD67ED75E181ED95E10C942C16AA1B6F
S1132BF0BB1B51E107C0AA1FBB1FA617B70710F0E4
S1132C00A61BB70B881F991F5A95A9F78095909515
S1132C10BC01CD01089597FB072E16F4009407D04C
S1132C2077FD09D00E94F71507FC05D03EF4909576
S1132C3081959F4F0895709561957F4F0895EE0F8C
S1132C40FF1F0590F491E02D0994FB01DC01059030
S1132C500D920020E1F708950F931F93CF93DF9314
S1132C60EC018B01009731F46115710519F480E0D2
S1132C7090E038C06EE070E081E090E00E94AC1813
S1132C80FC010097A1F380E883830115110571F01D
S1132C901387028781E883838091ED039091EE038B
S1132CA0892B21F4F093EE03E093ED032097C9F010
S1132CB0D187C0878381826083838091EF03909161
S1132CC0F003892B71F4F093F003E093EF03809108
S1132CD0F1039091F203892B21F4F093F203E09332
S1132CE0F103CF01DF91CF911F910F910895A0E0DF
S1132CF0B0E0EDE7F6E10C94AC1AFE013596619173
S1132D007191AF018091EF039091F0030E94DA1664
S1132D10E2E00C94C81A0F931F93CF93DF93E091D2
S1132D20EF03F091F003238121FF1BC0EC0100E0CD
S1132D3010E089916091EF037091F003DB01189624
S1132D40ED91FC911997882331F00995892B89F32A
S1132D500FEF1FEFEECF8AE00995892B11F4C8011C
S1132D6002C08FEF9FEFDF91CF911F910F910895D4
S1132D70AEE0B0E0EEEBF6E10C94AA1A0D891E89E0
S1132D8086E08C831A8309838FEF9FE79E838D836C
S1132D90AE01475E5F4F6F89788DCE0101960E9428
S1132DA0DA16EF81F885E00FF11F10822E96E4E029
S1132DB00C94C61AACE0B0E0E0EEF6E10C949C1A78
S1132DC07C016B018A01FC0117821682838181FFD9
S1132DD0BDC1CE0101964C01F7019381F60193FD2B
S1132DE0859193FF81916F01882309F4ABC18532EA
S1132DF039F493FD859193FF81916F01853229F414
S1132E00B70190E00E940C1AE7CF512C312C20E03E
S1132E102032A0F48B3269F030F4803259F08332DE
S1132E2069F420612CC08D3239F0803339F421608B
S1132E3026C02260246023C0286021C027FD27C04B
S1132E4030ED380F3A3078F426FF06C0FAE05F9E82
S1132E50300D1124532E13C08AE0389E300D1124F6
S1132E60332E20620CC08E3221F426FD6BC1206407
S1132E7006C08C3611F4206802C0883641F4F6018D
S1132E8093FD859193FF81916F018111C1CF982F9B
S1132E909F7D9554933028F40C5F1F4FFFE3F98313
S1132EA00DC0833631F0833771F0833509F05BC090
S1132EB022C0F801808189830E5F1F4F442443940C
S1132EC0512C540115C03801F2E06F0E711CF80149
S1132ED0A080B18026FF03C0652D70E002C06FEFB3
S1132EE07FEFC5012C870E94011A2C0183012C85D8
S1132EF02F77222E17C03801F2E06F0E711CF801F3
S1132F00A080B18026FF03C0652D70E002C06FEF82
S1132F107FEFC5012C870E94EF192C012C852068B6
S1132F20222E830123FC1BC0832D90E048165906F2
S1132F30B0F4B70180E290E00E940C1A3A94F4CF06
S1132F40F50127FC859127FE81915F01B70190E08F
S1132F500E940C1A31103A94F1E04F1A51084114AE
S1132F60510471F7E5C0843611F0893639F5F8015A
S1132F7027FF07C060817181828193810C5F1F4F9D
S1132F8008C060817181882777FD8095982F0E5F36
S1132F901F4F2F76B22E97FF09C09095809570959C
S1132FA061957F4F8F4F9F4F2068B22E2AE030E00B
S1132FB0A4010E943E1AA82EA81844C0853729F4FB
S1132FC02F7EB22E2AE030E025C0F22FF97FBF2EEB
S1132FD08F36C1F018F4883579F0B4C0803719F011
S1132FE0883721F0AFC02F2F2061B22EB4FE0DC060
S1132FF08B2D8460B82E09C024FF0AC09F2F9660D1
S1133000B92E06C028E030E005C020E130E002C05F
S113301020E132E0F801B7FE07C06081718182814E
S113302093810C5F1F4F06C06081718180E090E046
S11330300E5F1F4FA4010E943E1AA82EA818FB2D54
S1133040FF77BF2EB6FE0BC02B2D2E7FA51450F498
S1133050B4FE0AC0B2FC08C02B2D2E7E05C07A2C0B
S11330602B2D03C07A2C01C0752C24FF0DC0FE014A
S1133070EA0DF11D8081803311F4297E09C022FFFD
S113308006C07394739404C0822F867809F07394F5
S113309023FD13C020FF06C05A2C731418F4530CDC
S11330A05718732C731468F4B70180E290E02C87EE
S11330B00E940C1A73942C85F5CF731410F43718EE
S11330C001C0312C24FF12C0B70180E390E02C87AB
S11330D00E940C1A2C8522FF17C021FF03C088E52B
S11330E090E002C088E790E0B7010CC0822F867898
S11330F059F021FD02C080E201C08BE227FD8DE280
S1133100B70190E00E940C1AA51438F4B70180E3CB
S113311090E00E940C1A5A94F7CFAA94F401EA0D95
S1133120F11D8081B70190E00E940C1AA110F5CF27
S1133130332009F451CEB70180E290E00E940C1ACA
S11331403A94F6CFF7018681978102C08FEF9FEF03
S11331502C96E2E10C94B81A0F931F93CF93DF934C
S1133160869F8001879F100D969F100D1124C80122
S11331700E94C818EC01009729F0A80160E070E0F3
S11331800E94FA19CE01DF91CF911F910F910895FA
S1133190CF93DF938230910510F482E090E0E091C8
S11331A0F503F091F60320E030E0A0E0B0E03097C2
S11331B039F14081518148175907B8F04817590728
S11331C071F482819381109729F013969C938E93C6
S11331D012972CC09093F6038093F50327C0211512
S11331E0310531F04217530718F0A901DB0101C082
S11331F0EF019A01BD01DF010280F381E02DD7CFF9
S113320021153105F9F0281B390B2430310580F4E0
S11332108A819B816115710521F0FB01938382836F
S113322004C09093F6038093F503FE01329644C0E4
S1133230FE01E20FF31F81939193225031093983E8
S113324028833AC02091F3033091F403232B41F4F3
S113325020910201309103013093F4032093F3038E
S113326020910001309101012115310541F42DB760
S11332703EB74091040150910501241B350BE091A8
S1133280F303F091F403E217F307A0F42E1B3F0BB2
S11332902817390778F0AC014E5F5F4F24173507C4
S11332A048F04E0F5F1F5093F4034093F303819350
S11332B0919302C0E0E0F0E0CF01DF91CF91089557
S11332C0CF93DF93009709F487C0FC0132971382F0
S11332D01282C091F503D091F603209781F42081E6
S11332E03181280F391F8091F3039091F4038217E1
S11332F0930779F5F093F403E093F3036DC0DE01D3
S113330020E030E0AE17BF0750F412964D915C9167
S113331013979D014115510509F1DA01F3CFB383E8
S1133320A28340815181840F951F8A179B0771F4F2
S11333308D919C911197840F951F029691838083A0
S113334012968D919C911397938382832115310555
S113335029F4F093F603E093F5033EC0D9011396E4
S1133360FC93EE9312974D915D91A40FB51FEA174C
S1133370FB0779F480819181840F951F0296D9010E
S113338011969C938E938281938113969C938E9332
S11333901297E0E0F0E08A819B81009719F0FE012A
S11333A0EC01F9CFCE01029628813981820F931F57
S11333B02091F3033091F4032817390769F4309707
S11333C029F41092F6031092F50302C013821282BC
S11333D0D093F403C093F303DF91CF910895FC01DC
S11333E00590615070400110D8F7809590958E0F2C
S11333F09F1F0895DC0101C06D9341505040E0F7D8
S11334000895FC016150704001900110D8F7809537
S113341090958E0F9F1F08950F931F93CF93DF9363
S1133420182F092FEB018B8181FD03C08FEF9FEFD4
S113343020C082FF10C04E815F812C813D814217E4
S113344053077CF4E881F9819F012F5F3F4F398353
S11334502883108306C0E885F985812F0995892B77
S113346029F72E813F812F5F3F4F3F832E83812F8A
S1133470902FDF91CF911F910F910895FA01AA2700
S1133480283051F1203181F1E8946F936E7F6E5FA3
S11334907F4F8F4F9F4FAF4FB1E03ED0B4E03CD051
S11334A0670F781F891F9A1FA11D680F791F8A1F34
S11334B0911DA11D6A0F711D811D911DA11D20D09B
S11334C009F468943F912AE0269F11243019305D55
S11334D03193DEF6CF010895462F4770405D419346
S11334E0B3E00FD0C9F7F6CF462F4F70405D4A3393
S11334F018F0495D31FD4052419302D0A9F7EACF5B
S1133500B4E0A6959795879577956795BA95C9F789
S113351000976105710508959B01AC010A2E06947C
S11335205795479537952795BA95C9F7620F731F35
S1133530841F951FA01D08952F923F924F925F9272
S11335406F927F928F929F92AF92BF92CF92DF92AF
S1133550EF92FF920F931F93CF93DF93CDB7DEB714
S1133560CA1BDB0B0FB6F894DEBF0FBECDBF0994A8
S11335702A88398848885F846E847D848C849B84FF
S1133580AA84B984C884DF80EE80FD800C811B810D
S1133590AA81B981CE0FD11D0FB6F894DEBF0FBE3C
S10D35A0CDBFED010895F894FFCFAC
S11335AA0000F703200003000101000018001C0FAB
S11335BA7D8100001843414E207472616E736D69F7
S11335CA7373696F6E206572726F7220005465732B
S11335DA742043414E206275730043414E2069644E
S11335EA3A2025642C2043414E2064617461206C86
S11335FA656E6774683A2025642C2043414E206422
S113360A6174613A2025632C2025632C2025632CC0
S113361A2025632C202563200A0043414E206D7324
S113362A672073656E74202D3E2043414E206964E1
S113363A3A2025642C2043414E2064617461206C35
S113364A656E6774683A2025642C2043414E2064D1
S113365A6174613A2025632C2025632C2025632C70
S113366A202563200A0043414E535441543A2030E2
S113367A78253032780A0043414E4354524C3A205A
S113368A3078253032780A0047414D45204F564557
S113369A5221004C4546543A20726573746172741F
S11336AA0052494748543A206C6561766500504196
S11336BA555345004C4546543A20726573756D65F9
S11336CA004D435032353135206973204E4F542012
S11336DA696E20636F6E66696775726174696F6E6D
S11336EA206D6F6465206166746572207265736506
S11336FA74210043414E20427574746F6E207365C1
S113370A6E740050494E47504F4E472047414D452D
S113371A004C45465420534C49443A206C65617622
S113372A650043414E204A6F792073656E740043E5
S113373A616E20534C69642073656E740053636F21
S113374A72653A2025640043414E2053544F502059
S113375A49522073656E740043414E2053544152BA
S113376A542049522073656E740043414E205354C9
S113377A41525420534F4E470043414E20454E4434
S113378A20534F4E4700504F494E5420583D25640C
S113379A20616E6420793D2564204F555453494471
S11337AA452053435245454E0A0048415645204652
S11337BA554E2057495448005351554152455320B8
S11337CA414E4400545249414E474C4553004D65BD
S11337DA6E75206F7574206F66206D656D6F7279D2
S11337EA00504152454E54532041535349474E4584
S11337FA4400737461727420696E697400494E4995
S113380A5420444F4E4500476F74206E65772073E9
S113381A636F72653A202564200A00556E6B6E6FD9
S113382A776E2043414E206D65737361676520008E
S109383A3C00256420009F
S9030000FC
