S00C0000455049432E73726563F7
S11300000C94B4010C94D1010C94D1010C94E90129
S11300100C94D1010C94D1010C94D1010C94D10114
S11300200C94D1010C94D1010C94D1010C94D10104
S11300300C94D1010C94D1010C94D1010C94D101F4
S11300400C94D1010C94D1010C94D1010C94D101E4
S11300500C94D1010C94D1010C94D1010C94D101D4
S11300600C94D1010C94D1010C94D1010C94D101C4
S1130070000000000000000000065F5F06000000B2
S11300800007070007070000147F7F147F7F140018
S1130090242E6B6B3A120000466630180C66620020
S11300A0307A4F5D377A48000407030000000000EF
S11300B0001C3E63410000000041633E1C00000040
S11300C0082A3E1C1C3E2A0808083E3E0808000078
S11300D000A0E0600000000008080808080800000C
S11300E000006060000000006030180C060301008E
S11300F03E7F594D7F3E000042427F7F40400000DA
S1130100627359496F660000226349497F360000D3
S1130110181C16137F7F1000276745457D390000A2
S11301203C7E4B4979300000036371190F070000CE
S1130130367F49497F360000064F49693F1E00005B
S113014000006C6C0000000000A0EC6C00000000DB
S1130150081C366341000000141414141414000025
S1130160004163361C080000020351590F060000C9
S11301703E7F415D5D1F1E007C7E13137E7C00006C
S1130180417F7F49497F36001C3E63414163220021
S1130190417F7F41637F1C00417F7F495D41630054
S11301A0417F7F491D0103001C3E6341517372006E
S11301B07F7F08087F7F000000417F7F41000000AF
S11301C0307040417F3F0100417F7F081C7763000E
S11301D0417F7F41406070007F7F060C067F7F0077
S11301E07F7F060C187F7F001C3E6341633E1C002A
S11301F0417F7F49090F06001E3F21717F5E000089
S1130200417F7F19396F460026674D597B320000C4
S113021003417F7F410300007F7F40407F7F0000D8
S11302201F3F60603F1F00007F7F3018307F7F00DA
S113023063771C081C776300074F78784F0700002A
S11302406773594D47637100007F7F41410000008F
S11302500103060C183060000041417F7F0000005C
S1130260080C0603060C0800808080808080808053
S11302700000030704000000207454543C7840003C
S1130280413F7F44447C3800387C44446C2800005F
S1130290307848493F7F4000387C54545C18000053
S11302A0487E7F490302000098BCA4A4F87C0400A3
S11302B0417F7F08047C780000447D7D400000007D
S11302C040C484FD7D000000417F7F10386C4400F1
S11302D000417F7F400000007C7C0C180C7C78007F
S11302E07C7C04047C780000387C44447C38000026
S11302F084FCF8A4243C1800183C24A4F8FC8400D2
S1130300447C78441C180000485C54547424000055
S113031000043E7F442400003C7C40403C7C400080
S11303201C3C60603C1C00003C7C6030607C3C00F9
S1130330446C3810386C44009CBCA0A0FC7C0000C9
S11303404C64745C4C64000008083E774141000032
S113035000000077770000004141773E0808000064
S1130360020301030203010011241FBECFEFD4E0F6
S1130370DEBFCDBF13E0A0E0B1E0E6E9F1E102C0E9
S113038005900D92A234B107D9F723E0A2E4B3E0BB
S113039001C01D92A935B207E1F70E94D4030C9461
S11303A0C9080C9400008BB780628BBF089590E05D
S11303B0909301148093001480914203909143031D
S11303C0892BD1F380912814109243031092420395
S11303D008951F920F920FB60F9211248F939F933B
S11303E081E090E090934303809342039F918F9127
S11303F00F900FBE0F901F901895089580EC0E94E7
S1130400130208950E94FE01089580E487BB8DB90C
S1130410089580EA87BB81E58DB908950E94090299
S11304200E94050208958FB9779BFECF089589E154
S113043091E00E94790808958BE191E00E94790887
S113044008951F93CF93DF93EC010097F9F088850B
S1130450882301F110E0812F90E0880F991FEE812D
S1130460FF81E80FF91F0190F081E02DD583C4834B
S11304702E813F81F901E80FF91F808191810E944B
S113048021021F5F8885181730F304C086E291E0CB
S11304900E947908DF91CF911F910895DF92EF9226
S11304A0FF920F931F93CF93DF937C018B01D42E84
S11304B089E090E00E940707EC018D2D90E0880F01
S11304C0991F0E9407079F838E83D886F982E8824A
S11304D01B830A83CE01DF91CF911F910F91FF906F
S11304E0EF90DF9008950F931F93CF93DF9344E031
S11304F060E070E080E391E00E944E02EC01909392
S11305004503809344030E811F8142E060E070E064
S113051085E391E00E944E02F80191838083EE818D
S1130520FF810190F081E02D0681178140E06CE1AC
S113053072E08BE391E00E944E02F8019183808384
S1130540EE81FF810190F081E02D0681178140E06A
S113055067E172E084E491E00E944E02F801938323
S113056082830E811F8141E060E070E08DE491E0C0
S11305700E944E02F80193838283EE81FF81028000
S1130580F381E02D0681178140E06CE172E085E59E
S113059091E00E944E02F801918380830E811F81B5
S11305A041E060E070E081E691E00E944E02F801D3
S11305B095838483EE81FF810480F581E02D06819B
S11305C0178140E06CE172E08AE691E00E944E02FD
S11305D0F801918380830E811F8141E060E070E027
S11305E08DE791E00E944E02F80197838683EE81A5
S11305F0FF810680F781E02D0681178140E06DE3DD
S113060076E083E891E00E944E02F80191838083B2
S1130610CE010E9421028EE891E00E947908DF91C8
S1130620CF911F910F9108958091440390914503B8
S1130630892B11F40E947302809144039091450325
S11306400895CF93DF93DC011496ED91FC911597F7
S1130650309781F1808590E001971816190664F5AA
S1130660C681D781288139812A173B07C9F40DC077
S1130670262F30E0F901EE0FFF1FEC0FFD1F408124
S113068051814A175B0769F402C020E030E02F5F14
S11306903F4F220F331FC20FD31F888199810EC091
S11306A060E06F5F262F30E0281739070CF38A2F9C
S11306B09B2F04C09B2F02C08A2F9B2FDF91CF91C9
S11306C008951F93CF93DF93DC011496ED91FC9171
S11306D01597309751F11085123048F1C681D781B2
S11306E08A819B818A179B07B9F40AC04191519171
S11306F0B9016F5F7F4F4A175B0721F09B0110C060
S113070021E030E021503048C901880F991FC80FFB
S1130710D91F888199810CC0FE01349622E030E013
S1130720211720F38A2F9B2F03C09B2F01C09B2FDF
S1130730DF91CF911F910895FC018085861760F0A9
S1130740862F90E0880F991F0680F781E02DE80F2F
S1130750F91F8081918108958E2F9F2F0895FC01A8
S113076084819581009709F4CF0108958FE190E089
S11307700E94F2060E94DF060E94D3010E949E049A
S11307800E940E020E9402020E94FD0178940E94BF
S1130790B3050E94140390934803809347038FE9A1
S11307A091E00E94790808950E94B6030E94980679
S11307B0CDE4D3E00E94A1042093490330934A037B
S11307C040934B0350934C0360934D0370934E033B
S11307D08FEF9FE20197F1F700C0000088819981B3
S11307E08230910561F124F4019709F482C092C02A
S11307F08330910521F0049709F45AC08BC0E0912D
S11308004603E11107C0E0914703F0914803E085F6
S1130810E15001C0E150E0934603A0914703B09139
S11308204803F0E0EE0FFF1F16968D919C911797E9
S1130830E80FF91F808191810E9461036BC0609170
S1130840460380914703909148030E949C03DC0176
S113085018968C91882379F0609146038091470320
S1130860909148030E949C0390934803809347030C
S1130870109246034FC060914603809147039091C4
S113088048030E949C03FC0182819381892B09F413
S113089041C06091460380914703909148030E94B0
S11308A09C03DC011296ED91FC911397099532C0DB
S11308B080914603E0914703F0914803482F50E0AC
S11308C0208530E0215031094217530711F08F5F22
S11308D001C080E08093460390E0880F991F068052
S11308E0F781E02DE80FF91F808191810E94210397
S11308F011C08091470390914803FC012481358104
S1130900232B41F00E94AF03909348038093470345
S11309101092460380914703909148030E945B061E
S1130920809146030E943406FFEF2FE784E0F150E4
S113093020408040E1F700C000003CCF87B317BAE5
S11309400895CF92DF92EF92FF920F931F93CF936C
S1130950DF9300D000D000D0CDB7DEB784E00E9492
S1130960D701082F10E085E00E94D701E82EF12C72
S11309708FEF90E0801B910BE816F9060CF46BC026
S1130980E016F1060CF44EC047C020910601809198
S1130990090190910A01820F911D8E159F050CF497
S11309A05EC0C12CD12C5BC020910601809107014F
S11309B090910801820F911D801791070CF44FC08C
S11309C0C12CD12C4CC02091060180910901909139
S11309D00A01821B9109E816F906CCF0C12CD12C2E
S11309E03EC0209106018091070190910801821B6D
S11309F0910931E020E0081719070CF030E0C32E0C
S1130A00D22E2DC089EA91E00E94790828C068940A
S1130A10CC24C2F8D12C23C00F2EF3E0CF2ED12C3E
S1130A20F02D04C06894CC24C1F8D12C82E0C816FF
S1130A30D10409F4B9CF2CF481E0C816D10411F71C
S1130A40D0CF83E0C816D10409F49FCF84E0C81640
S1130A50D104C1F6B8CFE016F1061CF6B4CF1A8360
S1130A600983FC82EB82DE82CD82202F3A814E2DD7
S1130A705C816C2D7E8180E090E026960FB6F89420
S1130A80DEBF0FBECDBFDF91CF911F910F91FF90BD
S1130A90EF90DF90CF90089540E050E070E060E088
S1130AA014C09C01240F351FE0910D01F0910E013B
S1130AB0E20FF31F108201968038910591F7405898
S1130AC05F4F411584E0580719F0872F962FE9CF1F
S1130AD00895806BE0E0F0E1808310828FE78083EB
S1130AE00895DF92EF92FF920F931F93CF93DF93BA
S1130AF080E00E94690520E030E0F12C6894DD2458
S1130B00D7F8E12CC0E0D2E121C0022F132FA901B4
S1130B10481B590BE0910D01F0910E01E40FF51FF4
S1130B20408148830197009781F787E08F1528F06B
S1130B3081E08F0D0E94690503C080E00E94690571
S1130B40F39488E0F81639F0202F312F8D2D9E2D47
S1130B5020583F4FDACFDF91CF911F910F91FF9033
S1130B60EF90DF900895E0E0F0E18EEA808381EA7F
S1130B7080838AED808382E1808388EC808388EAA5
S1130B8080838FE3808385ED808380E8808381E8A0
S1130B90808380E5808389ED808381E2808380E2A5
S1130BA0808382E080838BED808380E380838DEA81
S1130BB08083108284EA808386EA80838FEA80833C
S1130BC083ED8083108280E4808380EB80831082B5
S1130BD08FE780830E944C050E9471050895EF926F
S1130BE0FF920F931F93CF93DF93172FFC01208164
S1130BF0222399F1F0E86F9FA0011124EC0100E099
S1130C00E12CF12C27C0612F620FFA01E60FF11DD0
S1130C10A0910D01B0910E01AE0FBF1FE881F0E06D
S1130C20B097EE0FFF1FEE0FFF1FEE0FFF1FE20F37
S1130C30F31FE059FF4FE491EC932F5F3F4F2830AF
S1130C40310509F7185F0F5FEC01C00FD11D288132
S1130C50222319F02E2D3F2DD6CFDF91CF911F9156
S1130C600F91FF90EF900895682F78E784E592E064
S1130C700E94EF050E947105089563E072E082E628
S1130C8092E00E94EF0564E072E083E792E00E9444
S1130C90EF0565E072E084E892E00E94EF050E94AF
S1130CA071052FEF8FEF9EE0215080409040E1F7D7
S1130CB000C0000008950F931F93CF93DF938C011E
S1130CC00E944C050115110551F1F8018085882316
S1130CD019F1C0E0D0E0F8012681378121153105F2
S1130CE081F0CE01880F991FF901E80FF91F0190D7
S1130CF0F081E02D6C2F72E0808191810E94EF05DC
S1130D0004C08DE992E00E9479082196F80180855B
S1130D1090E0C817D907FCF20E94710504C08AEA62
S1130D2092E00E947908DF91CF911F910F9108956D
S1130D300E944C050E9471052FEF8FEF9DE1215019
S1130D4080409040E1F700C0000060E070E086EC75
S1130D5092E00E94EF0561E070E087ED92E00E946E
S1130D60EF0562E070E088EE92E00E94EF0563E038
S1130D7070E089EF92E00E94EF0564E070E08AE0A1
S1130D8093E00E94EF0565E070E08BE193E00E9440
S1130D90EF0566E070E08CE293E00E94EF050E94AC
S1130DA071052FEF8FEF9DE1215080409040E1F7D6
S1130DB000C000000E944C050E947105089585B78B
S1130DC0806885BF80B7806280BF80B710BE80B75F
S1130DD010BE08955D9BFECF8CB908955F9BFECF36
S1130DE08CB1089590BD89B988E18AB986E880BD3F
S1130DF080B510BC80B510BC80B510BC80B510BCEB
S1130E006EEE76E08AEE96E00E942E080895CF9367
S1130E10DF938230910510F482E090E0E091510379
S1130E20F091520320E030E0A0E0B0E0309739F1D7
S1130E304081518148175907B8F04817590771F490
S1130E4082819381109729F013969C938E93129725
S1130E502CC0909352038093510327C02115310570
S1130E6031F04217530718F0A901DB0101C0EF016B
S1130E709A01BD01DF010280F381E02DD7CF211556
S1130E803105F9F0281B390B2430310580F48A81AF
S1130E909B816115710521F0FB019383828304C05A
S1130EA09093520380935103FE01329644C0FE0195
S1130EB0E20FF31F819391932250310939832883E0
S1130EC03AC020914F0330915003232B41F42091D9
S1130ED00201309103013093500320934F0320917A
S1130EE00001309101012115310541F42DB73EB7C0
S1130EF04091040150910501241B350BE0914F03EF
S1130F00F0915003E217F307A0F42E1B3F0B2817B0
S1130F10390778F0AC014E5F5F4F2417350748F06E
S1130F204E0F5F1F5093500340934F03819391934F
S1130F3002C0E0E0F0E0CF01DF91CF910895CF93BC
S1130F40DF93009709F487C0FC0132971382128261
S1130F50C0915103D0915203209781F420813181B3
S1130F60280F391F80914F039091500382179307E4
S1130F7079F5F0935003E0934F036DC0DE0120E058
S1130F8030E0AE17BF0750F412964D915C91139761
S1130F909D014115510509F1DA01F3CFB383A28311
S1130FA040815181840F951F8A179B0771F48D919D
S1130FB09C911197840F951F0296918380831296BA
S1130FC08D919C911397938382832115310529F484
S1130FD0F0935203E09351033EC0D9011396FC935E
S1130FE0EE9312974D915D91A40FB51FEA17FB077D
S1130FF079F480819181840F951F0296D90111960D
S11310009C938E938281938113969C938E931297D3
S1131010E0E0F0E08A819B81009719F0FE01EC0189
S1131020F9CFCE01029628813981820F931F209136
S11310304F03309150032817390769F4309729F486
S1131040109252031092510302C013821282D09361
S11310505003C0934F03DF91CF9108950F931F93D3
S1131060CF93DF93EC018B01009731F46115710587
S113107019F480E090E038C06EE070E081E090E028
S11310800E94A608FC010097A1F380E88383011560
S1131090110571F01387028781E8838380915303DC
S11310A090915403892B21F4F0935403E093530358
S11310B02097C9F0D187C087838182608383809120
S11310C0550390915603892B71F4F0935603E093E2
S11310D055038091570390915803892B21F4F09381
S11310E05803E0935703CF01DF91CF911F910F91E4
S11310F008950F931F93CF93DF93E0915503F091DD
S11311005603238121FF1BC0EC0100E010E089910C
S11311106091550370915603DB011896ED91FC9193
S11311201997882331F00995892B89F30FEF1FEF65
S1131130EECF8AE00995892B11F4C80102C08FEF24
S11311409FEFDF91CF911F910F9108950F931F93FC
S1131150CF93DF93869F8001879F100D969F100D7C
S11311601124C8010E940707EC01009729F0A80187
S113117060E070E00E94C208CE01DF91CF911F9120
S11311800F910895DC0101C06D9341505040E0F788
S10911900895F894FFCF5E
S11311960000590320000F7D00810000000018495B
S11311A620616D2064756D620031003200330034B5
S11311B6004D61696E004E554C4C206E6F6465009F
S11311C6726F6F740047616D65730050696E675086
S11311D66F6E670050696E6750616E6700506C6190
S11311E6796572730043726561746520557365721F
S11311F60053657474696E67730043616C69627247
S1131206617465204A6F79737469636B0044756D04
S11312166D79005072696E7464756D6D7900504114
S113122652454E54532041535349474E4544004971
S11312364E495420444F4E45004572726F722072D7
S11312466563656976696E67206A6F797374696325
S11312566B2076616C7565004A6F79737469636B8C
S113126620706F736974696F6E20783D2564202C35
S113127620793D2564202C20646972656374696F46
S11312866E3D25730A00536C6964657220506F7352
S11312966974696F6E3A206C6566743D2564202C0A
S11312A62072696768743D25640A004E4555545298
S11312B6414C004C454654005249474854004C455D
S11312C646545F5550004C4546545F444F574E00B4
S11312D652494748545F55500052494748545F4461
S11312E64F574E003C0068656C6C6F5F776F726C8D
S11312F66400492077616E7420746F206772656597
S11313067420006772616E646D612C20626563618E
S1131316757365002073686520697320736F6F6F3A
S11313266F6F6F6F6F20707265747479004E554CD1
S11313364C207375626D656E7500656D70747920E9
S11313466D656E7520706F696E7465722064657460
S1131356656374656400202E2D2D2D2D2D2D2D2DC8
S11313662D2D2D2D2E2000207C2050696E672050B7
S11313766F6E6721207C200020602D2D2D2D2D2DB4
S11313862D2D2D2D2D2D272000202020202020201E
S11313965E20202020202020200020202020202025
S11313A6207C2020285C5F2F29200020202020205C
S11313B620207C5F5F284F2E6F29200020202020CC
S11313C6202020202020283E203C2920002564209F
S10513D6000011
S9030000FC
