S00C0000455049432E73726563F7
S11300000C94A5020C9446130C94C2020C94DC02CA
S11300100C94C2020C94C2020C94C2020C94C2024C
S11300200C94C2020C94C2020C94C2020C94C2023C
S11300300C94C2020C94C2020C94C2020C94C2022C
S11300400C94C2020C94C2020C94C2020C94C2021C
S11300500C94C2020C94C2020C94C2020C94C2020C
S11300600C94C2020C94C2020C94C2020C94C202FC
S11300704D0247023E0235022B0222021202020204
S1130080F301E501D901CC01C601B901B201A50111
S11300909D018C017A01690158014701360125014E
S11300A014010301F200E100D000BF00AE002020E3
S11300B02020202020202020283E203C2920002011
S11300C02020202020207C5F5F284F2E6F292000D5
S11300D0202020202020207C2020285C5F2F292025
S11300E000202020202020205E20202020202020EE
S11300F0200020602D2D2D2D2D2D2D2D2D2D2D2D40
S1130100272000207C2050696E6720506F6E672185
S1130110207C2000202E2D2D2D2D2D2D2D2D2D2D0F
S11301202D2D2E20002020285F5F5F295F5F2E7C0D
S11301305F5F5F5F5F0020285F5F5F5F292E5F5F07
S11301407C202020202000285F5F5F5F297C202006
S1130150207C20202020200020285F5F5F5F292052
S113016020607C20202020200020205F5F5F5F5CD7
S1130170205C20205F5F5F5F5F0020202020207CC8
S1130180205C20202020202020202000202020204F
S113019020202F7C202020202020202000506F6B46
S11301A0656D6F6E0043616E74696E612042616EAD
S11301B064005465747269730048617272792050E6
S11301C06F7474657200536F6E6773005269676869
S11301D07420536C69646572004C65667420536CBA
S11301E0696465720043616C696220536C6964657B
S11301F072730043616C6962204A6F797374696336
S11302006B005265736574204869676873636F7225
S1130210650053746F7265204869676873636F7211
S1130220650053657474696E677300486967687321
S1130230636F72650050696E6750616E6700506944
S11302406E67506F6E670047616D657300726F6F04
S11302507400000000000000000000065F5F06005C
S113026000000007070007070000147F7F147F7F4A
S11302701400242E6B6B3A120000466630180C668C
S11302806200307A4F5D377A4800040703000000AB
S11302900000001C3E63410000000041633E1C005E
S11302A00000082A3E1C1C3E2A0808083E3E080896
S11302B0000000A0E060000000000808080808082A
S11302C0000000006060000000006030180C0603AD
S11302D001003E7F594D7F3E000042427F7F4040F7
S11302E00000627359496F660000226349497F36F2
S11302F00000181C16137F7F1000276745457D39C1
S113030000003C7E4B4979300000036371190F07EC
S11303100000367F49497F360000064F49693F1E79
S1130320000000006C6C0000000000A0EC6C0000F9
S11303300000081C36634100000014141414141443
S11303400000004163361C080000020351590F06E7
S113035000003E7F415D5D1F1E007C7E13137E7C8A
S11303600000417F7F49497F36001C3E6341416361
S11303702200417F7F41637F1C00417F7F495D41B3
S11303806300417F7F491D0103001C3E634151739B
S113039072007F7F08087F7F000000417F7F41005B
S11303A00000307040417F3F0100417F7F081C778F
S11303B06300417F7F41406070007F7F060C067FB1
S11303C07F007F7F060C187F7F001C3E6341633EE5
S11303D01C00417F7F49090F06001E3F21717F5E8B
S11303E00000417F7F19396F460026674D597B32E3
S11303F0000003417F7F410300007F7F40407F7FF7
S113040000001F3F60603F1F00007F7F3018307F77
S11304107F0063771C081C776300074F78784F07C9
S113042000006773594D47637100007F7F414100AD
S113043000000103060C183060000041417F7F007A
S11304400000080C0603060C080080808080808071
S113045080800000030704000000207454543C789A
S11304604000413F7F44447C3800387C44446C283D
S11304700000307848493F7F4000387C54545C1871
S11304800000487E7F490302000098BCA4A4F87CC5
S11304900400417F7F08047C780000447D7D400097
S11304A0000040C484FD7D000000417F7F10386C53
S11304B0440000417F7F400000007C7C0C180C7CD1
S11304C078007C7C04047C780000387C44447C38CC
S11304D0000084FCF8A4243C1800183C24A4F8FC74
S11304E08400447C78441C180000485C54547424F0
S11304F0000000043E7F442400003C7C40403C7CDF
S113050040001C3C60603C1C00003C7C6030607C13
S11305103C00446C3810386C44009CBCA0A0FC7CAB
S113052000004C64745C4C64000008083E77414150
S1130530000000000077770000004141773E080882
S11305400000020301030203010011241FBECFEFC8
S1130550D4E0DEBFCDBF13E0A0E0B1E0E4E7FDE30B
S113056002C005900D92A234B107D9F723E0A2E4AA
S1130570B3E001C01D92A13AB207E1F70E947912DB
S11305800C94B81E0C9400008BB780628BBF089546
S113059090E0909301148093001480914203909111
S11305A04303892BD1F3809128149091291410923C
S11305B043031092420308951F920F920FB60F92B5
S11305C011248F939F9381E090E090934303809351
S11305D042039F918F910F900FBE0F901F9018951B
S11305E00E94900860E88FE00E94B90860E680E607
S11305F00E94B90861E08BE20E94B90860E08FE0D4
S11306000E94B908F89485B7886085BF8BB7806469
S11306108BBF78940895EF92FF920F931F93CF931B
S1130620DF93CDB7DEB72B970FB6F894DEBF0FBEBE
S1130630CDBFE982FA820B831C832D833E834F83D3
S1130640588769877A878B87E980FA8080E30E94DC
S1130650D20883FD37C0B70176956795769567957F
S11306607695679581E30E94B9086E2D6295660FB1
S1130670607E82E30E94B908602F6F7085E30E9458
S1130680B908002379F07E0184E0E80EF11C0A5CCD
S113069016E3F70161917F01812F0E94B9081F5F62
S11306A01013F7CF81E00E94E0082B960FB6F89460
S11306B0DEBF0FBECDBFDF91CF911F910F91FF9091
S11306C0EF90089580E30E94D20884FFEECF83E187
S11306D091E00E94B91BE9CF60918A03709188036D
S11306E0A0918903F0914C03472F50E080914E0371
S11306F090E08F0F911D20914603309147037F377F
S113070009F449C0E62F7723D9F0AB3009F066C06D
S1130710613009F44FC0613008F447C0623009F415
S1130720BFC0633001F5E0938A03309347032093FD
S11307304603AF5F715070938803A09389030895B3
S1130740AB3009F074C0613059F0613028F0623088
S113075009F4A6C0633039F462E0E62F6130A9F7EA
S113076060E0E62FFBCF60938A0330934703209326
S1130770460308956330B9F7AF3309F464C0AD3369
S113078091F67F1708F477C0841795070CF473C0AB
S11307902F5F3F4F61E0E62F613009F48EC008F40B
S11307A068C0623039F763E0F6CF62E0E62F61306B
S11307B009F0B1CF63E0E62FFACFAF3309F443C0B9
S11307C0AD3309F06DC07F1708F48AC0841795070C
S11307D00CF486C02F5F3F4F60E0E62F613009F4D0
S11307E06FC008F450C0623041F3633009F0BBCFEE
S11307F0AF3349F1AD3309F096CF7F17E0F1841799
S11308009507CCF12F5F3F4F61E0E62FE7CFAF3381
S1130810D1F0AD3309F044C01F1608F461C0841749
S113082095070CF45DC02F5F3F4F60E0E62F613009
S113083009F453C040F1623051F3633009F093CFAF
S113084062E0E62FF4CF80910601909107010197B1
S11308509093070180930601109288038EE18093A0
S1130860890382E080938A0310924703109246031F
S1130870089561E090CFE0938A0330934703209377
S11308804603AEE357CF60938A0330934703209324
S113089046037F5F70938803A150A0938903089552
S11308A0E0938A033093470320934603AF5F7F5F4F
S11308B070938803A09389030895AB3009F473CF30
S11308C0E0938A0330934703209346037150709357
S11308D08803A150A0938903089560E0E62FA7CF71
S11308E0E0938A033093470320934603AEE3DFCFBC
S11308F09F92AF92BF92CF92DF92EF92FF920F93AB
S11309001F93CF93DF93A090880390908903C92D00
S1130910D0E0AA2DB0E010918A0342E553E002E052
S11309206EE070E0CC24C394D12C92E0E92EF12C3B
S1130930FA0180E190E02081318122303105A1F07B
S11309400F2EFDEFBF2EF02DB80E113009F443C069
S1130950B0F1123019F1133039F4A617B70709F4BE
S113096060C09B1409F445C0329605968F319105F9
S113097011F7625F7F4F025F4A5F5F4F0038C1F635
S113098010938A03DF91CF911F910F91FF90EF9005
S1130990DF90CF90BF90AF909F900895A01609F478
S11309A053C09B10E1CFA016F8F26A177B07E4F25C
S11309B010E02130310541F5F182E082D5CF0A15EE
S11309C0C9F1C817D90781F6A01670F26A177B0718
S11309D05CF212E016C0A617B707E1F0C817D907F2
S11309E019F6A01608F26A177B070CF4BDCF13E0C2
S11309F008C0A01608F4B8CF6A177B070CF4B4CF6C
S1130A0011E021303105C1F2232B09F0ADCFD182A1
S1130A10C082AACF9B1410F38C179D07FCF210E040
S1130A20C8CF9B1408F49DCF8C179D070CF499CF65
S1130A3012E0E7CF9B1418F08C179D070CF7C8172A
S1130A40D90709F091CFC2CF9B1418F08C179D07DA
S1130A5074F69B1089CFA9CF2F923F924F925F9249
S1130A606F927F928F929F92AF92BF92CF92DF92BA
S1130A70EF92FF920F931F93CF93DF9300D000D098
S1130A8000D0CDB7DEB7109288038EE1809389033E
S1130A9082E080938A038FE080934C038DE38093FC
S1130AA04D0384E180934E0381E080934F03809350
S1130AB05003109253031092520310925503109254
S1130AC05403109257031092560310925903109234
S1130AD0580310925B0310925A0310925D03109214
S1130AE05C0310925F0310925E03109261031092F4
S1130AF060031092630310926203109265031092D4
S1130B0064031092670310926603109269031092B3
S1130B10680310926B0310926A0310926D03109293
S1130B206C0310926F0310926E0310927103109273
S1130B307003109273031092720310927503109253
S1130B407403109277031092760310927903109233
S1130B50780310927B0310927A0310927D03109213
S1130B607C0310927F0310927E03109281031092F3
S1130B7080031092830310928203109285031092D3
S1130B80840310928703109286038091060190914A
S1130B900701712C74E1C72ED12CE5E08E2EF3E011
S1130BA09F2EA3E0AA2EBCE0BB2E97FD22C00E947C
S1130BB07C15772009F445C00E947C150E94D71348
S1130BC0182F0E94D713823009F42BC17724739411
S1130BD0113009F443C10E945115EFEFFFE2319740
S1130BE0F1F700C00000809106019091070197FF82
S1130BF0DECF0E947C150E945115FFEF2FEF8DE18F
S1130C00F15020408040E1F700C000000E947C15B4
S1130C100E94511505C00E94D713823009F401C106
S1130C20EFEFFFE23197F1F700C000000E94D71305
S1130C30813089F783E090E0909307018093060167
S1130C40B4CF0E94D71380935103809144039091B1
S1130C504503843191050CF0FDC094E1981B9093F9
S1130C604E038091460390914703B6010E94181ADF
S1130C7090934503809344034090060150900701EC
S1130C801414150444F516E7E12CF12C22242394C2
S1130C9064E0362E2C828A82412F55E069E071E0AF
S1130CA084E00E940C0B9D823B8245E0410F5A81F7
S1130CB064E07C8183E00E940C0B412F5A816B819C
S1130CC07C818D810E940C0B2FEFE21AF20A1B50DB
S1130CD0E414F504F9F619828BE08A831D8240E05E
S1130CE05BE06FE771E080E00E94110A49815A815C
S1130CF061E074E38D810E94110A49815FE36FE72B
S1130D0071E08D810E94110A4FE75BE061E075E3B9
S1130D108D810E94110A40914C0350914D036091C2
S1130D204E0370914F03809150030E94110AE0908A
S1130D300601F09007011E141F044CF526E7622EED
S1130D4000E010E02224239434E0332E2C828A82A3
S1130D50462D55E069E071E084E00E940C0B9D8211
S1130D603B8245E0460D5A8164E07C8183E00E9429
S1130D700C0B462D5A816B817C818D810E940C0B5A
S1130D800F5F1F4F85EF680E0E151F05F9F642E53C
S1130D90E42E43E0F42E52E0652E87019DE0698243
S1130DA09A83AC82BB82F80180810E5F1F4F8D83D2
S1130DB0462D592F6CE073E09E830E94110A9E8198
S1130DC09B5F9C3161F7F6E0EF0EF11C2EE0620EA2
S1130DD080E86812E2CF80918803909189030E9491
S1130DE0DA0A0E9478040E946C03809151038130D6
S1130DF0B9F1823069F420914C0380914E0390E064
S1130E00820F911D8F3791051CF42E5F20934C03A4
S1130E100E94511580E090E00E94C5138111CCCE50
S1130E20DCCE26960FB6F894DEBF0FBECDBFDF91A1
S1130E30CF911F910F91FF90EF90DF90CF90BF90D3
S1130E40AF909F908F907F906F905F904F903F9066
S1130E502F90089581E080934E0303CF712CBBCE75
S1130E6080914C038230A0F2825080934C030E9404
S1130E70511580E090E00E94C51381119DCEADCE46
S1130E804F925F926F927F928F929F92AF92BF9296
S1130E90CF92DF92EF92FF920F931F93CF93DF9342
S1130EA0CDB7DEB7C92E162FA22E8DB69EB6662EEE
S1130EB0712C9301220F331F6DB77EB7621B730B26
S1130EC00FB6F8947EBF0FBE6DBF2DB73EB72F5F30
S1130ED03F4F91E090930801112309F41DC1D82ECE
S1130EE0A82FBC2D80E090E05D91850F911D5A2FB5
S1130EF05D195117C8F3B3010E94041A7727D90169
S1130F00ED2DFC2D08C011968C93119712968E2FFF
S1130F108D19811758F481918C9390E0861B970B5F
S1130F2097FFF1CF919581959109EDCF82E0809360
S1130F300801C9010196B901D12CD394D11609F144
S1130F405D2DDC01FC90A52FB0E0AA0FBB1FA20F02
S1130F50B31F1196EC901197EF1450F4FC01E0824A
S1130F601196FC921197FB01F080EC90E082FC92C8
S1130F705F5F5113E6CF02966E5F7F4FD394D11219
S1130F80DFCF442309F471C0C02ED12CB12C7901D8
S1130F90FFEFEF1AFF0AC3018B19910903970CF4B1
S1130FA0B42ED3011197AA0FBB1FA20FB31F119622
S1130FB08C918A1508F4B42EF301EC19FD093297CB
S1130FC00CF0101B112309F44AC0F90180E090E0F1
S1130FD050E06081860F911D5F5F32965113F9CF07
S1130FE0612E712CB3010E94041A7727F90150E095
S1130FF005C081835F5F3296511771F0808190E064
S1131000861B970B97FFF5CF919581959109818365
S11310105F5F32965113F2CF2701C901712C73948B
S11310207116E9F0572DD2016C91E52FF0E0EE0F27
S1131030FF1FE20FF31F7181761738F47C936183ED
S1131040DC016C9170817C9360835F5F5113EBCF03
S113105052E0450E511C029673947112E3CFB3947F
S1131060B41618F4612E712C96CFF90191819A155A
S113107070F1101B612E712C112309F44AC0D9019F
S113108080E090E020E03C91830F911D2F5F129649
S11310902113F9CF21E020930801B3010E94041A1F
S11310A0862F0FB6F8949EBE0FBE8DBEDF91CF91F2
S11310B01F910F91FF90EF90DF90CF90BF90AF9072
S11310C09F908F907F906F905F904F900895612EC6
S11310D0712CD3011197AA0FBB1FA20FB31F119636
S11310E08C91A81648F61123A1F080E007C0E82FE0
S11310F0F0E0EE0FFF1FE20FF31F9181A91610F429
S11311008150182F8F5F811790F3612E712C11116C
S1131110B6CF80E090E0BECF82E08093080131CF6B
S1131120CF93DF931F92CDB7DEB70E94FE09C49818
S113113080EC0E94070AC49A8CEC94E00197F1F7C2
S113114000C00000C49883E00E94070A8EE00E9459
S1131150070A0E940B0AC49A89838981807E803899
S113116021F086EE91E00E94B91B0F90DF91CF91A0
S113117008951F93CF93DF931F92CDB7DEB7182F37
S1131180C49882E069830E94070A812F0E94070A9B
S11311906981862F0E94070AC49A0F90DF91CF912C
S11311A01F910895CF93C82FC49883E00E94070A23
S11311B08C2F0E94070A0E940B0AC49ACF910895AB
S11311C0C49880680E94070AC49A0895CF93DF9355
S11311D0CDB7DEB72B970FB6F894DEBF0FBECDBFE9
S11311E00E947C1563E072E088E192E00E9494150D
S11311F00E945115CE0101966C018BE0982E93E06C
S1131200592E88248394612C22E0722E32E0432EDE
S1131210212C332433944AE0A42EB12CCDC0209148
S11312209303622F70E0E0918E03F0E0DF011A96E1
S1131230A617B7074CF04A5051098417950724F0B4
S11312403A976E177F07CCF4F601892D11928A958F
S1131250E9F75B821C832D83309194033E83E980FC
S1131260FA8003E04F81588569857A858B850E94D1
S11312700B0381E292E00E94B91BEFEFFFE231978A
S1131280F1F700C0000010919103812F90E040918C
S11312908C0350E09A01265F3F4F281739070CF45E
S11312A0AAC020919003622F70E0E0918B03F0E0DC
S11312B0DF011A96A617B7074CF04A505109841754
S11312C0950724F03A976E177F07CCF4F601892D21
S11312D011928A95E9F7E82C89826A827B821C83C1
S11312E02D83F62C02E03E814F81588569857A85ED
S11312F08B850E940B038EE292E00E94B91BEFEFF4
S1131300FFE23197F1F700C0000080E090E00E9416
S1131310C513811106C081E090E00E94C5138823A3
S113132089F18091090190910A01019790930A0132
S11313308093090181E090E00E94C5132091090186
S113134030910A01232BF1F4F601992D11929A950B
S1131350E9F7E42C49822A823B828C83F22C01E057
S1131360182F2D813E814F81588569857A858B851B
S11313700E940B03B0920A01A09209018CE392E04F
S11313800E94B91BEFEFFFE23197F1F700C00000B4
S11313908091920390919303A091940380938D0381
S11313A090938E03A0938F03809190039091910367
S11313B090938C0380938B030E94D71360939203C2
S11313C070939303809394030E946A1490939103FF
S11313D08093900310919203812F90E040918D03AC
S11313E050E09A01265F3F4F281739070CF017CFBA
S11313F02091930329CF2091900368CF8FEF87BB6F
S113140087B3806B87BB8DB181658DB908958FB922
S1131410779BFECF08958FEF8FB9779BFECF8FB167
S113142008952F923F924F925F926F927F928F9284
S11314309F92AF92BF92CF92DF92EF92FF920F935F
S11314401F93CF93DF93CDB7DEB72B970FB6F894E6
S1131450DEBF0FBECDBF842E4983652E5A836B83B6
S11314607C838D83912CA401460F511D5987488795
S1131470841695060CF069C0712C6301C70ED11C4B
S113148074011A0151E0251A310844244394512C63
S1131490B601615071097F836E836C147D040CF076
S11314A04BC02D813E2D83015701BB2410C0213038
S11314B0F8F0233039F4E814F90409F476C02E1452
S11314C03F0489F00F5F1F4F0C151D05ACF5402F2D
S11314D0213069F7E814F90459F06016710641F0F7
S11314E02E143F0429F06E817F816017710751F734
S11314F0403408F043C037FD41C0842F869586955B
S11315008695B501A0E88A9F600D711D1124E091B4
S11315100B01F0910C01E60FF71F80814770B201B7
S113152002C0660F771F4A95E2F7862B80830F5F10
S11315301F4F0C151D055CF27FEFE71AF70A48856B
S11315405985E416F5060CF4A8CF2B960FB6F8943B
S1131550DEBF0FBECDBFDF91CF911F910F91FF90E2
S1131560EF90DF90CF90BF90AF909F908F907F903F
S11315706F905F904F903F902F900895C8019927E6
S11315809F938F93BF92AF92ACE4B2E0BF93AF93BB
S11315902A873B870E94A51B0F900F900F900F90F6
S11315A00F900F902A853B858DCF6016710609F048
S11315B086CF9ECF292F9034F0F487FD1CC0392F9D
S11315C036953695369590E040E8349F800D911D10
S11315D01124E0910B01F0910C01E80FF91F308107
S11315E0277081E090E0022E01C0880F0A94EAF788
S11315F0382B308308951F922F931F928F938CE47E
S113160092E09F938F930E94A51B0F900F900F90D1
S11316100F900F900F900895EF92FF920F931F93E6
S1131620CF93DF93CDB7DEB72A970FB6F894DEBF1A
S11316300FBECDBFF42EE52E7D83823009F447C062
S113164098F1833001F1843089F4062F10E0E41A14
S11316505E2D5F0D4F2D602F71E08D810E94110A68
S113166002501109F3941016110694F32A960FB63A
S1131670F894DEBF0FBECDBFDF91CF911F910F91C4
S1131680FF90EF900895062F10E04F2D5E2D602FF0
S113169071E08D810E94110A02501109EA94F394B9
S11316A01016110694F3E2CF813001F7062F10E0F3
S11316B04F2D5E2D61E0702F8D810E94110A025022
S11316C01109E394FA941016110694F3CFCF062F60
S11316D010E0E41A5E2D5F0D4F2D61E0702F8D81B7
S11316E00E94110A02501109F3941016110694F382
S11316F0BDCF2F923F924F925F926F927F928F92C3
S11317009F92AF92BF92CF92DF92EF92FF920F938C
S11317101F93CF93DF93CDB7DEB72B970FB6F89413
S1131720DEBF0FBECDBF9E838D83009709F4B9C180
S1131730DC0117962C91222309F45BC11F823F819F
S1131740832F90E0880F991FAD81BE8115964D912E
S11317505C911697480F591FFA01A081B1818D81C0
S11317609E8114969C938E931397A081B181BA8322
S1131770A983109709F48DC117968C91882309F4D5
S113178032C1282F18863885832F90E0880F991F3F
S1131790A981BA8115964D915C911697480F591FEE
S11317A0FA01A081B18189819A8114969C938E93C8
S11317B01397A081B181BC83AB83109709F460C1F6
S11317C017968C91882309F404C1282F912C292C75
S11317D0822D90E0880F991FEB81FC814581568111
S11317E0480F591FFA01A081B1818B819C81149605
S11317F09C938E931397E080F180E114F10409F433
S113180037C1D70117968C91882309F4DAC0282FA1
S1131810912C2986392C832D90E0880F991FD701AC
S11318201596ED91FC911697E80FF91FA081B181EF
S11318301496FC92EE921397A080B180A114B10487
S113184009F40EC1F5018781882309F4B2C0282F59
S1131850512C852D90E0880F991FD5011596ED9197
S1131860FC911697E80FF91FA081B1811496BC92E0
S1131870AE921397808091808114910409F4E9C099
S1131880F4018781882309F48DC0282F412C842DED
S113189090E0880F991FD4011596ED91FC9116974D
S11318A0E80FF91FA081B18114969C928E92139730
S11318B0C080D180C114D10409F4C3C0F6013781BA
S11318C0332309F469C0612C862D90E0880F991F99
S11318D0D6011596ED91FC911697E80FF91FA0819A
S11318E0B1811496DC92CE92139700811181011577
S11318F0110509F49FC0F8012781222309F445C08A
S1131900712C872D90E0880F991FD8011596ED91C1
S1131910FC911697E80FF91FA081B18114961C93CE
S11319200E931397408151814115510509F47AC0F2
S1131930FA018781882319F1212C9A01822D90E0E4
S1131940880F991FD9011596ED91FC911697E80F10
S1131950F91FA081B18114963C932E931397808133
S113196091812A873B870E94790B23942A853B85A2
S1131970F9018781281610F3D80117962C917394D6
S1131980721608F4BECFF60137816394631608F427
S11319909BCFD40117962C914394421608F477CF29
S11319A0F50127815394521608F453CFD7011796A3
S11319B02C913394321608F42ECF2984EB81FC81C8
S11319C027812394221608F403CFA981BA8117969C
S11319D02C9138853F5F3887321708F4D5CEAD8116
S11319E0BE8117962C913F813F5F3F83321708F4E5
S11319F0A7CE2B960FB6F894DEBF0FBECDBFDF91F6
S1131A00CF911F910F91FF90EF90DF90CF90BF90F7
S1131A10AF909F908F907F906F905F904F903F908A
S1131A202F90089580E792E00E94B91BD801179681
S1131A302C91A5CF80E792E00E94B91BF601378173
S1131A40A4CF80E792E00E94B91BD40117962C9191
S1131A50A3CF80E792E00E94B91BF5012781A2CFB2
S1131A6080E792E00E94B91BD70117962C91A1CF71
S1131A7080E792E00E94B91BEB81FC812781A1CF12
S1131A8080E792E00E94B91BA981BA8117962C9134
S1131A90A0CF80E792E00E94B91BED81FE812781EF
S1131AA0A2CF80E792E02B960FB6F894DEBF0FBE6C
S1131AB0CDBFDF91CF911F910F91FF90EF90DF90F9
S1131AC0CF90BF90AF909F908F907F906F905F90DA
S1131AD04F903F902F900C94B91BFF920F931F933C
S1131AE0CF93DF9388E090E00E942C1AEC010097DA
S1131AF009F48AC388E090E00E942C1A9E838D83A7
S1131B00009709F468C28C0184E08F8318821A82DA
S1131B101982D0934903C093480388E090E00E945F
S1131B202C1AEC01009709F423C484E090E00E948D
S1131B302C1A9E838D83892B09F45CC232E0F32E28
S1131B40FF8281E088831A821982F801D183C083DD
S1131B50E0914803F09149030580F681E02D01905E
S1131B60F081E02D0581168188E090E00E942C1A16
S1131B70EC01009709F4C5C380E090E00E942C1AA0
S1131B809E838D83892B09F443C21F8282E088835C
S1131B908CE295E09A838983F801D183C083E09134
S1131BA04803F09149030580F681E02D0190F0810E
S1131BB0E02D0581168188E090E00E942C1AEC014A
S1131BC0009709F4ABC380E090E00E942C1A9E8336
S1131BD08D83892B09F42AC21F8283E0888386EED1
S1131BE098E09A838983F801D383C283E091480300
S1131BF0F09149030581168188E090E00E942C1A37
S1131C00EC01009709F498C380E090E00E942C1A3C
S1131C109E838D83892B09F417C21F8284E08883F5
S1131C2083E493E19A838983F801D383C283E091A7
S1131C304803F09149030581168188E090E00E94F1
S1131C402C1AEC01009709F485C388E090E00E9407
S1131C502C1A9E838D83892B09F404C284E08F831C
S1131C6085E088831A821982F801D583C483E091C0
S1131C704803F09149030580F681E02D0480F58145
S1131C80E02D0581168188E090E00E942C1AEC0179
S1131C90009709F4FEC280E090E00E942C1A9E8313
S1131CA08D83892B09F4ECC11F8286E0888385E447
S1131CB093E19A838983F801D183C083E091480337
S1131CC0F09149030580F681E02D0480F581E02D33
S1131CD00581168188E090E00E942C1AEC0100979F
S1131CE009F4E5C280E090E00E942C1A9E838D8363
S1131CF0892B09F4D3C11F8287E0888384E493E1AC
S1131D009A838983F801D383C283E0914803F091D5
S1131D1049030580F681E02D0480F581E02D0581DD
S1131D20168188E090E00E942C1AEC01009709F4D7
S1131D30CCC280E090E00E942C1A9E838D83892B74
S1131D4009F4BAC11F8288E0888386ED93E19A83FF
S1131D508983F801D583C483E0914803F091490352
S1131D600580F681E02D0480F581E02D0581168142
S1131D7088E090E00E942C1AEC01009709F4B3C2A9
S1131D8084E090E00E942C1A9E838D83892B09F4B1
S1131D90A1C182E08F8389E088831A821982F801C5
S1131DA0D783C683E0914803F09149030580F68107
S1131DB0E02D0480F581E02D0580F681E02D06807C
S1131DC0F781E02D0581168188E090E00E942C1AAD
S1131DD0EC01009709F425C280E090E00E942C1ADF
S1131DE09E838D83892B09F483C11F828AE08883B3
S1131DF01A821982F801D183C083E0914803F091DB
S1131E0049030580F681E02D0480F581E02D0580ED
S1131E10F681E02D0680F781E02D0581168188E0AA
S1131E2090E00E942C1AEC01009709F408C280E0AB
S1131E3090E00E942C1A9E838D83892B09F466C13D
S1131E401F828BE088831A821982F801D383C283AC
S1131E50E0914803F09149030581168188E090E000
S1131E600E942C1AEC01009709F4F7C188E090E075
S1131E700E942C1A9E838D83892B09F455C184E01A
S1131E808F838CE088831A821982F801D783C683F2
S1131E90E0914803F09149030580F681E02D068026
S1131EA0F781E02D0581168188E090E00E942C1ACC
S1131EB0EC01009709F4DFC180E090E00E942C1A45
S1131EC09E838D83892B09F43DC11F828DE0888315
S1131ED01A821982F801D183C083E0914803F091FA
S1131EE049030580F681E02D0680F781E02D058108
S1131EF0168188E090E00E942C1AEC01009709F406
S1131F0059C180E090E00E942C1A9E838D83892B16
S1131F1009F426C11F828EE088831A821982F8018F
S1131F20D383C283E0914803F09149030580F6818D
S1131F30E02D0680F781E02D0581168188E090E090
S1131F400E942C1AEC01009709F442C180E090E051
S1131F500E942C1A9E838D83892B09F40FC11F8242
S1131F608FE088831A821982F801D583C483E091B3
S1131F704803F09149030580F681E02D0680F7813E
S1131F80E02D0581168188E090E00E942C1AEC0176
S1131F90009709F42BC180E090E00E942C1A9E83E4
S1131FA08D83892B09F4F8C01F8280E188831A820B
S1131FB01982F801D783C68380914803909149031D
S1131FC00E94790B83EB92E0DF91CF911F910F91E7
S1131FD0FF900C94B91B1F921F9281E992E09F938A
S1131FE08F930E94A51B0D811E810F900F900F905F
S1131FF00F908ACD1F9281E08F9381E992E09F93A5
S11320008F930E94A51B0F900F900F900F9096CD69
S11320101F9282E08F9381E992E09F938F930E94B5
S1132020A51B0F900F900F900F90AFCD1F9283E0E0
S11320308F9381E992E09F938F930E94A51B0F9049
S11320400F900F900F90C8CD1F9284E08F9381E979
S113205092E09F938F930E94A51B0F900F900F9077
S11320600F90DBCD1F9285E08F9381E992E09F93DF
S11320708F930E94A51B0F900F900F900F90EECDA1
S11320801F9286E08F9381E992E09F938F930E9441
S1132090A51B0F900F900F900F9006CE1F9287E014
S11320A08F9381E992E09F938F930E94A51B0F90D9
S11320B00F900F900F901FCE1F9288E08F9381E9AD
S11320C092E09F938F930E94A51B0F900F900F9007
S11320D00F9038CE1F9289E08F9381E992E09F930D
S11320E08F930E94A51B0F900F900F900F9051CECD
S11320F01F928AE08F9381E992E09F938F930E94CD
S1132100A51B0F900F900F900F906FCE1F928BE036
S11321108F9381E992E09F938F930E94A51B0F9068
S11321200F900F900F908CCE1F928CE08F9381E9CB
S113213092E09F938F930E94A51B0F900F900F9096
S11321400F909DCE1F928DE08F9381E992E09F9333
S11321508F930E94A51B0F900F900F900F90B5CEF8
S11321601F928EE08F9381E992E09F938F930E9458
S1132170A51B0F900F900F900F90CCCE1F928FE065
S11321808F9381E992E09F938F930E94A51B0F90F8
S11321900F900F900F90E3CE1F9280E18F9381E90F
S11321A092E09F938F930E94A51B0F900F900F9026
S11321B00F90FACE1F928EE08F938AE792E09F935E
S11321C08F930E94A51B0F900F900F900F9099CEA4
S11321D01F928FE08F938AE792E09F938F930E94E0
S11321E0A51B0F900F900F900F90B0CE1F9280E11F
S11321F08F938AE792E09F938F930E94A51B0F9081
S11322000F900F900F90C7CE1F921F928AE792E013
S11322109F938F930E94A51B0F900F900F900F9088
S113222069CC1F928AE08F938AE792E09F938F9301
S11322300E94A51B0F900F900F900F90CDCD1F9271
S11322408BE08F938AE792E09F938F930E94A51B64
S11322500F900F900F900F90EACD1F928CE08F9308
S11322608AE792E09F938F930E94A51B0F900F9093
S11322700F900F90FBCD1F928DE08F938AE792E031
S11322809F938F930E94A51B0F900F900F900F9018
S113229013CE1F9286E08F938AE792E09F938F93E9
S11322A00E94A51B0F900F900F900F90F4CC1F92DB
S11322B087E08F938AE792E09F938F930E94A51BF8
S11322C00F900F900F900F900DCD1F9288E08F9379
S11322D08AE792E09F938F930E94A51B0F900F9023
S11322E00F900F9026CD1F9289E08F938AE792E09A
S11322F09F938F930E94A51B0F900F900F900F90A8
S11323003FCD1F92FF928AE792E09F938F930E94A2
S1132310A51B0F900F900F900F902ECC1F9283E06F
S11323208F938AE792E09F938F930E94A51B0F904F
S11323300F900F900F9047CC1F9284E08F938AE701
S113234092E09F938F930E94A51B0F900F900F9084
S11323500F905ACC1F9285E08F938AE792E09F9367
S11323608F930E94A51B0F900F900F900F906DCC30
S11323701F9281E08F938AE792E09F938F930E944C
S1132380A51B0F900F900F900F90CFCB2091480377
S1132390309149032115310511F0C90108950E94B6
S11323A06D0D80914803909149030895CF93DF9375
S11323B0DC011396ED91FC911497309701F167813C
S11323C070E06150710916161706CCF4C581D681E8
S11323D0888199818A179B0709F180E00AC0F90175
S11323E0EE0FFF1FEC0FFD1F408151814A175B0761
S11323F051F08F5F282F30E02617370784F3CD0183
S1132400DF91CF9108952F5F3F4F220F331FC20FEB
S1132410D31F88819981DF91CF91089522E030E024
S1132420F6CF1F93CF93DF93DC011396ED91FC91CC
S113243014973097D1F017811230B8F0C581D68146
S11324408A819B818A179B0709F1FE01349622E059
S113245030E009C041915191B9016F5F7F4F4A1734
S11324605B0741F09B012117A8F3CD01DF91CF91C8
S11324701F91089521503048220F331FC20FD31FDC
S113248088819981DF91CF911F91089520E030E0F8
S1132490F5CFFC018781861758F070E0660F771F2F
S11324A00580F681E02DE60FF71F80819181089564
S11324B0CF010895FC0183819481009709F0089568
S11324C0CF0108950E94E9190E94D3190E94C40201
S11324D00E94C1130E94F00278940E94BE140E94CC
S11324E0C611909396038093950384EC92E00C9428
S11324F0B91B0E9462120E94721839C0833009F419
S113250099C0843009F075C040914A03E091950365
S1132510F0919603242F30E0878190E001972817EB
S1132520390709F4ACC021E0240F822F90E0880F12
S1132530991F20934A030580F681E02DE80FF91FC7
S1132540808191810E94D611809195039091960388
S11325500E94F51680914A030E946516BFEFEFE7CB
S1132560F4E0B150E040F040E1F700C000000E9408
S1132570D7136093920370939303809394038FEF24
S11325809FE20197F1F700C000008091940382302C
S1132590A9F108F0B3CF813061F5E0919503F09192
S11325A0960383819481892B09F467C0CF010E942B
S11325B05A12809395039093960310924A03C8CFBE
S11325C080919503909196030E944912FC018181A8
S11325D09281892B71F060914A03809195039091C7
S11325E096030E944912DC011196ED91FC91129719
S11325F009958091950390919603AACF60914A031F
S113260080919503909196030E944912DC011796DC
S11326108C9160914A03882399F28091950390915B
S113262096030E9449128093950390939603109207
S11326304A038ECF80914A03811119C0E09195031A
S1132640F09196038781815080934A0390E0880F2C
S1132650991F0580F681E02DE80FF91F8081918193
S11326600E941112809195039091960371CF81502D
S1132670E0919503F0919603E7CFCF0169CF80E015
S113268090E020E056CF0895089508951F920F9288
S11326900FB60F921124BF92CF92DF92EF92FF9266
S11326A00F931F932F933F934F935F936F937F9356
S11326B08F939F93AF93BF93EF93FF93CF93DF9346
S11326C0CDB7DEB72B97DEBFCDBF60E08CE20E94B2
S11326D0B90881E60E94D208E82E82E60E94D20858
S11326E0F12CEE0CFF1CEE0CFF1CEE0CFF1C829573
S11326F086958770E82A85E60E94D208B82E88233A
S113270089F08E010C5F1F4F56E6C52EC80E66E693
S1132710D62E8D2D0E94D208F80181938F01D39477
S1132720DC10F7CF60E08CE20E94B9088C8195E060
S1132730E916F10419F4F1E0BF1601F12B960FB676
S1132740F894DEBF0FBECDBFDF91CF91FF91EF9123
S1132750BF91AF919F918F917F916F915F914F91B5
S11327603F912F911F910F91FF90EF90DF90CF90A9
S1132770BF900F900FBE0F901F90189580934B033E
S1132780DDCF87B38C7F87BB089596B321E030E01B
S113279002C0220F331F8A95E2F7892F90E0282385
S11327A0392381E0232B09F480E008950895DF9212
S11327B0EF92FF920F931F93CF93DF93CDB7DEB7C2
S11327C02F970FB6F894DEBF0FBECDBF7E0180E118
S11327D0E80EF11C8E010F5F1F4F84E00E94C802B7
S11327E0F80181938F01F0E1FA95F1F700C00E151D
S11327F01F0599F704E022E042E06FE0CE01019664
S11328000E944007D82E8E010F5F1F4F85E00E9463
S1132810C802F80181938F01F0E1FA95F1F700C045
S11328200E151F0599F704E022E042E06FE0CE01A7
S113283001960E944007782FE82FF0E04D2D50E0DC
S11328402FEF30E0241B350BE217F307E4F08D156E
S1132850A8F582E090910E0120910D0130E0290F3E
S1132860311D24173507E4F46D2D2F960FB6F89417
S1132870DEBF0FBECDBFDF91CF911F910F91FF90AF
S1132880EF90DF9008958D1568F020910E0130E0EF
S113289080910D01281B310981E04217530724F36D
S11328A080E0E2CF20910F0130E080910D01281BE0
S11328B03109E217F307A4F784E0D6CF83E09091BF
S11328C00F0120910D0130E0290F311D2E173F0714
S11328D05CF2E6CFDF92EF92FF920F931F93CF93B8
S11328E0DF93CDB7DEB72F970FB6F894DEBF0FBED8
S11328F0CDBF7E0180E1E80EF11C8E010F5F1F4FFA
S113290087E00E94C802F80181938F01F0E1FA95F3
S1132910F1F700C00E151F0599F704E022E042E02C
S11329206FE0CE0101960E944007D82E8E010F5F02
S11329301F4F86E00E94C802F80181938F01F0E1E5
S1132940FA95F1F700C00E151F0599F704E022E08F
S113295042E06FE0CE0101960E944007982F8D2D32
S11329602F960FB6F894DEBF0FBECDBFDF91CF9187
S11329701F910F91FF90EF90DF9008958EEA80935E
S1132980011081EA809301108AED8093011082E1A5
S11329908093011088EC8093011088EA80930110E1
S11329A08FE38093011085ED8093011080E880937C
S11329B0011081E88093011080E58093011089ED76
S11329C08093011081E28093011080E280930110D2
S11329D082E0809301108BED8093011080E380935B
S11329E001108DEA809301101092011084EA809303
S11329F0011086EA809301108FEA8093011083ED21
S1132A00809301101092011080E48093011080EBF8
S1132A10809301101092011080E18093011040E036
S1132A2050E080E890E040585F4F9A01281B390B32
S1132A30E0911101F0911201E20FF31F108201974E
S1132A40009799F7411584E0580759F780EB809374
S1132A5001101092011080E18093011040E050E0D9
S1132A6060E070E180E890E040585F4F9A01281BD5
S1132A70390BE0911101F0911201E20FF31F208153
S1132A80209301120197009789F76F5F862F806B5F
S1132A90809301101092011070930110683011F7A7
S1132AA0089580EB809301101092011080E18093CF
S1132AB0011040E050E060E070E180E890E04058B0
S1132AC05F4F9A01281B390BE0911101F09112011B
S1132AD0E20FF31F2081209301120197009789F7D9
S1132AE06F5F862F806B809301101092011070939A
S1132AF00110683011F7089540E050E080E890E05C
S1132B0040585F4F9A01281B390BE0911101F09155
S1132B101201E20FF31F10820197009799F74115F4
S1132B2084E0580759F708950F931F93CF93DF93C9
S1132B30DC01EC91EE2309F4C3C0B0E86B9F900173
S1132B401124DC0140E08901070F111DC09111011E
S1132B50D0911201C00FD11FF0E0EE0FFF1FEE0F56
S1132B60FF1FEE0FFF1FEE5AFE4FE491E88351E082
S1132B70570FF901E50FF11DC0911101D091120118
S1132B80CE0FDF1FEC91F0E0EE0FFF1FEE0FFF1FE3
S1132B90EE0FFF1FED5AFE4FE491E88352E0570F0A
S1132BA0F901E50FF11DC0911101D0911201CE0F71
S1132BB0DF1FEC91F0E0EE0FFF1FEE0FFF1FEE0F93
S1132BC0FF1FEC5AFE4FE491E88353E0570FF901DD
S1132BD0E50FF11DC0911101D0911201CE0FDF1F3D
S1132BE0EC91F0E0EE0FFF1FEE0FFF1FEE0FFF1F43
S1132BF0EB5AFE4FE491E88354E0570FF901E50FD7
S1132C00F11DC0911101D0911201CE0FDF1FEC9183
S1132C10F0E0EE0FFF1FEE0FFF1FEE0FFF1FEA5A4B
S1132C20FE4FE491E88355E0570FF901E50FF11DDC
S1132C30C0911101D0911201CE0FDF1FEC91F0E091
S1132C40EE0FFF1FEE0FFF1FEE0FFF1FE95AFE4F9F
S1132C50E491E88356E0570FF901E50FF11DC091A7
S1132C601101D0911201CE0FDF1FEC91F0E0EE0FB5
S1132C70FF1FEE0FFF1FEE0FFF1FE85AFE4FE491F8
S1132C80E88357E0570FF901E50FF11DC0911101D9
S1132C90D0911201CE0FDF1FEC91F0E0EE0FFF1F79
S1132CA0EE0FFF1FEE0FFF1FE75AFE4FE491E8837C
S1132CB0785F4F5FDC01A40FB11DEC91E11143CFAC
S1132CC0DF91CF911F910F91089520E8829FC00159
S1132CD011249C0128583F4FA0911101B091120179
S1132CE0A20FB31FE2E3F3E0E491EC932F5F3F4FB5
S1132CF0A0911101B0911201A20FB31FE3E3F3E01D
S1132D00E491EC932F5F3F4FA0911101B091120118
S1132D10A20FB31FE4E3F3E0E491EC932F5F3F4F82
S1132D20A0911101B0911201A20FB31FE5E3F3E0EA
S1132D30E491EC932F5F3F4FA0911101B0911201E8
S1132D40A20FB31FE6E3F3E0E491EC932F5F3F4F50
S1132D50A0911101B0911201A20FB31FE7E3F3E0B8
S1132D60E491EC932F5F3F4FA0911101B0911201B8
S1132D70A20FB31FE8E3F3E0E491EC9381589F4F73
S1132D80A0911101B0911201A80FB91FE9E3F3E07A
S1132D90E491EC9380EB809301101092011080E198
S1132DA08093011040E050E060E070E180E890E042
S1132DB040585F4F9A01281B390BE0911101F091A3
S1132DC01201E20FF31F2081209301120197009753
S1132DD089F76F5F862F806B80930110109201102A
S1132DE070930110683011F70895EF92FF920F93DA
S1132DF01F93CF93DF93CDB7DEB760970FB6F894E8
S1132E00DEBF0FBECDBF8C0140E050E080E890E013
S1132E1040585F4F9A01281B390BE0911101F09142
S1132E201201E20FF31F10820197009799F74115E1
S1132E3084E0580759F70115110509F44EC1D8016A
S1132E4017968C91882309F40CC1E12CF12CF8011C
S1132E5085819681009709F43BC119821A821B82ED
S1132E601C821D821E821F82188619861A861B8662
S1132E701C861D861E861F86188AF701EE0FFF1F0B
S1132E80E80FF91F0190F081E02DE081F0E0EE0FF2
S1132E90FF1FE059FF4F65917491CE0101960E9486
S1132EA0531BE981EE2309F4D2C097013695322FE2
S1132EB022273795279582E090E0DE011196B9012B
S1132EC0680F711D4091110150911201460F571F57
S1132ED0F0E0EE0FFF1FEE0FFF1FEE0FFF1FEE5A85
S1132EE0FE4F6491FA01608341E0480FB901640F19
S1132EF0711D4091110150911201460F571FEC9121
S1132F00F0E0EE0FFF1FEE0FFF1FEE0FFF1FED5A55
S1132F10FE4F6491FA01608342E0480FB901640FE7
S1132F20711D4091110150911201460F571FEC91F0
S1132F30F0E0EE0FFF1FEE0FFF1FEE0FFF1FEC5A26
S1132F40FE4F6491FA01608343E0480FB901640FB6
S1132F50711D4091110150911201460F571FEC91C0
S1132F60F0E0EE0FFF1FEE0FFF1FEE0FFF1FEB5AF7
S1132F70FE4F6491FA01608344E0480FB901640F85
S1132F80711D4091110150911201460F571FEC9190
S1132F90F0E0EE0FFF1FEE0FFF1FEE0FFF1FEA5AC8
S1132FA0FE4F6491FA01608345E0480FB901640F54
S1132FB0711D4091110150911201460F571FEC9160
S1132FC0F0E0EE0FFF1FEE0FFF1FEE0FFF1FE95A99
S1132FD0FE4F6491FA01608346E0480FB901640F23
S1132FE0711D4091110150911201460F571FEC9130
S1132FF0F0E0EE0FFF1FEE0FFF1FEE0FFF1FE85A6A
S1133000FE4F6491FA01608347E0480FB901640FF1
S1133010711D4091110150911201460F571FEC91FF
S1133020F0E0EE0FFF1FEE0FFF1FEE0FFF1FE75A3A
S1133030FE4FE491DA01EC93885F9F5FA1E0B0E07A
S1133040AC0FBD1FA90FB11DEC91E11138CFBFEF3B
S1133050EB1AFB0AF801878190E0E816F9060CF4F4
S1133060F6CE80EB809301101092011080E18093E2
S1133070011040E050E060E070E180E890E04058EA
S11330805F4F9A01281B390BE0911101F091120155
S1133090E20FF31F2081209301120197009789F713
S11330A06F5F862F806B80930110109201107093D4
S11330B00110683011F760960FB6F894DEBF0FBEAA
S11330C0CDBFDF91CF911F910F91FF90EF900895A5
S11330D085E193E00E94B91BBACF82E293E00E949B
S11330E0B91BE9CFEF92FF920F931F93CF93DF9316
S11330F0CDB7DEB760970FB6F894DEBF0FBECDBF75
S113310040E050E080E890E040585F4F9A01281B6F
S1133110390BE0911101F0911201E20FF31F1082BB
S11331200197009799F7411524E0520759F7E0EA0F
S1133130EE2EE0E0FE2E00E010E019821A821B82DF
S11331401C821D821E821F82188619861A861B867F
S11331501C861D861E861F86188AF7016591749148
S1133160CE0101960E94531BE981EE2309F4D2C0DB
S1133170C8019695982F88279795879520E030E089
S1133180DE011196BC01620F711D40911101509135
S11331901201460F571FF0E0EE0FFF1FEE0FFF1F47
S11331A0EE0FFF1FEE5AFE4F6491FA01608341E077
S11331B0420FBC01640F711D409111015091120125
S11331C0460F571FEC91F0E0EE0FFF1FEE0FFF1FAD
S11331D0EE0FFF1FED5AFE4F6491FA01608342E047
S11331E0420FBC01640F711D4091110150911201F5
S11331F0460F571FEC91F0E0EE0FFF1FEE0FFF1F7D
S1133200EE0FFF1FEC5AFE4F6491FA01608343E016
S1133210420FBC01640F711D4091110150911201C4
S1133220460F571FEC91F0E0EE0FFF1FEE0FFF1F4C
S1133230EE0FFF1FEB5AFE4F6491FA01608344E0E6
S1133240420FBC01640F711D409111015091120194
S1133250460F571FEC91F0E0EE0FFF1FEE0FFF1F1C
S1133260EE0FFF1FEA5AFE4F6491FA01608345E0B6
S1133270420FBC01640F711D409111015091120164
S1133280460F571FEC91F0E0EE0FFF1FEE0FFF1FEC
S1133290EE0FFF1FE95AFE4F6491FA01608346E086
S11332A0420FBC01640F711D409111015091120134
S11332B0460F571FEC91F0E0EE0FFF1FEE0FFF1FBC
S11332C0EE0FFF1FE85AFE4F6491FA01608347E056
S11332D0420FBC01640F711D409111015091120104
S11332E0460F571FEC91F0E0EE0FFF1FEE0FFF1F8C
S11332F0EE0FFF1FE75AFE4FE491DA01EC933F5FB4
S1133300A1E0B0E0AC0FBD1FA30FB11DEC91285F8D
S1133310E11138CF0F5F1F4FB2E0EB0EF11C073005
S1133320110509F00ACF80EB80930110109201106F
S113333080E18093011040E050E060E070E180E8BB
S113334090E040585F4F9A01281B390BE09111011E
S1133350F0911201E20FF31F2081209301120197D3
S1133360009789F76F5F862F806B8093011010920E
S1133370011070930110683011F7EFEFFFEF2DE1AA
S1133380E150F0402040E1F700C0000060960FB625
S1133390F894DEBF0FBECDBFDF91CF911F910F9187
S11333A0FF90EF90089585B7806885BF80B78062ED
S11333B080BF80B710BE80B710BE08955D9BFECF5E
S11333C08CB980E090E008955F9BFECF8CB190E0D3
S11333D0089510BC8FE189B98AB188618AB980B532
S11333E0866880BD80B5877F80BD80B58F7B80BDBA
S11333F080B58F7E80BD80B58F7E80BD64EE79E11F
S11334008EED99E10C945A1BAA1BBB1B51E107C01A
S1133410AA1FBB1FA617B70710F0A61BB70B881F60
S1133420991F5A95A9F780959095BC01CD010895EF
S113343097FB072E16F4009407D077FD09D00E945D
S1133440041A07FC05D03EF4909581959F4F08958A
S1133450709561957F4F0895CF93DF9382309105E6
S113346010F482E090E0E0919903F0919A0320E057
S113347030E0A0E0B0E0309739F140815181481745
S11334805907B8F04817590771F48281938110974E
S113349029F013969C938E9312972CC090939A03C1
S11334A08093990327C02115310531F04217530742
S11334B018F0A901DB0101C0EF019A01BD01DF0190
S11334C00280F381E02DD7CF21153105F9F0281BB7
S11334D0390B2430310580F48A819B816115710593
S11334E021F0FB019383828304C090939A03809319
S11334F09903FE01329644C0FE01E20FF31F81934B
S1133500919322503109398328833AC0209197033B
S113351030919803232B41F420910201309103014F
S11335203093980320939703209100013091010177
S11335302115310541F42DB73EB740910401509156
S11335400501241B350BE0919703F0919803E217D2
S1133550F307A0F42E1B3F0B2817390778F0AC01B2
S11335604E5F5F4F2417350748F04E0F5F1F50938F
S11335709803409397038193919302C0E0E0F0E0B5
S1133580CF01DF91CF910895CF93DF93009709F492
S113359087C0FC01329713821282C0919903D091A3
S11335A09A03209781F420813181280F391F80915B
S11335B09703909198038217930779F5F0939803F2
S11335C0E09397036DC0DE0120E030E0AE17BF0743
S11335D050F412964D915C9113979D01411551053C
S11335E009F1DA01F3CFB383A28340815181840FBF
S11335F0951F8A179B0771F48D919C911197840FE5
S1133600951F02969183808312968D919C911397B6
S1133610938382832115310529F4F0939A03E0936F
S113362099033EC0D9011396FC93EE9312974D91E2
S11336305D91A40FB51FEA17FB0779F4808191818E
S1133640840F951F0296D90111969C938E938281C3
S1133650938113969C938E931297E0E0F0E08A8115
S11336609B81009719F0FE01EC01F9CFCE0102967F
S113367028813981820F931F2091970330919803F9
S11336802817390769F4309729F410929A03109295
S1133690990302C013821282D0939803C0939703B4
S11336A0DF91CF910895FB01DC0105900D9200207C
S11336B0E1F708950F931F93CF93DF93EC018B01F0
S11336C0009731F46115710519F480E090E038C079
S11336D06EE070E081E090E00E94B81DFC0100976C
S11336E0A1F380E883830115110571F01387028724
S11336F081E8838380919B0390919C03892B21F41F
S1133700F0939C03E0939B032097C9F0D187C08773
S113371083818260838380919D0390919E03892B92
S113372071F4F0939E03E0939D0380919F03909125
S1133730A003892B21F4F093A003E0939F03CF010E
S1133740DF91CF911F910F910895A0E0B0E0EBEAD3
S1133750FBE10C94911EFE01359661917191AF01CC
S113376080919D0390919E030E94E61BE2E00C94DD
S1133770AD1E0F931F93CF93DF93E0919D03F091C0
S11337809E03238121FF1BC0EC0100E010E089911E
S113379060919D0370919E03DB011896ED91FC915D
S11337A01997882331F00995892B89F30FEF1FEFBF
S11337B0EECF8AE00995892B11F4C80102C08FEF7E
S11337C09FEFDF91CF911F910F910895ACE0B0E08E
S11337D0ECEEFBE10C94811E7C016B018A01FC017F
S11337E017821682838181FFBDC1CE0101964C01EF
S11337F0F7019381F60193FD859193FF81916F0108
S1133800882309F4ABC1853239F493FD859193FF84
S113381081916F01853229F4B70190E00E94F11D76
S1133820E7CF512C312C20E02032A0F48B3269F008
S113383030F4803259F0833269F420612CC08D3227
S113384039F0803339F4216026C02260246023C01B
S1133850286021C027FD27C030ED380F3A3078F4B6
S113386026FF06C0FAE05F9E300D1124532E13C0CC
S11338708AE0389E300D1124332E20620CC08E3223
S113388021F426FD6BC1206406C08C3611F4206837
S113389002C0883641F4F60193FD859193FF81912E
S11338A06F018111C1CF982F9F7D9554933028F4D7
S11338B00C5F1F4FFFE3F9830DC0833631F083376C
S11338C071F0833509F05BC022C0F80180818983DF
S11338D00E5F1F4F44244394512C540115C03801EA
S11338E0F2E06F0E711CF801A080B18026FF03C0C6
S11338F0652D70E002C06FEF7FEFC5012C870E9439
S1133900E61D2C0183012C852F77222E17C0380148
S1133910F2E06F0E711CF801A080B18026FF03C095
S1133920652D70E002C06FEF7FEFC5012C870E9408
S1133930D41D2C012C852068222E830123FC1BC05E
S1133940832D90E048165906B0F4B70180E290E068
S11339500E94F11D3A94F4CFF50127FC859127FECE
S113396081915F01B70190E00E94F11D31103A94FA
S1133970F1E04F1A51084114510471F7E5C084363F
S113398011F0893639F5F80127FF07C0608171818C
S1133990828193810C5F1F4F08C0608171818827E9
S11339A077FD8095982F0E5F1F4F2F76B22E97FFCD
S11339B009C090958095709561957F4F8F4F9F4F6B
S11339C02068B22E2AE030E0A4010E94231EA82E13
S11339D0A81844C0853729F42F7EB22E2AE030E09F
S11339E025C0F22FF97FBF2E8F36C1F018F4883529
S11339F079F0B4C0803719F0883721F0AFC02F2F89
S1133A002061B22EB4FE0DC08B2D8460B82E09C087
S1133A1024FF0AC09F2F9660B92E06C028E030E02C
S1133A2005C020E130E002C020E132E0F801B7FE39
S1133A3007C060817181828193810C5F1F4F06C032
S1133A406081718180E090E00E5F1F4FA4010E94AD
S1133A50231EA82EA818FB2DFF77BF2EB6FE0BC081
S1133A602B2D2E7FA51450F4B4FE0AC0B2FC08C05E
S1133A702B2D2E7E05C07A2C2B2D03C07A2C01C051
S1133A80752C24FF0DC0FE01EA0DF11D80818033E9
S1133A9011F4297E09C022FF06C07394739404C0F4
S1133AA0822F867809F0739423FD13C020FF06C08B
S1133AB05A2C731418F4530C5718732C731468F499
S1133AC0B70180E290E02C870E94F11D73942C854D
S1133AD0F5CF731410F4371801C0312C24FF12C031
S1133AE0B70180E390E02C870E94F11D2C8522FF12
S1133AF017C021FF03C088E590E002C088E790E08A
S1133B00B7010CC0822F867859F021FD02C080E2F3
S1133B1001C08BE227FD8DE2B70190E00E94F11D08
S1133B20A51438F4B70180E390E00E94F11D5A9483
S1133B30F7CFAA94F401EA0DF11D8081B70190E05A
S1133B400E94F11DA110F5CF332009F451CEB70125
S1133B5080E290E00E94F11D3A94F6CFF70186814D
S1133B60978102C08FEF9FEF2C96E2E10C949D1E8B
S1133B700F931F93CF93DF93869F8001879F100D30
S1133B80969F100D1124C8010E942C1AEC01009775
S1133B9029F0A80160E070E00E94DF1DCE01DF91F2
S1133BA0CF911F910F910895FC01059061507040D1
S1133BB00110D8F7809590958E0F9F1F0895DC0112
S1133BC001C06D9341505040E0F70895FC016150ED
S1133BD0704001900110D8F7809590958E0F9F1F2B
S1133BE008950F931F93CF93DF93182F092FEB01A1
S1133BF08B8181FD03C08FEF9FEF20C082FF10C037
S1133C004E815F812C813D81421753077CF4E8810A
S1133C10F9819F012F5F3F4F39832883108306C0AA
S1133C20E885F985812F0995892B29F72E813F8114
S1133C302F5F3F4F3F832E83812F902FDF91CF91B2
S1133C401F910F910895FA01AA27283051F12031CC
S1133C5081F1E8946F936E7F6E5F7F4F8F4F9F4F1C
S1133C60AF4FB1E03ED0B4E03CD0670F781F891F5E
S1133C709A1FA11D680F791F8A1F911DA11D6A0F2C
S1133C80711D811D911DA11D20D009F468943F91DF
S1133C902AE0269F11243019305D3193DEF6CF01DE
S1133CA00895462F4770405D4193B3E00FD0C9F7A4
S1133CB0F6CF462F4F70405D4A3318F0495D31FD11
S1133CC04052419302D0A9F7EACFB4E0A695979564
S1133CD0879577956795BA95C9F70097610571053A
S1133CE008959B01AC010A2E069457954795379584
S1133CF02795BA95C9F7620F731F841F951FA01DDE
S1133D0008952F923F924F925F926F927F928F927B
S1133D109F92AF92BF92CF92DF92EF92FF920F9356
S1133D201F93CF93DF93CDB7DEB7CA1BDB0B0FB660
S1133D30F894DEBF0FBECDBF09942A88398848881D
S1133D405F846E847D848C849B84AA84B984C884B3
S1133D50DF80EE80FD800C811B81AA81B981CE0FAA
S1133D60D11D0FB6F894DEBF0FBECDBFED0108958F
S1073D70F894FFCFF1
S1133D740000A1032000030001010000180F7D814D
S1133D8400001843414E207472616E736D6973733D
S1133D94696F6E206572726F7220005465737420AB
S1133DA443414E206275730043414E2069643A20B6
S1133DB425642C2043414E2064617461206C656E3B
S1133DC46774683A2025642C2043414E206461744E
S1133DD4613A2025632C2025632C2025632C20257F
S1133DE4632C202563200A0043414E206D73672011
S1133DF473656E74202D3E2043414E2069643A203D
S1133E0425642C2043414E2064617461206C656EEA
S1133E146774683A2025642C2043414E20646174FD
S1133E24613A2025632C2025632C2025632C20252E
S1133E3463200A0043414E535441543A20307825B8
S1133E443032780A0043414E4354524C3A2030787D
S1133E54253032780A004D435032353135206973A8
S1133E64204E4F5420696E20636F6E6669677572C5
S1133E746174696F6E206D6F646520616674657228
S1133E84207265736574210050494E47504F4E4764
S1133E940043414E204A6F792073656E7400436178
S1133EA46E20534C69642073656E740043414E2044
S1133EB4427574746F6E2073656E7400504F494E6E
S1133EC45420583D256420616E6420793D25642086
S1133ED44F5554534944452053435245454E0A00D3
S1133EE44E554C4C206E6F6465004E4F206D656DCD
S1133EF46F727920666F72206D656E752025640A71
S1133F04004E4F206D656D6F727920666F72207359
S1133F1475626D656E75206F66206D656E752025FE
S1133F24640A00504152454E545320415353494767
S1133F344E454400494E495420444F4E450068655B
S1133F446C6C6F5F776F726C6400492077616E7478
S1133F5420746F20677265657420006772616E64F3
S1133F646D612C20626563617573650020736865F7
S1133F7420697320736F6F6F6F6F6F6F6F20707230
S1133F8465747479004E554C4C207375626D656E7E
S1133F947500656D707479206D656E7520706F6938
S1133FA46E74657220646574656374656400256465
S1053FB42000E7
S9030000FC
