S00C0000455049432E73726563F7
S11300000C94B4010C94D1010C94D1010C94D7013B
S11300100C94D1010C94D1010C94D1010C94D10114
S11300200C94D1010C94D1010C94D1010C94D10104
S11300300C94D1010C94D1010C94D1010C94D101F4
S11300400C94D1010C94D1010C94D1010C94D101E4
S11300500C94D1010C94D1010C94D1010C94D101D4
S11300600C94D1010C94D1010C94D1010C94D101C4
S1130070000000000000000000065F5F06000000B2
S11300800007070007070000147F7F147F7F140018
S1130090242E6B6B3A120000466630180C66620020
S11300A0307A4F5D377A48000407030000000000EF
S11300B0001C3E63410000000041633E1C00000040
S11300C0082A3E1C1C3E2A0808083E3E0808000078
S11300D000A0E0600000000008080808080800000C
S11300E000006060000000006030180C060301008E
S11300F03E7F594D7F3E000042427F7F40400000DA
S1130100627359496F660000226349497F360000D3
S1130110181C16137F7F1000276745457D390000A2
S11301203C7E4B4979300000036371190F070000CE
S1130130367F49497F360000064F49693F1E00005B
S113014000006C6C0000000000A0EC6C00000000DB
S1130150081C366341000000141414141414000025
S1130160004163361C080000020351590F060000C9
S11301703E7F415D5D1F1E007C7E13137E7C00006C
S1130180417F7F49497F36001C3E63414163220021
S1130190417F7F41637F1C00417F7F495D41630054
S11301A0417F7F491D0103001C3E6341517372006E
S11301B07F7F08087F7F000000417F7F41000000AF
S11301C0307040417F3F0100417F7F081C7763000E
S11301D0417F7F41406070007F7F060C067F7F0077
S11301E07F7F060C187F7F001C3E6341633E1C002A
S11301F0417F7F49090F06001E3F21717F5E000089
S1130200417F7F19396F460026674D597B320000C4
S113021003417F7F410300007F7F40407F7F0000D8
S11302201F3F60603F1F00007F7F3018307F7F00DA
S113023063771C081C776300074F78784F0700002A
S11302406773594D47637100007F7F41410000008F
S11302500103060C183060000041417F7F0000005C
S1130260080C0603060C0800808080808080808053
S11302700000030704000000207454543C7840003C
S1130280413F7F44447C3800387C44446C2800005F
S1130290307848493F7F4000387C54545C18000053
S11302A0487E7F490302000098BCA4A4F87C0400A3
S11302B0417F7F08047C780000447D7D400000007D
S11302C040C484FD7D000000417F7F10386C4400F1
S11302D000417F7F400000007C7C0C180C7C78007F
S11302E07C7C04047C780000387C44447C38000026
S11302F084FCF8A4243C1800183C24A4F8FC8400D2
S1130300447C78441C180000485C54547424000055
S113031000043E7F442400003C7C40403C7C400080
S11303201C3C60603C1C00003C7C6030607C3C00F9
S1130330446C3810386C44009CBCA0A0FC7C0000C9
S11303404C64745C4C64000008083E774141000032
S113035000000077770000004141773E0808000064
S1130360020301030203010011241FBECFEFD4E0F6
S1130370DEBFCDBF12E0A0E0B1E0E2E7F1E102C0F0
S113038005900D92AE3CB107D9F722E0AEECB2E095
S113039001C01D92AC3DB207E1F70E9425020C9406
S11303A0B7080C9400008BB780628BBF08951F922E
S11303B00F920FB60F9211248F939F9381E090E0D8
S11303C09093CF028093CE029F918F910F900FBE96
S11303D00F901F901895CF93DF93CDB7DEB7669734
S11303E00FB6F894DEBF0FBECDBF9E8B8D8B27E179
S11303F031E0FC0131832083ED89FE8989E0828329
S113040082E08583CE0101969783868311861086C8
S113041066960FB6F894DEBF0FBECDBFDF91CF91C5
S113042008958FE190E00E9414040E9401040E9448
S1130430D3010E94460278940E94B0028091D002B7
S11304409091D1020E94EB0108950E94110281E271
S113045091E00E9491040E94C0032FEF8FEF9DE171
S1130460215080409040E1F700C000008091D0020C
S11304709091D1020E9474032FEF8FEF92E02150EC
S113048080409040E1F700C000C0F0CF87B317BAB6
S1130490089540E050E070E060E014C09C01240F37
S11304A0351FE0910601F0910701E20FF31F10825E
S11304B001968038910591F740585F4F411584E0CB
S11304C0580719F0872F962FE9CF0895806BE0E045
S11304D0F0E1808310828FE780830895DF92EF92AA
S11304E0FF920F931F93CF93DF9380E00E946602E5
S11304F020E030E0F12C6894DD24D7F8E12CC0E052
S1130500D2E121C0022F132FA901481B590BE091FE
S11305100601F0910701E40FF51F4081488301971C
S1130520009781F787E08F1528F081E08F0D0E94F6
S1130530660203C080E00E946602F39488E0F81625
S113054039F0202F312F8D2D9E2D20583F4FDACF9B
S1130550DF91CF911F910F91FF90EF90DF9008955D
S1130560E0E0F0E18EEA808381EA80838AED808393
S113057082E1808388EC808388EA80838FE38083B0
S113058085ED808380E8808381E8808380E58083B3
S113059089ED808381E2808380E2808382E08083AE
S11305A08BED808380E380838DEA8083108284EAEC
S11305B0808386EA80838FEA808383ED808381E071
S11305C0808380E4808380EB808310828FE7808344
S11305D00E9449020E946E020895EF92FF920F93C7
S11305E01F93CF93DF93062F10E0101611064CF5DE
S11305F0642F752F40E050E0E12CF12C1BC0E88102
S1130600F0E0B097EE0FFF1FEE0FFF1FEE0FFF1F7E
S1130610E20FF31FE059FF4FE491ED932F5F3F4F3B
S11306202830310561F74F5F5F4F685F7F4F401798
S113063051073CF4DB012E2D3F2DEC01C40FD51FD7
S1130640DECFDF91CF911F910F91FF90EF9008952E
S1130650AF92BF92CF92DF92EF92FF920F931F93CC
S1130660CF93DF93CDB7DEB7B42EA52EEDB6FEB68D
S1130670C62ED12C2DB73EB740E8649F201931090E
S113068011240FB6F8943EBF0FBE2DBF0DB71EB791
S11306900F5F1F4FA8010E94ED028A2D90E020E811
S11306A0B29E800D911D1124209106013091070105
S11306B0A601440F551F440F551F440F551FB80181
S11306C0820F931F0E9429040FB6F894FEBE0FBE3A
S11306D0EDBEDF91CF911F910F91FF90EF90DF90CE
S11306E0CF90BF90AF900895EF92FF920F931F9316
S11306F0CF93DF93EC018D811F928F9389E292E077
S11307009F938F930E947D048D810F900F900F9083
S11307100F90882371F100E010E00F2EF0E4EF2E2B
S1130720F2E0FF2EF02D89818F9388818F93FF92C1
S1130730EF920E947D04C801880F991FEE81FF810A
S1130740E80FF91F0190F081E02D402F52E06A81FB
S1130750808191810E9428030E946E020F5F1F4FC7
S11307608D8190E00F900F900F900F90081719074C
S1130770D4F2DF91CF911F910F91FF90EF900895E4
S11307800E9449020E946E022FEF8FEF9DE12150DB
S113079080409040E1F700C0000040E050E060E19C
S11307A080E592E00E94280341E050E060E181E6A8
S11307B092E00E94280342E050E060E182E792E088
S11307C00E94280343E050E060E183E892E00E9445
S11307D0280344E050E060E184E992E00E942803A9
S11307E045E050E060E186EA92E00E94280346E09A
S11307F050E060E188EB92E00E9428030E946E02C0
S1130800089585B7806885BF80B7806280BF80B750
S113081010BE80B710BE08955D9BFECF8CB90895BD
S11308205F9BFECF8CB1089590BD89B988E18AB9E8
S113083086E880BD80B510BC80B510BC80B510BC06
S113084080B510BC60E174E08CE094E00E94320456
S11308500895FB01DC0102C001900D92415050400B
S1130860D8F708950F931F93CF93DF93EC018B0177
S1130870009731F46115710519F480E090E038C0F7
S11308806EE070E081E090E00E949006FC01009729
S1130890A1F380E883830115110571F013870287A2
S11308A081E883838091D2029091D302892B21F431
S11308B0F093D302E093D2022097C9F0D187C08786
S11308C08381826083838091D4029091D502892BA5
S11308D071F4F093D502E093D4028091D602909102
S11308E0D702892B21F4F093D702E093D602CF01EB
S11308F0DF91CF911F910F910895A0E0B0E0E3E85C
S1130900F4E00C949008FE01359661917191AF0169
S11309108091D4029091D5020E94BE04E2E00C942E
S1130920AC080F931F93CF93DF93E091D402F0911F
S1130930D502238121FF1BC0EC0100E010E0899166
S11309406091D4027091D502DB011896ED91FC916F
S11309501997882331F00995892B89F30FEF1FEF3D
S1130960EECF8AE00995892B11F4C80102C08FEFFC
S11309709FEFDF91CF911F910F910895ACE0B0E00C
S1130980E4ECF4E00C9480087C016B018A01FC0126
S113099017821682838181FFBDC1CE0101964C016D
S11309A0F7019381F60193FD859193FF81916F0186
S11309B0882309F4ABC1853239F493FD859193FF03
S11309C081916F01853229F4B70190E00E94F0070C
S11309D0E7CF512C312C20E02032A0F48B3269F087
S11309E030F4803259F0833269F420612CC08D32A6
S11309F039F0803339F4216026C02260246023C09A
S1130A00286021C027FD27C030ED380F3A3078F434
S1130A1026FF06C0FAE05F9E300D1124532E13C04A
S1130A208AE0389E300D1124332E20620CC08E32A1
S1130A3021F426FD6BC1206406C08C3611F42068B5
S1130A4002C0883641F4F60193FD859193FF8191AC
S1130A506F018111C1CF982F9F7D9554933028F455
S1130A600C5F1F4FFFE3F9830DC0833631F08337EA
S1130A7071F0833509F05BC022C0F801808189835D
S1130A800E5F1F4F44244394512C540115C0380168
S1130A90F2E06F0E711CF801A080B18026FF03C044
S1130AA0652D70E002C06FEF7FEFC5012C870E94B7
S1130AB0E5072C0183012C852F77222E17C03801DE
S1130AC0F2E06F0E711CF801A080B18026FF03C014
S1130AD0652D70E002C06FEF7FEFC5012C870E9487
S1130AE0D3072C012C852068222E830123FC1BC0F4
S1130AF0832D90E048165906B0F4B70180E290E0E7
S1130B000E94F0073A94F4CFF50127FC859127FE63
S1130B1081915F01B70190E00E94F00731103A948F
S1130B20F1E04F1A51084114510471F7E5C08436BD
S1130B3011F0893639F5F80127FF07C0608171810A
S1130B40828193810C5F1F4F08C060817181882767
S1130B5077FD8095982F0E5F1F4F2F76B22E97FF4B
S1130B6009C090958095709561957F4F8F4F9F4FE9
S1130B702068B22E2AE030E0A4010E942208A82EA8
S1130B80A81844C0853729F42F7EB22E2AE030E01D
S1130B9025C0F22FF97FBF2E8F36C1F018F48835A7
S1130BA079F0B4C0803719F0883721F0AFC02F2F07
S1130BB02061B22EB4FE0DC08B2D8460B82E09C006
S1130BC024FF0AC09F2F9660B92E06C028E030E0AB
S1130BD005C020E130E002C020E132E0F801B7FEB8
S1130BE007C060817181828193810C5F1F4F06C0B1
S1130BF06081718180E090E00E5F1F4FA4010E942C
S1130C002208A82EA818FB2DFF77BF2EB6FE0BC016
S1130C102B2D2E7FA51450F4B4FE0AC0B2FC08C0DC
S1130C202B2D2E7E05C07A2C2B2D03C07A2C01C0CF
S1130C30752C24FF0DC0FE01EA0DF11D8081803367
S1130C4011F4297E09C022FF06C07394739404C072
S1130C50822F867809F0739423FD13C020FF06C009
S1130C605A2C731418F4530C5718732C731468F417
S1130C70B70180E290E02C870E94F00773942C85E2
S1130C80F5CF731410F4371801C0312C24FF12C0AF
S1130C90B70180E390E02C870E94F0072C8522FFA7
S1130CA017C021FF03C088E590E002C088E790E008
S1130CB0B7010CC0822F867859F021FD02C080E272
S1130CC001C08BE227FD8DE2B70190E00E94F0079E
S1130CD0A51438F4B70180E390E00E94F0075A9419
S1130CE0F7CFAA94F401EA0DF11D8081B70190E0D9
S1130CF00E94F007A110F5CF332009F451CEB701BB
S1130D0080E290E00E94F0073A94F6CFF7018681E2
S1130D10978102C08FEF9FEF2C96E2E10C949C0820
S1130D200F931F93CF93DF93869F8001879F100DAE
S1130D30969F100D1124C8010E94AC06EC01009787
S1130D4029F0A80160E070E00E94DE07CE01DF9187
S1130D50CF911F910F910895CF93DF938230910526
S1130D6010F482E090E0E091DA02F091DB0220E0FE
S1130D7030E0A0E0B0E0309739F14081518148176C
S1130D805907B8F04817590771F482819381109775
S1130D9029F013969C938E9312972CC09093DB02A8
S1130DA08093DA0227C02115310531F04217530729
S1130DB018F0A901DB0101C0EF019A01BD01DF01B7
S1130DC00280F381E02DD7CF21153105F9F0281BDE
S1130DD0390B2430310580F48A819B8161157105BA
S1130DE021F0FB019383828304C09093DB02809300
S1130DF0DA02FE01329644C0FE01E20FF31F819332
S1130E00919322503109398328833AC02091D80222
S1130E103091D902232B41F4209102013091030136
S1130E203093D9022093D80220910001309101011E
S1130E302115310541F42DB73EB74091040150917D
S1130E400501241B350BE091D802F091D902E21779
S1130E50F307A0F42E1B3F0B2817390778F0AC01D9
S1130E604E5F5F4F2417350748F04E0F5F1F5093B6
S1130E70D9024093D8028193919302C0E0E0F0E05C
S1130E80CF01DF91CF910895CF93DF93009709F4B9
S1130E9087C0FC01329713821282C091DA02D0918A
S1130EA0DB02209781F420813181280F391F809142
S1130EB0D8029091D9028217930779F5F093D90259
S1130EC0E093D8026DC0DE0120E030E0AE17BF072A
S1130ED050F412964D915C9113979D014115510563
S1130EE009F1DA01F3CFB383A28340815181840FE6
S1130EF0951F8A179B0771F48D919C911197840F0C
S1130F00951F02969183808312968D919C911397DD
S1130F10938382832115310529F4F093DB02E09356
S1130F20DA023EC0D9011396FC93EE9312974D91C9
S1130F305D91A40FB51FEA17FB0779F480819181B5
S1130F40840F951F0296D90111969C938E938281EA
S1130F50938113969C938E931297E0E0F0E08A813C
S1130F609B81009719F0FE01EC01F9CFCE010296A6
S1130F7028813981820F931F2091D8023091D902A0
S1130F802817390769F4309729F41092DB0210927C
S1130F90DA0202C013821282D093D902C093D8021B
S1130FA0DF91CF910895FC010590615070400110CC
S1130FB0D8F7809590958E0F9F1F0895DC0101C08E
S1130FC06D9341505040E0F70895FC01615070402A
S1130FD001900110D8F7809590958E0F9F1F08956A
S1130FE00F931F93CF93DF93182F092FEB018B815E
S1130FF081FD03C08FEF9FEF20C082FF10C04E81A0
S11310005F812C813D81421753077CF4E881F9818B
S11310109F012F5F3F4F39832883108306C0E885E3
S1131020F985812F0995892B29F72E813F812F5F1F
S11310303F4F3F832E83812F902FDF91CF911F91BC
S11310400F910895FA01AA27283051F1203181F136
S1131050E8946F936E7F6E5F7F4F8F4F9F4FAF4FBC
S1131060B1E03ED0B4E03CD0670F781F891F9A1FCF
S1131070A11D680F791F8A1F911DA11D6A0F711D83
S1131080811D911DA11D20D009F468943F912AE08F
S1131090269F11243019305D3193DEF6CF01089577
S11310A0462F4770405D4193B3E00FD0C9F7F6CFA8
S11310B0462F4F70405D4A3318F0495D31FD405270
S11310C0419302D0A9F7EACFB4E0A6959795879506
S11310D077956795BA95C9F70097610571050895E5
S11310E09B01AC010A2E0694579547953795279591
S11310F0BA95C9F7620F731F841F951FA01D089529
S11311002F923F924F925F926F927F928F929F9213
S1131110AF92BF92CF92DF92EF92FF920F931F9301
S1131120CF93DF93CDB7DEB7CA1BDB0B0FB6F894B2
S1131130DEBF0FBECDBF09942A88398848885F84F2
S11311406E847D848C849B84AA84B984C884DF8063
S1131150EE80FD800C811B81AA81B981CE0FD11D47
S11311600FB6F894DEBF0FBECDBFED010895F8941D
S1051170FFCFAB
S11311720000DC0220000018626C6F620067726576
S11311826574696E6773006D61696E206D656E7555
S113119200494E495420444F4E450068656C6C6FBB
S11311A25F776F726C6400492077616E7420746F8C
S11311B2206772656574206D79206D6F6D2C2062D5
S11311C26563617573652073686520697320736F45
S11311D26F6F6F206E6963652E20492077616E748C
S11311E220746F206772656574206D79206772615F
S11311F26E646D612C20626563617573652073682A
S11312026520697320736F6F6F6F207072657474D9
S1131212792E20492077616E7420746F207361796E
S11312222068656C6C6F20746F206D792074656121
S1131232636865722C2062656361757365206865F5
S113124220697320736F6F6F6F20627269676874AD
S11312522E20492077616E7420746F207361792087
S113126268656C6C6F20746F206D79206672696595
S11312726E642050657465722C20626563617573B7
S11312826520686520697320736F6F6F6F206672C3
S113129269656E646C792E20004D656E75206E75DD
S11312A26D207375626D656E75733A2025640A004C
S11312B24D656E75207469746C653A2025730A0055
S11312C2202E2D2D2D2D2D2D2D2D2D2D2D2D2E2060
S11312D200207C2050696E6720506F6E6721207C4D
S11312E2200020602D2D2D2D2D2D2D2D2D2D2D2D3C
S11312F227200020202020202020205E20202020C3
S11313022020200020202020202020207C20202893
S11313125C5F2F29200020202020202020207C5FB9
S11313225F284F2E6F2920002020202020202020FB
S1111332202020283E203C2920002564200095
S9030000FC
