S00C0000455049432E73726563F7
S11300000C9438000C9407010C9455000C946D006A
S11300100C9455000C9455000C9455000C94550008
S11300200C9455000C9455000C9455000C945500F8
S11300300C9455000C9455000C9455000C945500E8
S11300400C9455000C9455000C9455000C945500D8
S11300500C9455000C9455000C9455000C945500C8
S11300600C9455000C9455000C9455000C945500B8
S113007011241FBECFEFD4E0DEBFCDBF12E0A0E05D
S1130080B1E0E0E6FCE002C005900D92A03FB107AC
S1130090D9F723E0A0EFB2E001C01D92AC30B20763
S11300A0E1F70E941B020C942E060C94C3018BB73B
S11300B080628BBF089590E09093011480930014A4
S11300C08091F0029091F102892BD1F38091281450
S11300D01092F1021092F00208951F920F920FB63F
S11300E00F9211248F939F9381E090E09093F102FB
S11300F08093F0029F918F910F900FBE0F901F90ED
S113010018950E94780160E680E60E94380161E05B
S11301108BE20E94380140E06FE080EE0E947D0196
S1130120F89485B7886085BF8BB780648BBF78945B
S1130130089580E30E944A0182958170089580E3C6
S11301400E944A0183FB882780F991E0892708955A
S1130150EF92FF920F931F93CF93DF93CDB7DEB748
S11301602B970FB6F894DEBF0FBECDBFE982FA829B
S11301700B831C832D833E834F83588769877A873B
S11301808B87E980FA800E949F00882359F1B70188
S113019076956795769567957695679581E30E9440
S11301A038016E2D6295660F607E82E30E943801ED
S11301B0602F6F7085E30E943801002379F07E017F
S11301C084E0E80EF11C0A5C16E3F70161917F01FB
S11301D0812F0E9438011F5F1013F7CF81E00E9426
S11301E0950108C00E949900882321F08FE091E0D6
S11301F00E94DE052B960FB6F894DEBF0FBECDBF6E
S1130200DF91CF911F910F91FF90EF9008951F926E
S11302100F920FB60F9211242F933F934F935F9336
S11302206F937F938F939F93AF93BF93EF93FF93BA
S113023086E291E00E94DE0540E06CE281E00E94EB
S11302407D0181E090E09093F3028093F202FF91AC
S1130250EF91BF91AF919F918F917F916F915F913A
S11302604F913F912F910F900FBE0F901F901895B3
S1130270CF93DF93D82FC62FC49882E00E94A501A4
S11302808D2F0E94A5018C2F0E94A501C49ADF9195
S1130290CF910895CF93C82FC49883E00E94A501FD
S11302A08C2F0E94A5010E94A901C49ACF910895A0
S11302B0CF93DF931F92CDB7DEB7C49880EC0E9432
S11302C0A501C49A8CEC94E00197F1F700C00000FA
S11302D08EE00E944A0189838981807E803821F0E2
S11302E085E991E00E94DE050F90DF91CF9108959A
S11302F00E94A2010E94580108951F93CF93DF9397
S1130300D82F162FC42FC49885E00E94A501812FF1
S11303100E94A5018D2F0E94A5018C2F0E94A5018A
S1130320C49ADF91CF911F910895C49880680E9468
S1130330A501C49A089587B3806B87BB8DB181658D
S11303408DB908950E949B0108958FB9779BFECFC4
S113035008958FEF8FB9779BFECF8FB108958FE10A
S113036090E00E942F040E941C040E9457000E94E7
S113037072020E94810078940E94DF0387EC91E06E
S11303800E94DE0508951F920F920FB60F9211245A
S11303902F933F934F935F936F937F938F939F9389
S11303A0AF93BF93EF93FF9381ED91E00E94DE053D
S11303B0FF91EF91BF91AF919F918F917F916F9139
S11303C05F914F913F912F910F900FBE0F901F900F
S11303D01895EF92FF920F931F93CF93DF93CDB7AE
S11303E0DEB72B970FB6F894DEBF0FBECDBFFE016C
S11303F031968BE0DF011D928A95E9F71091FC029A
S11304002091FE0230910003E980FA8003E04F81DD
S1130410588569857A858B850E94A8002B960FB62E
S1130420F894DEBF0FBECDBFDF91CF911F910F9126
S1130430FF90EF9008950E94AF010CEF12E0C4EF1B
S1130440D2E00F2EFEEFCF2EF2E0DF2EF02D0F2E96
S1130450F6EFEF2EF2E0FF2EF02D0F2EF6E0BF2E7A
S1130460F02D0E9475022093FC023093FD0240930C
S1130470FE025093FF026093000370930103F8019E
S11304808081918128813981A901465F5F4F481796
S11304905907ACF0F60140815181F7016081718107
S11304A0FB013A96E417F50754F02A5031098217F4
S11304B093072CF06A5071094617570714F40E94E9
S11304C0E901FFEF2FE781E0F15020408040E1F7A0
S11304D000C000C0F801DE018B2D01900D928A95B9
S11304E0E1F7BFCF87B317BA08952F923F924F9287
S11304F05F926F927F928F929F92AF92BF92CF92B0
S1130500DF92EF92FF920F931F93CF93DF9300D06C
S113051000D000D0CDB7DEB70F2EF5E0EF2EF12CD2
S1130520F02D22242A94312C66246A94712C412CB7
S1130530512C812C912CC12CD12CA12CB12C84E0D8
S11305400E945B00082F10E085E00E945B0090E0B1
S1130550061517050CF43801821593050CF41C01DB
S1130560481659060CF42C01801691060CF4480127
S1130570A00EB11EC80ED91E21E0E21AF108E11442
S1130580F104E9F6A818B908C50186199709C41831
S1130590D508C218D30823E030E0B9010E9444040E
S11305A08B01FB01C601B9010E944404D62EC72E5B
S11305B0862F972F2FEF30E0201B310B82179307E4
S11305C00CF44CC0801791070CF452C04BC04091FE
S11305D006012091090130910A01240F311D2817C9
S11305E039070CF45EC0E12CF12C5BC020910601AC
S11305F08091070190910801820F911D8E179F072A
S11306000CF44FC0E12CF12C4CC040910601209118
S1130610090130910A01241B310982179307CCF098
S1130620E12CF12C3EC020910601809107019091AC
S11306300801821B910931E020E0E817F9070CF06A
S113064030E0E32EF22E2DC085E492E00E94DE0518
S113065028C06894EE24E2F8F12C23C08017910797
S113066014F7D3CF0F2EF3E0EF2EF12CF02D04C0AE
S11306706894EE24E1F8F12C22E0E216F10409F486
S1130680B5CF2CF481E0E816F104F1F6CCCF23E0E9
S1130690E216F10409F49BCF24E0E216F104A1F67A
S11306A0B4CF1A830983DB82CC82FE82ED82202FB1
S11306B03A814D2D5C2D6E2D7E8180E090E0269652
S11306C00FB6F894DEBF0FBECDBFDF91CF911F915F
S11306D00F91FF90EF90DF90CF90BF90AF909F90DD
S11306E08F907F906F905F904F903F902F900895E0
S11306F040E050E070E060E014C09C01240F351F1E
S1130700E0910D01F0910E01E20FF31F10820196AA
S11307108038910591F740585F4F411584E05807A0
S113072019F0872F962FE9CF0895806BE0E0F0E170
S1130730808310828FE780830895DF92EF92FF9287
S11307400F931F93CF93DF9380E00E94950320E0E3
S113075030E0F12C6894DD24D7F8E12CC0E0D2E13C
S113076021C0022F132FA901481B590BE0910D0141
S1130770F0910E01E40FF51F408148830197009723
S113078081F787E08F1528F081E08F0D0E94950393
S113079003C080E00E949503F39488E0F81639F0D2
S11307A0202F312F8D2D9E2D20583F4FDACFDF91F2
S11307B0CF911F910F91FF90EF90DF900895E0E0AB
S11307C0F0E18EEA808381EA80838AED808382E18E
S11307D0808388EC808388EA80838FE3808385ED3F
S11307E0808380E8808381E8808380E5808389ED4D
S11307F0808381E2808380E2808382E080838BED4A
S1130800808380E380838DEA8083108284EA8083FE
S113081086EA80838FEA808383ED808381E080830E
S113082080E4808380EB808310828FE780830E9442
S113083078030E949D03089585B7806885BF80B7BB
S1130840806280BF80B710BE80B710BE08955D9BE4
S1130850FECF8CB908955F9BFECF8CB1089590BDF7
S113086089B988E18AB986E880BD80B510BC80B5B5
S113087010BC80B510BC80B510BC6BE274E087E29C
S113088094E00E949305089597FB072E16F40094B4
S113089007D077FD09D00E94580407FC05D03EF428
S11308A0909581959F4F0895709561957F4F089518
S11308B0AA1BBB1B51E107C0AA1FBB1FA617B70782
S11308C010F0A61BB70B881F991F5A95A9F780959E
S11308D09095BC01CD010895CF93DF9382309105AB
S11308E010F482E090E0E0910403F091050320E02D
S11308F030E0A0E0B0E0309739F1408151814817F1
S11309005907B8F04817590771F4828193811097F9
S113091029F013969C938E9312972CC09093050301
S11309208093040327C02115310531F04217530782
S113093018F0A901DB0101C0EF019A01BD01DF013B
S11309400280F381E02DD7CF21153105F9F0281B62
S1130950390B2430310580F48A819B81611571053E
S113096021F0FB019383828304C090930503809359
S11309700403FE01329644C0FE01E20FF31F81938B
S1130980919322503109398328833AC0209102037C
S113099030910303232B41F4209102013091030190
S11309A0309303032093020320910001309101014D
S11309B02115310541F42DB73EB740910401509102
S11309C00501241B350BE0910203F0910303E217A8
S11309D0F307A0F42E1B3F0B2817390778F0AC015E
S11309E04E5F5F4F2417350748F04E0F5F1F50933B
S11309F00303409302038193919302C0E0E0F0E08B
S1130A00CF01DF91CF910895CF93DF93009709F43D
S1130A1087C0FC01329713821282C0910403D091E3
S1130A200503209781F420813181280F391F80919B
S1130A300203909103038217930779F5F09303035C
S1130A40E09302036DC0DE0120E030E0AE17BF0783
S1130A5050F412964D915C9113979D0141155105E7
S1130A6009F1DA01F3CFB383A28340815181840F6A
S1130A70951F8A179B0771F48D919C911197840F90
S1130A80951F02969183808312968D919C91139762
S1130A90938382832115310529F4F0930503E093B0
S1130AA004033EC0D9011396FC93EE9312974D9123
S1130AB05D91A40FB51FEA17FB0779F4808191813A
S1130AC0840F951F0296D90111969C938E9382816F
S1130AD0938113969C938E931297E0E0F0E08A81C1
S1130AE09B81009719F0FE01EC01F9CFCE0102962B
S1130AF028813981820F931F2091020330910303CF
S1130B002817390769F4309729F4109205031092D5
S1130B10040302C013821282D0930303C09302031E
S1130B20DF91CF9108950F931F93CF93DF93EC013F
S1130B308B01009731F46115710519F480E090E0A0
S1130B4038C06EE070E081E090E00E940B06FC018A
S1130B500097A1F380E883830115110571F01387D1
S1130B60028781E883838091060390910703892B90
S1130B7021F4F0930703E09306032097C9F0D1878B
S1130B80C0878381826083838091080390910903E5
S1130B90892B71F4F0930903E093080380910A030D
S1130BA090910B03892B21F4F0930B03E0930A0338
S1130BB0CF01DF91CF911F910F9108950F931F9350
S1130BC0CF93DF93E0910803F0910903238121FF80
S1130BD01BC0EC0100E010E0899160910803709162
S1130BE00903DB011896ED91FC911997882331F0E4
S1130BF00995892B89F30FEF1FEFEECF8AE0099552
S1130C00892B11F4C80102C08FEF9FEFDF91CF91C0
S1130C101F910F9108950F931F93CF93DF93869F96
S1130C208001879F100D969F100D1124C8010E940A
S1130C306C04EC01009729F0A80160E070E00E94C8
S1130C402706CE01DF91CF911F910F910895DC010A
S1130C5001C06D9341505040E0F70895F894FFCFE0
S1130C6000000C0320000F7D0081000000001843E9
S1130C70414E207472616E736D697373696F6E2077
S1130C806572726F7200696E7465727275707465E4
S1130C9064210043414E2069643A2025642C20439A
S1130CA0414E2064617461206C656E6774683A20FB
S1130CB025642C2043414E20646174613A202563ED
S1130CC02C2025632C2025632C2025632C202563D0
S1130CD0200A0043414E535441543A203078253081
S1130CE032780A0043414E4354524C3A203078251E
S1130CF03032780A004D4350323531352069732043
S1130D004E4F5420696E20636F6E66696775726119
S1130D1074696F6E206D6F646520616674657220FE
S1130D2072657365742100494E495420444F4E4501
S1130D300067657474696E672072616E646F6D20FC
S1130D40696E746572727570747300576169746941
S1130D506E6720666F72206D7A206D6573736167AC
S1130D606500476F742069740043414E2069643AFA
S1130D702025642C2043414E2064617461206C65FD
S1130D806E6774683A2025642C2043414E206461C8
S1130D9074613A2025632C2025632C2025632C20A4
S1130DA02563200A004572726F722072656365695B
S1130DB076696E67206A6F79737469636B207661F4
S1130DC06C7565004A6F79737469636B20706F7317
S1130DD06974696F6E20783D2564202C20793D2547
S1130DE064202C20646972656374696F6E3D257399
S1130DF00A00536C6964657220506F736974696F7B
S1130E006E3A206C6566743D2564202C20726967F7
S1130E1068743D25640A004E45555452414C004CBB
S1130E20454654005249474854004C4546545F5582
S1130E3050004C4546545F444F574E005249474872
S1130E40545F55500052494748545F444F574E0031
S9030000FC
