S00C0000455049432E73726563F7
S11300000C94B4010C9487020C94D1010C94E90172
S11300100C94D1010C94D1010C94D1010C94D10114
S11300200C94D1010C94D1010C94D1010C94D10104
S11300300C94D1010C94D1010C94D1010C94D101F4
S11300400C94D1010C94D1010C94D1010C94D101E4
S11300500C94D1010C94D1010C94D1010C94D101D4
S11300600C94D1010C94D1010C94D1010C94D101C4
S1130070000000000000000000065F5F06000000B2
S11300800007070007070000147F7F147F7F140018
S1130090242E6B6B3A120000466630180C66620020
S11300A0307A4F5D377A48000407030000000000EF
S11300B0001C3E63410000000041633E1C00000040
S11300C0082A3E1C1C3E2A0808083E3E0808000078
S11300D000A0E0600000000008080808080800000C
S11300E000006060000000006030180C060301008E
S11300F03E7F594D7F3E000042427F7F40400000DA
S1130100627359496F660000226349497F360000D3
S1130110181C16137F7F1000276745457D390000A2
S11301203C7E4B4979300000036371190F070000CE
S1130130367F49497F360000064F49693F1E00005B
S113014000006C6C0000000000A0EC6C00000000DB
S1130150081C366341000000141414141414000025
S1130160004163361C080000020351590F060000C9
S11301703E7F415D5D1F1E007C7E13137E7C00006C
S1130180417F7F49497F36001C3E63414163220021
S1130190417F7F41637F1C00417F7F495D41630054
S11301A0417F7F491D0103001C3E6341517372006E
S11301B07F7F08087F7F000000417F7F41000000AF
S11301C0307040417F3F0100417F7F081C7763000E
S11301D0417F7F41406070007F7F060C067F7F0077
S11301E07F7F060C187F7F001C3E6341633E1C002A
S11301F0417F7F49090F06001E3F21717F5E000089
S1130200417F7F19396F460026674D597B320000C4
S113021003417F7F410300007F7F40407F7F0000D8
S11302201F3F60603F1F00007F7F3018307F7F00DA
S113023063771C081C776300074F78784F0700002A
S11302406773594D47637100007F7F41410000008F
S11302500103060C183060000041417F7F0000005C
S1130260080C0603060C0800808080808080808053
S11302700000030704000000207454543C7840003C
S1130280413F7F44447C3800387C44446C2800005F
S1130290307848493F7F4000387C54545C18000053
S11302A0487E7F490302000098BCA4A4F87C0400A3
S11302B0417F7F08047C780000447D7D400000007D
S11302C040C484FD7D000000417F7F10386C4400F1
S11302D000417F7F400000007C7C0C180C7C78007F
S11302E07C7C04047C780000387C44447C38000026
S11302F084FCF8A4243C1800183C24A4F8FC8400D2
S1130300447C78441C180000485C54547424000055
S113031000043E7F442400003C7C40403C7C400080
S11303201C3C60603C1C00003C7C6030607C3C00F9
S1130330446C3810386C44009CBCA0A0FC7C0000C9
S11303404C64745C4C64000008083E774141000032
S113035000000077770000004141773E0808000064
S1130360020301030203010011241FBECFEFD4E0F6
S1130370DEBFCDBF13E0A0E0B1E0E0E4F5E102C0F0
S113038005900D92AE3FB107D9F724E0AEEFB3E08C
S113039001C01D92AE31B207E1F70E94AA050C9488
S11303A09E0A0C94D8048BB780628BBF089590E0AA
S11303B090930114809300148091FE039091FF03A5
S11303C0892BD1F3809128141092FF031092FE031D
S11303D008951F920F920FB60F9211248F939F933B
S11303E081E090E09093FF038093FE039F918F91AF
S11303F00F900FBE0F901F9018950E947C0460E828
S11304008FE00E94340460E080E60E94340461E0DE
S11304108BE20E94340440E06FE080EE0E9481048D
S1130420F89485B7886085BF8BB780648BBF789458
S1130430089580E30E94480482958170089580E3C2
S11304400E94480483FB882780F991E08927089556
S1130450EF92FF920F931F93CF93DF93CDB7DEB745
S11304602B970FB6F894DEBF0FBECDBFE982FA8298
S11304700B831C832D833E834F83588769877A8738
S11304808B87E980FA800E941F02882359F1B70103
S113049076956795769567957695679581E30E943D
S11304A034046E2D6295660F607E82E30E943404EC
S11304B0602F6F7085E30E943404002379F07E017D
S11304C084E0E80EF11C0A5C16E3F70161917F01F8
S11304D0812F0E9434041F5F1013F7CF81E00E9424
S11304E09B0408C00E941902882321F081E191E055
S11304F00E944E0A2B960FB6F894DEBF0FBECDBFF6
S1130500DF91CF911F910F91FF90EF9008951F926B
S11305100F920FB60F9211242F933F934F935F9333
S11305206F937F938F939F93AF93BF93EF93FF93B7
S113053060E08CE20E94340481E090E09093010436
S113054080930004FF91EF91BF91AF919F918F91A0
S11305507F916F915F914F913F912F910F900FBEBB
S11305600F901F90189516161706C4F4A091060153
S1130570B0910701AA0FBB1FE82FF92F80E090E08C
S113058020E030E040815181840F951F2F5F3F4F61
S1130590EA0FFB1F26173707A9F702C080E090E097
S11305A00E94B408CB010895EF92FF920F931F931A
S11305B0CF93DF931616170694F5EC019B01220FD7
S11305C0331F220F331F820F931F00E010E00F5FD1
S11305D01F4F0617170719F17E0124E0E20EF11CE4
S11305E0F701DE012A813B8142815381421753077F
S11305F084F413965C934E931297338322832D9144
S11306003C9111974081518111965C934E933183B3
S113061020833496E817F90729F7E701D8CFDF914B
S1130620CF911F910F91FF90EF9008952F923F92D9
S11306304F925F926F927F928F929F92AF92BF92EE
S1130640CF92DF92EF92FF920F931F93CF93DF939A
S113065000D000D0CDB7DEB77C015B012A011901BF
S113066048012DB73EB73C832B83CB01880F991FDC
S1130670880F991FEDB7FEB7E81BF90B0FB6F89476
S1130680FEBF0FBEEDBF2DB73EB72F5F3F4F3A837E
S11306902983690181E090E090930701809306012A
S11306A0C7010E94B3021A141B041CF5D601F701FA
S11306B09501220F331FE20EF31E8F019801F801FA
S11306C0419151918F01BD0111965C934E93F901B3
S11306D040815181481B590B9A0122F42227332768
S11306E0241B350BFB013383228314960E151F053F
S11306F029F782E090E09093070180930601B50109
S113070089819A810E94D402141415040CF04CC0FF
S1130710E12CF12C742C652CC5018E199F090397CB
S113072014F4E72CF62CF5013197EE0FFF1FEE0FB2
S1130730FF1FEC0DFD1D828193818215930514F436
S1130740E72CF62C850108191909023011050CF45F
S11307508501B801C6010E94B30210161106C4F443
S1130760F60120E030E0DF0160817181681B790BC4
S1130770AB0122F444275527461B570B13965C9371
S11307804E9312972F5F3F4F34962017310759F736
S1130790B801C6010E94D402FFEFEF1AFF0AE41465
S11307A0F5041CF45801B8CF8501E981FA818281EE
S11307B09381821593051CF00819190928C0F801C2
S11307C03197EE0FFF1FEE0FFF1F29813A81E20FD1
S11307D0F31F8281938128163906CCF41016110672
S11307E0B4F480E090E0FC01EE0FFF1FEE0FFF1F5A
S11307F0EC0DFD1D228133812216330624F48C0175
S113080001501109C80101968017910764F3B801DA
S113081089819A810E94B30221E030E0309307017C
S113082020930601EB81FC810FB6F894FEBF0FBE46
S1130830EDBF0F900F900F900F90DF91CF911F910C
S11308400F91FF90EF90DF90CF90BF90AF909F906B
S11308508F907F906F905F904F903F902F9008956E
S1130860C4980895C49A0895CF93DF93D82FC62FC0
S11308700E94300482E00E94B3048D2F0E94B304CE
S11308808C2F0E94B3040E943204DF91CF9108950B
S1130890CF93C82F0E94300483E00E94B3048C2FAE
S11308A00E94B3040E94B704C82F0E9432048C2F04
S11308B0CF910895CF93DF931F92CDB7DEB70E94F7
S11308C0300480EC0E94B3040E9432048FE99FE05C
S11308D00197F1F700C000008EE00E94480489836C
S11308E08981807E803821F083EE91E00E944E0A57
S11308F00F90DF91CF9108950E94B0040E945A0492
S113090008951F93CF93DF93D82F162FC42F0E94DF
S1130910300485E00E94B304812F0E94B3048D2F1C
S11309200E94B3048C2F0E94B3040E943204DF910E
S1130930CF911F910895CF93C82F0E9430048C2F1C
S113094080680E94B3040E943204CF9108958FEF0F
S113095087BB87B3806B87BB8DB181658DB90895E3
S11309600E94A70408958FB9779BFECF08958FEF57
S11309708FB9779BFECF8FB108950E9498080E948B
S113098085080E94D3010E9457060E94FD017894B5
S11309900E94BC0785E192E00E944E0A2FEF8FEF80
S11309A09EE0215080409040E1F700C0000008958F
S11309B01F920F920FB60F9211242F933F934F93D0
S11309C05F936F937F938F939F93AF93BF93EF93B3
S11309D0FF938FE192E00E944E0AFF91EF91BF9145
S11309E0AF919F918F917F916F915F914F913F91C3
S11309F02F910F900FBE0F901F901895EF92FF92BA
S1130A000F931F93CF93DF93CDB7DEB72B970FB61A
S1130A10F894DEBF0FBECDBFFE0131968BE0DF013F
S1130A201D928A95E9F710910E04209110043091DB
S1130A301204E980FA8003E04F81588569857A853C
S1130A408B850E9428022B960FB6F894DEBF0FBE4A
S1130A50CDBFDF91CF911F910F91FF90EF9008953B
S1130A60EF92FF920F931F93CF93DF93CDB7DEB72F
S1130A702B970FB6F894DEBF0FBECDBF80E090E099
S1130A800E945B06811106C081E090E00E945B0633
S1130A908823F9F081E090E00E945B06FE01319624
S1130AA09BE0DF011D929A95E9F792E0E92E998384
S1130AB01A82F12C01E0182F2D813E814F81588537
S1130AC069857A858B850E94280288E392E00E94DA
S1130AD04E0A2B960FB6F894DEBF0FBECDBFDF9142
S1130AE0CF911F910F91FF90EF900895EF92FF9295
S1130AF00F931F93CF93DF93CDB7DEB72B970FB62A
S1130B00F894DEBF0FBECDBFFE0131968BE0DF014E
S1130B101D928A95E9F781E0E82E89831A82109163
S1130B200D0420910C04F12C02E03E814F81588584
S1130B3069857A858B850E9428022B960FB6F894D6
S1130B40DEBF0FBECDBFDF91CF911F910F91FF90FC
S1130B50EF9008950E94BD040E943E080EE014E048
S1130B60C4E0D4E00F2EF0E18F2EF4E09F2EF02DA0
S1130B700F2EF6E06F2EF4E07F2EF02D0F2EFDE009
S1130B80CF2EF4E0DF2EF02D0F2EF3E0EF2EF4E065
S1130B90FF2EF02D0F2EFCE04F2EF4E05F2EF02DF3
S1130BA00F2EF2E02F2EF4E03F2EF02D0F2EF6E064
S1130BB0BF2EF02D0E946D0620930E0430930F0477
S1130BC0409310045093110460931204709313041F
S1130BD00E94490790930D0480930C04F8018081CE
S1130BE0918128813981A901465F5F4F48175907D0
S1130BF0ACF0F40140815181F30160817181FB010A
S1130C003A96E417F50754F02A50310982179307EE
S1130C102CF06A5071094617570714F40E94FE0419
S1130C208FEF9FE20197F1F700C000000E943005AA
S1130C30EFEFFFE23197F1F700C00000F601808189
S1130C4090E0F701208130E0A901465F5F4F48172B
S1130C505907ACF0F201408150E0F101608170E08D
S1130C60FB013A96E417F50754F02A50310982172C
S1130C7093072CF06A5071094617570714F40E9421
S1130C8076058FEF9FE20197F1F700C00000F801AD
S1130C90DE018B2D01900D928A95E1F780910C0471
S1130CA090910D04909303048093020483CF87B33F
S1130CB08C7F87BB089546B321E030E0B90102C0C0
S1130CC0660F771F8A95E2F750E09B0124233523B2
S1130CD081E0232B09F480E00895CF92DF92EF9214
S1130CE0FF920F931F93CF93DF93CDB7DEB7C65414
S1130CF0D1090FB6F894DEBF0FBECDBF8E01095FD8
S1130D001F4F7E0187E2E80EF11C6E01E5E2CE0E74
S1130D10D11C84E00E94D70190E0F8018193919363
S1130D208F0185E00E94D70190E0F70181939193B0
S1130D307F010C151D0569F703E010E02AE030E09F
S1130D4042E050E06FE070E0CE0107960E94160387
S1130D507C012AE030E042E050E06FE070E0CE0138
S1130D6087960E9416038C018FEF90E08E199F09DD
S1130D70081719070CF44CC00E151F050CF452C0CB
S1130D804BC02091080180910B0190910C01820FBE
S1130D90911D801791070CF45EC0C12CD12C5BC04F
S1130DA0209108018091090190910A01820F911DFF
S1130DB08E159F050CF44FC0C12CD12C4CC0209132
S1130DC0080180910B0190910C01821B9109081775
S1130DD01907CCF0C12CD12C3EC020910801809180
S1130DE0090190910A01821B910931E020E0E81683
S1130DF0F9060CF030E0C32ED22E2DC086E692E028
S1130E000E944E0A28C06894CC24C2F8D12C23C076
S1130E100E151F0514F7D3CF0F2EF3E0CF2ED12CD0
S1130E20F02D04C06894CC24C1F8D12CF2E0CF1684
S1130E30D10409F4B5CF2CF4E1E0CE16D104F1F6D7
S1130E40CCCFF3E0CF16D10409F49BCF84E0C816CD
S1130E50D104A1F6B4CFFA82E9821C830B83DE822B
S1130E60CD822E2D3A81402F5C816C2D7E8180E0D5
S1130E7090E0CA5BDF4F0FB6F894DEBF0FBECDBF64
S1130E80DF91CF911F910F91FF90EF90DF90CF9062
S1130E900895CF9387E00E94D701C82F86E00E946F
S1130EA0D701982F8C2FCF91089540E050E070E047
S1130EB060E014C09C01240F351FE0910F01F091F4
S1130EC01001E20FF31F108201968038910591F70B
S1130ED040585F4F411584E0580719F0872F962F2B
S1130EE0E9CF0895806BE0E0F0E1808310828FE722
S1130EF080830895DF92EF92FF920F931F93CF9315
S1130F00DF9380E00E94720720E030E0F12C6894C7
S1130F10DD24D7F8E12CC0E0D2E121C0022F132F49
S1130F20A901481B590BE0910F01F0911001E40F46
S1130F30F51F408148830197009781F787E08F155B
S1130F4028F081E08F0D0E94720703C080E00E94A8
S1130F507207F39488E0F81639F0202F312F8D2D85
S1130F609E2D20583F4FDACFDF91CF911F910F91E3
S1130F70FF90EF90DF900895E0E0F0E18EEA808347
S1130F8081EA80838AED808382E1808388EC808398
S1130F9088EA80838FE3808385ED808380E8808383
S1130FA081E8808380E5808389ED808381E280838A
S1130FB080E2808382E080838BED808380E3808382
S1130FC08DEA8083108284EA808386EA80838FEAB4
S1130FD0808383ED808381E0808380E4808380EB61
S1130FE0808310828FE780830E9455070E947A07CE
S1130FF00895EF92FF920F931F93CF93DF93172FD0
S1131000FC012081222399F1F0E86F9FA0011124B3
S1131010EC0100E0E12CF12C27C0612F620FFA01F2
S1131020E60FF11DA0910F01B0911001AE0FBF1F8B
S1131030E881F0E0B097EE0FFF1FEE0FFF1FEE0FF9
S1131040FF1FE20FF31FE059FF4FE491EC932F5F72
S11310503F4F2830310509F7185F0F5FEC01C00FCF
S1131060D11D2881222319F02E2D3F2DD6CFDF91BB
S1131070CF911F910F91FF90EF9008950E94550713
S11310800E947A072FEF8FEF9DE12150804090401E
S1131090E1F700C0000060E070E083E893E00E94A4
S11310A0F90761E070E084E993E00E94F90762E0E7
S11310B070E085EA93E00E94F90763E070E086EB54
S11310C093E00E94F90764E070E087EC93E00E94EB
S11310D0F90765E070E088ED93E00E94F90766E0A7
S11310E070E089EE93E00E94F9070E947A072FEFDF
S11310F08FEF9DE1215080409040E1F700C0000057
S11311000E9455070E947A07089585B7806885BFB5
S113111080B7806280BF80B710BE80B710BE0895CC
S11311205D9BFECF8CB908955F9BFECF8CB1089573
S113113010BC8FE189B98AB188618AB980B58668A3
S113114080BD80B5877F80BD80B58F7B80BD80B535
S11311508F7E80BD80B58F7E80BD64E978E080E9B4
S113116098E00E94030A089597FB072E16F4009452
S113117007D077FD09D00E94C80807FC05D03EF4CB
S1131180909581959F4F0895709561957F4F08952F
S1131190AA1BBB1B51E107C0AA1FBB1FA617B70799
S11311A010F0A61BB70B881F991F5A95A9F78095B5
S11311B09095BC01CD010895CF93DF9382309105C2
S11311C010F482E090E0E0911604F091170420E01E
S11311D030E0A0E0B0E0309739F140815181481708
S11311E05907B8F04817590771F482819381109711
S11311F029F013969C938E9312972CC09093170406
S11312008093160427C02115310531F04217530786
S113121018F0A901DB0101C0EF019A01BD01DF0152
S11312200280F381E02DD7CF21153105F9F0281B79
S1131230390B2430310580F48A819B816115710555
S113124021F0FB019383828304C09093170480935D
S11312501604FE01329644C0FE01E20FF31F81938F
S1131260919322503109398328833AC02091140480
S113127030911504232B41F4209102013091030194
S1131280309315042093140420910001309101013E
S11312902115310541F42DB73EB740910401509119
S11312A00501241B350BE0911404F0911504E21799
S11312B0F307A0F42E1B3F0B2817390778F0AC0175
S11312C04E5F5F4F2417350748F04E0F5F1F509352
S11312D01504409314048193919302C0E0E0F0E07C
S11312E0CF01DF91CF910895CF93DF93009709F455
S11312F087C0FC01329713821282C0911604D091E8
S11313001704209781F420813181280F391F80919F
S11313101404909115048217930779F5F09315043A
S1131320E09314046DC0DE0120E030E0AE17BF0787
S113133050F412964D915C9113979D0141155105FE
S113134009F1DA01F3CFB383A28340815181840F81
S1131350951F8A179B0771F48D919C911197840FA7
S1131360951F02969183808312968D919C91139779
S1131370938382832115310529F4F0931704E093B4
S113138016043EC0D9011396FC93EE9312974D9127
S11313905D91A40FB51FEA17FB0779F48081918151
S11313A0840F951F0296D90111969C938E93828186
S11313B0938113969C938E931297E0E0F0E08A81D8
S11313C09B81009719F0FE01EC01F9CFCE01029642
S11313D028813981820F931F2091140430911504C0
S11313E02817390769F4309729F4109217041092DA
S11313F0160402C013821282D0931504C0931404FD
S1131400DF91CF9108950F931F93CF93DF93EC0156
S11314108B01009731F46115710519F480E090E0B7
S113142038C06EE070E081E090E00E947B0AFC012D
S11314300097A1F380E883830115110571F01387E8
S1131440028781E883838091180490911904892B81
S113145021F4F0931904E09318042097C9F0D1877C
S1131460C08783818260838380911A0490911B04D6
S1131470892B71F4F0931B04E0931A0480911C04EB
S113148090911D04892B21F4F0931D04E0931C0416
S1131490CF01DF91CF911F910F9108950F931F9367
S11314A0CF93DF93E0911A04F0911B04238121FF71
S11314B01BC0EC0100E010E0899160911A04709166
S11314C01B04DB011896ED91FC911997882331F0E8
S11314D00995892B89F30FEF1FEFEECF8AE0099569
S11314E0892B11F4C80102C08FEF9FEFDF91CF91D8
S11314F01F910F9108950F931F93CF93DF93869FAE
S11315008001879F100D969F100D1124C8010E9421
S1131510DC08EC01009729F0A80160E070E00E946B
S1131520970ACE01DF91CF911F910F910895DC01AD
S113153001C06D9341505040E0F70895F894FFCFF7
S113154000001E04200001000F7D00810000000047
S11315501843414E207472616E736D697373696FC1
S11315606E206572726F7200546573742043414E2D
S1131570206275730043414E2069643A2025642C2F
S11315802043414E2064617461206C656E67746809
S11315903A2025642C2043414E20646174613A2032
S11315A025632C2025632C2025632C2025632C20E7
S11315B02563200A0043414E206D73672073656ED6
S11315C074202D3E2043414E2069643A2025642C2A
S11315D02043414E2064617461206C656E677468B9
S11315E03A2025642C2043414E20646174613A20E2
S11315F025632C2025632C2025632C202563200AB9
S11316000043414E535441543A20307825303278C7
S11316100A0043414E4354524C3A2030782530322C
S1131620780A004D435032353135206973204E4FCE
S11316305420696E20636F6E6669677572617469A0
S11316406F6E206D6F6465206166746572207265CB
S11316507365742100494E495420444F4E45004758
S11316606F7420756E646566696E656420696E7456
S1131670657272757074730043414E2042757474C0
S11316806F6E2073656E740057616974696E6720AC
S1131690666F72206D7A206D6573736167650047AC
S11316A06F74206974004572726F7220726563658D
S11316B06976696E67206A6F79737469636B2076E3
S11316C0616C7565004A6F79737469636B20706F20
S11316D0736974696F6E20783D2564202C20793DF0
S11316E02564202C20646972656374696F6E3D25DE
S11316F0730A00536C6964657220506F736974696E
S11317006F6E3A206C6566743D2564202C207269E6
S11317106768743D25640A004E45555452414C0097
S11317204C454654005249474854004C4546545F82
S11317305550004C4546545F444F574E005249475C
S113174048545F55500052494748545F444F574EE0
S1131750003C0068656C6C6F5F776F726C64004965
S11317602077616E7420746F206772656574200041
S11317706772616E646D612C206265636175736567
S1131780002073686520697320736F6F6F6F6F6FCC
S11317906F6F20707265747479004E554C4C2073D1
S11317A075626D656E7500656D707479206D656E1A
S11317B07520706F696E74657220646574656374F6
S11317C0656400202E2D2D2D2D2D2D2D2D2D2D2D0F
S11317D02D2E2000207C2050696E6720506F6E678C
S11317E021207C200020602D2D2D2D2D2D2D2D2D03
S11317F02D2D2D272000202020202020205E202099
S113180020202020202000202020202020207C2098
S113181020285C5F2F292000202020202020207CED
S11318205F5F284F2E6F29200020202020202020B9
S1111830202020283E203C2920002564200092
S9030000FC
