S00C0000455049432E73726563F7
S11300000C9438000C9455000C9455000C945B002F
S11300100C9455000C9455000C9455000C94550008
S11300200C9455000C9455000C9455000C945500F8
S11300300C9455000C9455000C9455000C945500E8
S11300400C9455000C9455000C9455000C945500D8
S11300500C9455000C9455000C9455000C945500C8
S11300600C9455000C9455000C9455000C945500B8
S113007011241FBECFEFD4E0DEBFCDBF11E0A0E05E
S1130080B1E0E4ECF6E002C005900D92A236B107AF
S1130090D9F721E0A2E6B1E001C01D92AE36B20765
S11300A0E1F70E947D000C9460030C9400008BB770
S11300B080628BBF08951F920F920FB60F92112486
S11300C08F939F9381E090E090936301809362010A
S11300D09F918F910F900FBE0F901F9018958FE1F5
S11300E090E00E9489010E9476010E9457000E94BC
S11300F0840078940E94250108950E946F000E9454
S11301005B0180E090E0089587B317BA089540E05A
S113011050E010C0E0910601F0910701E80FF91FCB
S11301201082019682179307A9F74F5F5F4F4830FB
S1130130510551F0CA019695982F88279795879570
S11301409C0120583F4FE6CF089540E050E06FEF08
S113015010C0E0910601F0910701E80FF91F6083D8
S1130160019682179307A9F74F5F5F4F48305105F7
S113017051F0CA019695982F8827979587959C01E9
S113018020583F4FE6CF0895CF93DF9340E050E0EF
S1130190A0E0B2E1C1E0D0E113C0E0910601F0912A
S11301A00701E80FF91F60816C930196821793078A
S11301B0A1F7488318824F5F5F4F4830510551F0D3
S11301C0CA019695982F8827979587959C01205862
S11301D03F4FE3CFDF91CF9108959C012150310926
S11301E02034310520F4815C80930110089588E067
S11301F091E00E94E90108959C01215031092038C1
S1130200310558F4E1E0F0E191E290839FEF980F1B
S113021090836150860F8083089583E391E00E9468
S1130220E901089581E090E00E94ED0060E870E04B
S113023081E090E00E94FC0080E090E2E0E0F2E1E6
S1130240108201970097E1F70895E1E0F0E18EEA6A
S1130250808381EA80838AED808382E1808388ECD5
S1130260808388EA80838FE3808385ED808380E8C0
S1130270808381E8808380E5808389ED808381E2C7
S1130280808380E2808382E080838BED808380E3BF
S113029080838DEA8083108284EA808386EA808367
S11302A08FEA80838FE080838FE180830E94120134
S11302B00E94870008950E9487000E94C4002FEFC7
S11302C08FEF9DE1215080409040E1F700C0000095
S11302D00E94A5000E94C4002FEF8FEF9DE12150E2
S11302E080409040E1F700C00000E5CF85B780680A
S11302F085BF80B7806280BF80B710BE80B710BE54
S113030008955D9BFECF8CB908955F9BFECF8CB1A1
S1130310089590BD89B988E18AB986E880BD80B521
S113032010BC80B510BC80B510BC80B510BC65E8AD
S113033071E081E891E00E949E0108950F931F935C
S1130340CF93DF93EC018B01009731F461157105B4
S113035019F480E090E038C06EE070E081E090E055
S11303600E941602FC010097A1F380E88383011523
S1130370110571F01387028781E8838380916401FA
S113038090916501892B21F4F0936501E093640158
S11303902097C9F0D187C08783818260838380914D
S11303A0660190916701892B71F4F0936701E093E2
S11303B066018091680190916901892B21F4F09381
S11303C06901E0936801CF01DF91CF911F910F91F3
S11303D008950F931F93CF93DF93E0916601F091FB
S11303E06701238121FF1BC0EC0100E010E089912B
S11303F06091660170916701DB011896ED91FC91A3
S11304001997882331F00995892B89F30FEF1FEF92
S1130410EECF8AE00995892B11F4C80102C08FEF51
S11304209FEFDF91CF911F910F9108950F931F9329
S1130430CF93DF93869F8001879F100D969F100DA9
S11304401124C8010E943202EC01009729F0A8018E
S113045060E070E00E945903CE01DF91CF911F91BB
S11304600F910895CF93DF938230910510F482E0C9
S113047090E0E0916C01F0916D0120E030E0A0E0AB
S1130480B0E0309739F14081518148175907B8F0ED
S11304904817590771F482819381109729F01396B4
S11304A09C938E9312972CC090936D0180936C0152
S11304B027C02115310531F04217530718F0A9015F
S11304C0DB0101C0EF019A01BD01DF010280F3816C
S11304D0E02DD7CF21153105F9F0281B390B243035
S11304E0310580F48A819B816115710521F0FB013E
S11304F09383828304C090936D0180936C01FE0109
S1130500329644C0FE01E20FF31F8193919322506F
S11305103109398328833AC020916A0130916B01F3
S1130520232B41F4209102013091030130936B019C
S113053020936A01209100013091010121153105B8
S113054041F42DB73EB74091040150910501241B9D
S1130550350BE0916A01F0916B01E217F307A0F407
S11305602E1B3F0B2817390778F0AC014E5F5F4F05
S11305702417350748F04E0F5F1F50936B014093CB
S11305806A018193919302C0E0E0F0E0CF01DF9132
S1130590CF910895CF93DF93009709F487C0FC01AE
S11305A0329713821282C0916C01D0916D01209711
S11305B081F420813181280F391F80916A01909143
S11305C06B018217930779F5F0936B01E0936A014D
S11305D06DC0DE0120E030E0AE17BF0750F4129684
S11305E04D915C9113979D014115510509F1DA0173
S11305F0F3CFB383A28340815181840F951F8A175F
S11306009B0771F48D919C911197840F951F02960D
S11306109183808312968D919C9113979383828307
S11306202115310529F4F0936D01E0936C013EC06E
S1130630D9011396FC93EE9312974D915D91A40FFB
S1130640B51FEA17FB0779F480819181840F951F08
S11306500296D90111969C938E938281938113966D
S11306609C938E931297E0E0F0E08A819B8100973F
S113067019F0FE01EC01F9CFCE01029628813981EF
S1130680820F931F20916A0130916B01281739075B
S113069069F4309729F410926D0110926C0102C034
S11306A013821282D0936B01C0936A01DF91CF91C0
S11306B00895DC0101C06D9341505040E0F7089566
S10706C0F894FFCFD8
S11306C400006E01200000184C696E652070617290
S11306D4616D65746572206D75737420626520693B
S11306E46E206265747765656E203120616E6420C6
S11306F4363400436F6C756D6E20706172616D6584
S1130704746572206D75737420626520696E20624D
S113071465747765656E203120616E6420313238EA
S10507240000CF
S9030000FC
